:020000041102E7
:1000000003B40148019001BD7511000003B401481B
:10001000019001BD75A9000003B40148019001BD24
:10002000C93E000003B40148019001BD9DA9000034
:1000300003B40148019001BD1130000003B4014830
:10004000019001BD53B9000003B40148019001BD06
:10005000B30E000003B40148019001BDE17CFF1F15
:1000600003B40148019001BD6189000003B4014857
:10007000019001BD1907010003B40148019001BDC1
:10008000A9D8000003B40148019001BDB35201009A
:1000900003B40148019001BD0D52010003B40148B1
:1000A000019001BD8B52010003B40148019001BDD4
:1000B000C1A5000003B40148019001BD9D6A000084
:1000C00003B40148019001BD116E000003B4014862
:1000D000019001BDE94C010003B40148019001BD4C
:1000E0008BB9000003B40148019001BDD1D40000D8
:1000F00003B40148019001BDCD4C010003B4014897
:10010000019001BD85C1000003B40148019001BD0B
:1001100009B8000003B40148019001BD2DFC0000A6
:1001200003B40148019001BD25E7000003B4014874
:10013000019001BDEDB8000003B40148019001BD7C
:100140003148000003B40148019001BDC53F0000E3
:1001500003B40148019001BDF5D5000003B4014886
:10016000019001BDF1FA000003B40148019001BD06
:100170000574FF1F03B40148019001BD99460000BA
:1001800003B40148019001BD1547000003B40148C4
:10019000019001BDC5F0000003B40148019001BD0C
:1001A00079F4000003B40148019001BD63EC000044
:1001B00003B40148019001BD05FF000003B40148EC
:1001C000019001BD3161000003B40148019001BDFF
:1001D00059E4000003B40148019001BDD5E40000DA
:1001E00003B40148019001BD01BF000003B4014800
:1001F000019001BD21F1000003B40148019001BD4F
:1002000039B8000003B40148019001BD77F1000046
:1002100003B40148019001BDC1E2000003B40148EC
:10022000019001BD154D010003B40148019001BDCD
:100230008DE3000003B40148019001BD5511010098
:1002400003B40148019001BDA5FD000003B40148BD
:10025000019001BDA93C000003B40148019001BD1B
:10026000E93DFF1F03B40148019001BD3157FF1F55
:1002700003B40148019001BDADAE000003B40148D4
:10028000019001BD456B010003B40148019001BD1F
:10029000B30E000003B40148019001BD856BFF1F40
:1002A00003B40148019001BDDD6BFF1F03B4014899
:1002B000019001BD1D70FF1F03B40148019001BDF5
:1002C000810E000003B40148019001BD3946FF1FB3
:1002D00003B40148019001BD1546FF1F03B4014856
:1002E000019001BD896FFF1F03B40148019001BD5A
:1002F000B96FFF1F03B40148019001BD3D70FF1F9E
:1003000003B40148019001BDBD4FFF1F03B4014874
:10031000019001BD358DFF1F03B40148019001BD5F
:10032000D70E000003B40148019001BD1D4B010030
:1003300003B40148019001BDF54E010003B401482A
:10034000019001BD434D010003B40148019001BD7E
:100350002526000003B40148019001BDC94A0100EF
:1003600003B40148019001BD014C010003B40148F0
:10037000019001BDF94C010003B40148019001BD99
:10038000691F000003B40148019001BD5D17000022
:1003900003B40148019001BD3D4B010003B4014885
:1003A000019001BD5952010003B40148019001BD03
:1003B0005125000003B40148019001BD594F0100CF
:1003C00003B40148019001BD8D12000003B401483F
:1003D000019001BD4D1F000003B40148019001BD13
:1003E0005522000003B40148019001BDDD52010017
:1003F00003B40148019001BD1D4D010003B4014843
:10040000019001BD017F000003B40148019001BDCE
:10041000E117000003B40148019001BD7918000004
:1004200003B40148019001BDD949010003B401485A
:10043000019001BDE928000003B40148019001BD0D
:100440005549010003B40148019001BD4551010027
:1004500003B40148019001BDC926000003B401485E
:10046000019001BDC90E000003B40148019001BD17
:100470002557FF1F03B40148019001BDE518FF1F78
:1004800003B40148019001BDFF18FF1F03B40148E8
:10049000019001BD994AFF1F03B40148019001BDBD
:1004A0009D91FF1F03B40148019001BDF94AFF1F50
:1004B00003B40148019001BD5D3FFF1F03B4014833
:1004C000019001BD0140FF1F03B40148019001BD2F
:1004D0003961FF1F03B40148019001BD1161FF1F85
:1004E00003B40148019001BDF53FFF1F03B401486B
:1004F000019001BD2542FF1F03B40148019001BDD9
:10050000656FFF1F03B40148019001BD198BFF1FE8
:1005100003B40148019001BDC591FF1F03B4014818
:10052000019001BDF530FF1F03B40148019001BDEA
:10053000291C000003B40148019001BD851F000083
:1005400003B40148019001BD090E000003B4014845
:10055000019001BDA946010003B40148019001BD0D
:100560001147010003B40148019001BD4325FF1F5D
:1005700003B40148019001BD1D25FF1F03B40148CC
:10058000019001BDE565FF1F03B40148019001BD65
:10059000F168FF1F03B40148019001BD5966FF1FB8
:1005A00003B40148019001BDB14E000003B40148FD
:1005B000019001BD3D18000003B40148019001BD48
:1005C000AD43FF1F03B40148019001BDD561FF1F7A
:1005D00003B40148019001BD1D83FF1F03B401480E
:1005E000019001BD8960FF1F03B40148019001BD66
:1005F000D960FF1F03B40148019001BD156B0100D4
:1006000003B40148019001BD815FFF1F03B401489D
:10061000019001BD4163FF1F03B40148019001BD7A
:10062000E548000003B40148019001BD29510100D3
:1006300003B40148019001BDD91B000003B4014877
:10064000019001BD5147010038B5044600F044F85F
:100650000146684601704470210A81706A46032190
:100660000248FFF7CDFC002038BD00001B20000031
:1006700038B5044600F056F80146684601704470EB
:10068000210A81706A4603210248FFF7B9FC002065
:1006900038BD00001A20000008B5002802D000F084
:1006A00049FA00E01220694608706A4601210248B2
:1006B000FFF7A6FC002008BD0520000070B50C4621
:1006C0000546FFF7A3FC21462846FFF7A5FC044694
:1006D000FFF7A8FC204670BD10B5114AA121890082
:1006E000126841438C189D2189000959012901D0C4
:1006F0000C2010BDFFF79CFC0028FAD1E01DF9305A
:1007000002790621012A06D041710D212046FFF70A
:1007100095FC002010BDFF20213001550221F5E796
:100720003409FF1F70B50D46134AA12189001268D4
:1007300041438C189D2189000959012901D00C20C1
:1007400070BD002D16D0FFF773FC0028F8D11021E2
:100750000B1A2A5C1B19E033401CC0B29A71102896
:10076000F6D30121F820015505212046FFF766FC4C
:10077000002070BD122070BD3409FF1FFEB5089D1A
:10078000099C1746002874D0002972D0002C02D092
:10079000012C02D003E02A2201E0FF220732921D41
:1007A0000192354A0E461770344A1060344803707F
:1007B0003448057034480470002446E0A1208000CD
:1007C000254645432D48A121006889002818FFF7D8
:1007D0003BFC2A482D49006862002818FF30813010
:1007E000C66201983618002088545118487026496E
:1007F000097800293BD0FF211131009121461C20AE
:1008000041432248002220300D182A764254E0B29B
:100810000099FFF71FFC686000202872E0B20122F7
:100820000099FFF717FCE86000202874E0B202226C
:100830000099FFF70FFC68616968002919D0E96821
:10084000002916D0002814D0641CBC42B6DB00205E
:100850000F4D104A014683009C186580401CD154FE
:10086000C0B261701028F6D30020FEBD01E0342133
:10087000C3E71220F9E700001409FF1F3409FF1F26
:100880001509FF1F1609FF1F1709FF1F80E5FF1F2E
:10089000FFFF000060E7FF1FF8B5714D0028AA793F
:1008A00016D0012A01D0032A12D16E490B78FF2BF2
:1008B0000ED14B78FF2B0BD18B78FF2B08D1CB7847
:1008C000FF2B05D10B79FF2B02D14979FF2930D0BD
:1008D00065490B78012B1DD00026644C0E702178E1
:1008E000092931D00A292FD00B292DD00C292BD042
:1008F0000D2929D0052927D0062925D0A97B002933
:100900000AD0012908D0032906D0022904D00429DD
:100910000FD101E00C20F8BD002A05D0012A03D038
:10092000022A01D0032A04D1514F002875D0012892
:1009300001D01220F8BDA888012805D0FFF766FB7A
:100940002078002802D01AE02120F8BDA87B0300FF
:10095000FFF786FB050408100C0824000120207016
:100960001F200AE002202070202006E004202070D2
:10097000222002E0032020702120FFF777FB20785F
:10098000282101280DD002280BD0042809D00328E3
:1009900007D007280ED008280CD01BE026701E2098
:1009A000EBE7344806602975FFF766FB002820D086
:1009B000AE800FE03048C068808D80060AD52F4891
:1009C0000278002A06D1AA7B032A06D0022A04D084
:1009D000002A02D0FFF726FBB6E702220270297533
:1009E000140321463878FFF74DFB21463878FFF78E
:1009F0004FFB0120A88022480078002809D0214818
:100A0000012102887D20C0004243C9033878FFF7E6
:100A100045FBFFF707FB20E0FFE7FFF7F7FAAE80A3
:100A20002078072808D0082806D026701648FFF737
:100A30003BFB1E20FFF71AFB10480178002905D068
:100A40000670012149033878FFF71CFBFFF7EAFA2B
:100A50000121C9033878FFF715FB0020F8BD00001D
:100A6000A60BFF1F6B09FF1F1A09FF1F1C09FF1FA1
:100A70001B09FF1F4809FF1F70BBFF1F2309FF1F32
:100A80002109FF1F2C09FF1F00100040FFB585B092
:100A900016460D460446119FFFF7B8FA1548294639
:100AA000007804902046202C00D22020202900D25B
:100AB00020210EAA2CCA009201AAA8C23246089B85
:100AC000FFF7F8FA05460C480A4944800498087074
:100AD000012E01D0042E08D1084880230078C101DE
:100AE000074882889A4311438180FFF79BFA284682
:100AF00009B0F0BD1C09FF1FA60BFF1F7809FF1FDF
:100B00006C11FF1F10B5FB2908D8084B9A4205D875
:100B10001B2903D3FF2349339A4201D2302010BD51
:100B2000034B19825A82FFF7CBFA10BD4808000028
:100B30008410FF1FF8B53249097801292AD002290B
:100B400028D0032926D0042924D0052922D006291B
:100B500020D02C49097802291CD004291AD0012957
:100B600018D0032916D0062914D0072912D00178ED
:100B7000254C8C462170467866708378A370C278C5
:100B8000E270017921714079204D6071AF79012FB8
:100B900002D008E00C20F8BD6746EF712E726B7230
:100BA000AA72E97228730622E91D1948FFF78EFA26
:100BB0000622E91D1748FFF789FA1748017801292D
:100BC0000BD12178417061788170A178C170E17892
:100BD0000171217941716179817110480178012990
:100BE0000BD12178417061788170A178C170E17872
:100BF000017121794171617981710020F8BD000096
:100C00001C09FF1F2309FF1F6B09FF1FA60BFF1FF6
:100C10007211FF1F8A13FF1FBC0BFF1FD40BFF1F96
:100C2000FFB50D46A12189004843234981B00968D9
:100C30001E464418002D09D0FF20D930015B0398CF
:100C4000814203D3002E04D0012E02D0122005B021
:100C5000F0BDE07800280AD00520C0012718174809
:100C6000F9780078801C814203D30720EFE7022047
:100C7000EDE7FFF7CBF9F878A91E401CF870039850
:100C80000870002E10D00120487020467C30091FCB
:100C9000FFF722FAFFF7C6F909480078082805D0BF
:100CA000072803D00020D2E70220EDE700212046EC
:100CB000FFF718FAF6E700003409FF1F1509FF1FB8
:100CC0001C09FF1F70B50446FF30FF300230406F33
:100CD0000D46012812D1282D10D1A420005BE188F7
:100CE000401A1D4980B2884208D321466A31052244
:100CF0000E46481FFFF7FCF9002818D017490020BE
:100D0000820052185278002A16D0401CC0B2102817
:100D1000F6D31348012189020078FFF7B9F9207949
:100D2000010110480918897902290DD00FE03146D8
:100D30002046FFF7E3F970BD800023794218538005
:100D40000D5401205070E4E74178491E417020465F
:100D5000FFF7DAF970BD0000FF7F000060E7FF1FBA
:100D60001B09FF1F300DFF1FF0B5054687B0E030AF
:100D700004902846A0300390403805900920800157
:100D80002E462818FF36E136029030462030EF1DFF
:100D9000F9372C46803401909FE1E07A801E0300F1
:100DA000FFF75EF91A0E3822396BF638C13892D146
:100DB000A9383838383838F5F4F3F23838F1F038E3
:100DC000A07A012803D02846FFF7A4F912E0C5480D
:100DD0008078002801D0162130E1608A401E00048E
:100DE000000C60826FD076E1A07A012804D02846FA
:100DF000FFF796F9A0726EE1BA48C0780028ECD0EF
:100E00002846FFF793F92A4629462879C832C03187
:100E1000FFF792F961E1A07A012813D00498C07D10
:100E2000012821D00498007E00287BD02A4629463C
:100E30002846D732B031E730FFF784F90499012012
:100E4000C8754AE1A748C078002805D00399012059
:100E500088710020E0673860B8790128BDD106218B
:100E60002846FFF775F938E12846FFF777F901289A
:100E7000B9D10020B8710120BCE7A07A012803D0C5
:100E80002846FFF771F9B5E79648C0780028A4D046
:100E9000E88C68842846FFF749F905990120C8764F
:100EA000207138790128287909D001220021FFF723
:100EB00061F9002038713872F871B8710DE10021C4
:100EC000FFF75EF9F5E7B8E0A07A012805D02846DB
:100ED000FFF75CF9012807D0FDE0F8790128BDD1C2
:100EE0002846FFF723F9F8E00020F871039988718C
:100EF0000120A072F1E0A07A012804D07979284677
:100F0000FFF74AF976E77748C178002906D0039AB7
:100F100000219171059A0121D176217180780028F4
:100F2000DED15AE78EE0A07A012803D02846FFF7E9
:100F300039F95FE76B48C0780028F2D00120387398
:100F4000E88C6884CCE7A07A012805D00120F875E8
:100F50002846FFF72DF94DE7787D012806D0608AF5
:100F6000401E0004000C608213D0B4E0B87D01285C
:100F7000B6D1B88B00907B8B3A7E29790020FFF7A1
:100F80001DF9ADE78FE072E03BE02DE01BE009E0EA
:100F90009CE0B88B00907B8B3A7E29792220FFF76A
:100FA0000DF94AE0A07A012806D02846FFF70CF98F
:100FB000A072002070748EE04A48C0780028B0D03B
:100FC000012070748CE7A07A012803D02846FFF72F
:100FD00001F90FE74348C0780028A2D00020307400
:100FE0002879FFF7FDF87BE7A07A012803D028468F
:100FF000FFF7FCF836E03B48C078002891D001208C
:1010000018E0A07A012807D0707FB17F08401BD07C
:1010100041071DD5042020E03248C07800288CD03C
:1010200001990020C871019A012111722E49097994
:10103000012987D10199087252E722212846FFF73A
:10104000DBF8012007B0F0BD707E7075B07E05E062
:10105000800701D5022000E001207075B075284698
:10106000FFF7D0F8A07201990020087233E0A07A4F
:10107000012807D02846FFF7CBF8A072029901207B
:10108000087628E01748C07800289BD1608A401E67
:101090000004000C60821ED114480422002128188C
:1010A000FFF7BCF8C9E7A07A012803D02846FFF76C
:1010B000BBF89FE60B48C07800280ED002990020AC
:1010C00008760299C875FFF7B5F809E72846FFF7D3
:1010D000B7F8012887D00020B4E7E07B002800D0D3
:1010E0005BE6AFE7E010FF1F70BBFF1F560200007A
:1010F0000E480D4901600E4981600C490D4A40318E
:101100004A610E4B0C4A5A610D4AC2620D4A826313
:101110000D4A8A600D4A4263084A0D48403A1062FF
:101120000C488861704700008D0A02114000FF1FC3
:1011300099080211C182FF1F417FFF1F4002FF1F5C
:10114000D173FF1F4572FF1FC50C0211690D0211FB
:101150002575FF1FD531FF1F70B5FEF757FF904C67
:10116000002025682060FFF771F806462560FEF72D
:1011700059FF304670BD8B49C968FF3181318865A0
:101180007047F8B5FFF768F8864D874A687211789E
:10119000022903D9002801D10120107083490020C1
:1011A0000446E9608300401CCC50FF28FADDE86863
:1011B0007F49882319507F49C1627F4909780029F6
:1011C00002D07C491131C1620A2101651178816325
:1011D0007A49C161FFF746F8E96879484861192002
:1011E00080018861084637228030C2600823362299
:1011F0000B64CA631E224A643622426032220260B5
:101200003B220364C263282242644122C264392221
:1012100082643222436502652822826502220266C8
:101220004222C2651E22836642662822C2662022AE
:101230004267422202675A22436102613C22826174
:10124000192292010A605F4A0A63FF222D328A60E6
:10125000CA60FF22F5320A615B4A8A647D22D200AD
:101260005A4EC267CE644A62594A8A623222CA65BD
:1012700006224A658A65CA1DF932022513604D6649
:101280004B25ED008D660925CD66524D0D678C67A7
:101290004B67AB10CB67504FFF313E604A4E8662C2
:1012A0007D26F6008667642646620526C66202260B
:1012B0000663C8264663846338205060474810643C
:1012C0004B2080019061B000D061581010627D20E9
:1012D00000015062D466956513665364D565146742
:1012E00053671E2090663E4890673E485B00813100
:1012F000D0670B608B604860FF20F530C8600861E4
:101300004B20C00010630E6538483749274A81607A
:101310003749803A11613549364A80318A62364A06
:10132000CA62364A8261364AC262364A02632F4A2C
:101330003548403A50633548D0633548C861354830
:1013400090632A4934484031886135493348886080
:1013500026483449803841603349244A416333493F
:10136000C03AD1603349324B204CCB63324B403CC6
:101370002363324B9362324AC263324AC260324ABA
:101380004A63324AE260324A8A63324A0A63324925
:101390008163FEF76DFF0120FEF770FFF8BD0000CE
:1013A0009809FF1F70BBFF1F4A0AFF1F0004FF1FA1
:1013B00070ECFF1F6E0400001498FF1F3A07000036
:1013C00080C3C9019A02000050C30000280A00002F
:1013D0006A180000204E0000F009FF1F00400011B5
:1013E000DC05000040420F002979FF1F0001FF1FAC
:1013F000392FFF1F6187FF1F358AFF1F452CFF1FF5
:10140000D92DFF1F612CFF1F8152FF1F7D4EFF1F33
:101410002994FF1F1592FF1F9D25FF1F050B021129
:101420000002FF1FBD72FF1FAD76FF1F8D31FF1F32
:10143000BD0602110000FF1F0585FF1F4574FF1F39
:10144000057CFF1F7D74FF1F7531FF1F1173FF1F88
:10145000210C02112131FF1F057FFF1F0A78027046
:101460008A7842704A88120A82700979C170042011
:1014700070470A7802700988090A41700220704793
:1014800010B500220EE093005B189C7804705C8815
:10149000521C240A44701C7984709B88D2B21B0AA7
:1014A000C370001D0B789342EDD81806800D10BD57
:1014B000F8B50D4606464978012031700024761CA7
:1014C00016E06978012917D01221614349198A78F9
:1014D00032704A88871C120A7270B61C102230467D
:1014E000091DFEF7F3FD1037B8B21036641CE4B2E4
:1014F0002978A142E5D8F8BDA10049198A7832704F
:101500004A88871C120A7270B61C02223046091DD6
:10151000FEF7DCFDBF1CB8B2B61CE7E710B50C4601
:10152000097801702188090A41706288211D801C98
:10153000FEF7CCFD6088801C80B210BD10B50C4653
:10154000097801702188090A4170A1788170618849
:10155000090AC170A288A11D001DFEF7B7FDA08871
:10156000001D80B210BD10B50C460A88891CFEF71C
:10157000ADFD208810BD10B50B788A7802705343FA
:10158000DCB22246401C091DFEF7A0FD601C10BD08
:1015900010B50B788A7802705343DCB22246401CA7
:1015A000091DFEF793FD601C10BD10B50C460A889E
:1015B000891CFEF78BFD208810BD10B50C460A88EB
:1015C000891CFEF783FD208810BD7FB515460446B3
:1015D000022901D0102903D1022B04D0102B02D0F4
:1015E000002004B070BD994202D10A46294607E0A6
:1015F0001029694607D000F00DF8102269462846E8
:10160000FEF776FDEDE7104600F004F8102269467B
:101610002046F5E770B50C4605000CD0002C0AD02A
:10162000102206492046FEF751FD2878207368787D
:101630006073012070BD002070BD0000C09A0211CF
:1016400010B50B460122024903F094FE10BD0000C4
:101650005D14021170B5064608880C46172812D38F
:101660000B4603220949304603F084FE050008D1E9
:10167000074920880988884200D20146304600F098
:10168000B9F9284670BD022070BD00007314021124
:10169000E8BBFF1F10B500231922194603F06AFEAC
:1016A00010BD000010B50A78002A05D00B460722AD
:1016B000024903F05FFE10BD022010BD811402112B
:1016C00010B54A78012A01D0022A08D10A78002AE6
:1016D00005D00B460522034903F04CFE10BD022045
:1016E00010BD0000B1140211024940008968085A77
:1016F00070470000DCBBFF1F10B50B461D220249DE
:1017000003F038FE10BD00001D15021110B50B4688
:101710001B22024903F02EFE10BD00001D15021110
:1017200010B50649002089681723054A02E04400E5
:101730000B53401C1478A042F9DB10BDDCBBFF1F2B
:10174000A4BCFF1F0098022B01D004207047117821
:101750005278120289180180002070470098012BEE
:1017600001D004207047117801700020704770B5D7
:10177000049C1E461546062B1BD36978287809025F
:1017800040182080E978A878090240186080022279
:101790002271291D601DFEF799FCB61FB2B222818D
:1017A000F02A06D82046A91D0A30FEF78FFC00203B
:1017B00070BD042070BD0098042B01D00420704738
:1017C000537811781B02C91801809178D2781202DF
:1017D0008918418000207047F8B584890D46064677
:1017E000002C26D0B2681778380620D50C2C20D9CA
:1017F0000C3CA4B21019009001217088234602F01D
:1018000023F8002811D0022028707806C00F6870D5
:10181000B806800EA870641E2004000CA88001D0B9
:10182000B068401CA8600020F8BD0120ECE7002053
:10183000EAE70120F8BD10B502981146042B14D335
:101840004C780A78240212190280CC788A78240213
:10185000121942801B1F9AB28280F22A05D8801D7D
:10186000091DFEF733FC002010BD042010BD0098B8
:10187000042B01D004207047537811781B02C9183B
:1018800001809178D2781202891841800020704737
:1018900010B502981146062B03D0142B03D0042058
:1018A00010BD022200E0102202714B780A781B0260
:1018B000D2180280CB788A781B02D2184280027933
:1018C000401D091DFEF702FC002010BD30B5039C31
:1018D000D80718D1D805010E022914D30B488088E7
:1018E000814210D8F6200155002008E05578137881
:1018F0002D025B194500401C6353C0B2921C884204
:10190000F4D3002030BD042030BD0000DCBBFF1F3D
:101910000098022B01D004207047117852781202EF
:10192000891801800020704770B51446024604985B
:10193000022B18D3667825783602AD190580054646
:10194000E0352A766976002A0BD0E8219B1E9AB2F0
:1019500042808A4207D8A11C001DFEF7B7FB002079
:1019600070BDF421F2E7042070BD000010B50B46F5
:101970001722024903F0FEFC10BD00003D150211C4
:1019800010B50B460D22024903F0F4FC10BD000017
:101990006715021110B50A78002A05D00B461122EE
:1019A000024903F0E7FC10BD022010BD77150211BB
:1019B00010B50A78002A05D00B460922024903F027
:1019C000D9FC10BD022010BD9115021110B50B46B7
:1019D0000F22024903F0CEFC10BD0000AB1502112E
:1019E00010B50B460B22024903F0C4FC10BD0000E9
:1019F000BB150211034A1388994202D8926840002D
:101A000011527047DCBBFF1F10B50023132219468B
:101A100003F0B0FC10BD000010B5C7210B48FEF765
:101A200033FC0A490120087002F092FD00280BD017
:101A300007F070FF07F05EFF6120FEF72BFC002827
:101A400002D16120FEF72CFC002010BD30DBFF1F0F
:101A500010B50548417D002902D000F007F801E0EB
:101A600000210175002010BD50DBFF1FF8B51E4D91
:101A70002C462034207D002834D0607D002831D0D1
:101A80000026022802D008280DD01EE0A07D612883
:101A90001BD1E07D742818D10021084602F08AF895
:101AA000267566751CE00122104900202B18203392
:101AB0009B7D0F5CBB4208D1401C0828F6DB002A46
:101AC00003D00021084602F049FF08482946401E7D
:101AD000627D36310078FEF7E9FB667502202075DD
:101AE0000020F8BD0720F8BD30DBFF1F09BBFF1F3A
:101AF00070B5184C002620782546603500281ED089
:101B0000A078A9794018302801D30B2070BDFEF7CA
:101B10007DFAA178201D08182146AA796731FEF7C1
:101B2000CBFBA078A9794018A070AE71FEF77AFAC5
:101B30006078002808D0012808D0022806D0A670B6
:101B4000E670AE71072070BD0120607000F004F8EF
:101B5000002070BD30DBFF1FF0B53A4CBFB060789D
:101B600000286CD0A078002869D00026022802D076
:101B7000082810D020E0207961281DD160797428D0
:101B80001AD10021084602F015F84FE007F0C2FE16
:101B900007F0B0FE51E001212B4A002023181B79E9
:101BA000155CAB4208D1401C0828F7DB002903D0A4
:101BB0000021084602F0D2FEFEF784FB002803D085
:101BC0006078012805D006E0FFF726FF50203FB0DF
:101BD000F0BD02206070271DF8216846FEF734FA38
:101BE000FEF714FAA078E178401AF42800DDF4201A
:101BF000C5B2C9192A4601A8FEF75EFB68464580B2
:101C0000FEF710FA11486946027811480088FEF77D
:101C10005FFB002803D004280FD01120D7E7E0781D
:101C20004019C0B2E070A1788842D5D16670E670E4
:101C3000A67002F08DFC0028A8D10020C7E707207D
:101C4000C5E7000030DBFF1F09BBFF1F76BAFF1F8F
:101C50007ABAFF1F10B5C7210548FEF715FB02F041
:101C600077FC002801D007F055FE002010BD0000D1
:101C700030DBFF1FFEB5124A104DD768166890681A
:101C8000019002F0E7FB0F4C02902078FEF726FB54
:101C9000207800903B463046019A0299FEF724FBDB
:101CA0002946302297312078FEF724FB06A0FEF764
:101CB00027FB0020FEF72AFB0020FEBD30DBFF1FC4
:101CC000B09A021108BBFF1F5054204D6F640A00E8
:101CD000FFB51746294A91B0050011D001E0491E11
:101CE0006D1C2878202809D0092807D0002907D0A2
:101CF00000266C1C324668466B181EE00029EED1A7
:101D0000104615B0F0BD21783D290ED02C290CD0FD
:101D10000D2907D00A2908D021462039C97F00297A
:101D200007D009E061780A2901D0227004E022700E
:101D300005E0B1004450761C641CA342E3D80020A7
:101D400001E0401CC0B2B042FBD3002408E00C20EC
:101D5000604339582846FEF7DFFA002805D0641C96
:101D600014988442F3D30020CBE70C204443E019BD
:101D70008268694630469047F5E70000FFFF0000A3
:101D8000F0B500252B4606E0C55C202D01D0092DBD
:101D900003D15B1C9BB28B42F6D3002401262D2D70
:101DA0001BD1661E17E0C55C2F46303F092F03D8B4
:101DB00054436419303C0EE02F46613F052F03D891
:101DC00054436419573C06E02F46413F052F06D87F
:101DD00054436419373C5B1C9BB28B42E3D33046BF
:101DE0006043F0BDFFB59BB00025169516AA179568
:101DF00000F08CF806460A2877D2044606204443B1
:101E0000204620306A460E2106F050F9002802D103
:101E100068468089C5B21D9819901E99082912D06C
:101E200000201890082910D0274621371C220021B5
:101E30006846FEF7F3F96A461C21384606F036F983
:101E4000002805D010E00120EBE727462237EDE718
:101E50006846807EC01F092806D8E907C90F6A4670
:101E6000189B199800F01CFB1422002111A8FEF702
:101E7000D5F92046243011AA102106F017F90028C0
:101E800012D11022FF2111A8FEF74CFA00280BD125
:101E90002046253015AA042106F008F9E907C90FE4
:101EA00011AA1D9800F01CFD304607AA28217030A9
:101EB00006F0FCF8002811D107A803F041FB00242C
:101EC00007AEA00080190188002903D082781D98F0
:101ED00000F0B4FF641CE4B20A2CF2D3A80704D5C6
:101EE000094801781D9800F097FF1E98042808D132
:101EF00005491D98491C085C022802D11D9803F071
:101F00002DFB00201FB0F0BDFCB8FF1FF0B50A2468
:101F100085B015460F46002806D0012804D00228B7
:101F200010D0032845D11FE0084603F0D7FA044635
:101F30000A283ED2002D3CD0062239462846FEF71C
:101F4000C5F836E01C4E00240E206043801906229E
:101F50003946801DFEF7CCF8002822D1641CE4B27B
:101F60000A2CF1D30A241CE0002420460621484311
:101F70006A461021233006F099F800280CD110226F
:101F8000FF216846FEF7CEF9002805D1394668469C
:101F900000F048FC002804D0641CE4B20A2CE4D30E
:101FA000E0E70A2C05D2002D03D02946204603F095
:101FB000ADFA204605B0F0BD2CD7FF1F70B50C461A
:101FC0000146032000020A1A002534481300FEF7D8
:101FD00047F81D1012151C1F2326282C30323438C8
:101FE0003A3C3E40424446484A4E50525A54565853
:101FF0005A00C07911E01022294902E02849102234
:1020000010312046FEF762F845E0C06A206042E0E9
:10201000224906223C31F4E7007820703BE08089B9
:1020200036E01E4942784231EBE71D4982781F397C
:10203000E7E7007AF1E7407AEFE718490622303106
:10204000DFE7807AE9E7C07AE7E7C08920E0808AA5
:102050001EE0C0781CE0C08A1AE0008B18E0408BBC
:1020600016E0808B14E00D4906223631C9E7C08B9B
:102070000EE0008C0CE0408C0AE08079CDE7008A0D
:1020800006E0408A04E0272904D2084600F098FAC6
:10209000208000E00225284670BD00000CBAFF1F1A
:1020A000DFDAFF1F70B50E4C00256071A571691E47
:1020B000E18100F0B1FB0420E07110220021094809
:1020C000FEF7ACF80748102200211030FEF7A6F802
:1020D000E562257265720120A072E57270BD000094
:1020E0000CBAFF1FDFDAFF1FFEB53B4D0C4608049C
:1020F0000CD56879FEF71CF9050004D003F076FFD3
:102100002846FEF71BF90120C00360E0600403D5F8
:10211000012080034840FEBD2F48E1070126807959
:1021200000292AD02978002920D0052821D0287A12
:1021300069460870687A4870274900A8062230313D
:102140000230FDF7C3FFA87A69460872E87A487240
:10215000687900F04DFA002808D00720A871696A54
:10216000002903D00968002900D088472046704024
:10217000FEBD032069460870E5E7A1070DD50528D7
:1021800009D1E889FEF7E0F8AA8A002A03D00221E3
:102190006879FDF783FF022019E0600704D500206D
:1021A00003F07AFF042012E0200712D528790128D5
:1021B00002D002280AD107E00096AB8B6A8B298BEC
:1021C000E88A00F00BF801E000F05AF908206040BE
:1021D000FEBD0020FEBD00000CBAFF1FF8B5134C79
:1021E000069DA679052E01D01420F8BD104F861F3C
:1021F000BE4219D2062917D3BE1DB14214D2FF2701
:10220000F537BA4210D20A2B0ED3B3420CD2E08279
:1022100021836283A383284603F03EFF0421607973
:10222000FDF730FF0020F8BD1820F8BD0CBAFF1FE5
:102230007A0C0000F7B50C46804900981646421803
:102240007F4F00257879B9791300FDF709FF190E42
:10225000141BE92040455970777E888FE996A2A922
:10226000B4BFC8E9E9E9E9D3E900102C76D110221E
:10227000314674486FE0102C70D1724810223146FC
:10228000103068E0042C69D13068F862CEE0012C8F
:1022900064D13B7832783A70002B0AD0002A07D1FB
:1022A000022903D0062901D0042901D100F05EF9EA
:1022B000BCE0002A0AD0012905D0032903D0052952
:1022C00001D0042902D10121FDF7E2FEAEE0022C8B
:1022D00044D13088B881A9E01F2C3FD858481F222C
:1022E00000214230FDF79AFF5548224631464230E0
:1022F000FDF7ECFE524B7C7042332246012112E086
:102300001F2C7CD84F481F2200211F38FDF786FF65
:102310004C48224631461F38FDF7D8FE494BBC7069
:102320001F3B22460021787900F040FB83E0012C1E
:1023300065D13078042862D8387277E0012C5ED1FC
:10234000307803285BD8787270E0062C57D13C486F
:10235000062231463030FDF7B9FE67E04FE0012C30
:102360004DD1307807284AD8B8725FE0012C46D1A9
:102370003078032843D8F87258E0022C3FD13288D5
:10238000BA82002A52D0052950D10221FDF786FEDB
:102390004CE0012C33D13078012830D8F87045E07A
:1023A0003088022C2BD1062829D31921C901884253
:1023B00025D8F8823AE03088022C20D106281ED396
:1023C0001921C90188421AD838832FE03088022C9D
:1023D00015D1FF21F531884211D2788326E030886B
:1023E000022C0CD10A280AD31921C901884206D827
:1023F000B8831BE03178012C01D1012901D01825C7
:1024000014E00821FDF7A6FF002801D016250DE0F5
:10241000002003F041FE04217879FDF733FE05E04A
:102420000098272801D2022C02D002252846FEBDA2
:10243000318800F045FA0546F8E70000FFFCFFFF91
:102440000CBAFF1FDFDAFF1F1CB50B4CA179002966
:1024500001D011201CBD002800D060620649074849
:102460002C31034601910090103B0022E179607904
:1024700000F05AF800201CBD0CBAFF1FEFDAFF1F56
:1024800010B506488179052901D0122010BDC189F7
:102490001322407900F04AFA10BD00000CBAFF1F69
:1024A000FFB5204D81B028781E461746022823D05C
:1024B000012821D0002F22D0019805F00FFD040043
:1024C0001FD0606A002801D0FDF74AFF1C21384662
:1024D000FDF74CFF6062011E15D02878000714D567
:1024E000002E12D0887E00900B4612330A8A019883
:1024F00006F0ECFB014609E0122005B0F0BD022019
:10250000FBE71420F9E71320F7E7002120790422E4
:1025100010432071029A002A02D002221043207137
:102520000846EAE7EDBBFF1FF8B51D460224069FEB
:10253000079E0B00FDF794FD0D170A08080A1708FF
:1025400017080817170A1700002C0CD100F0B4F870
:10255000040008D132463946284600F067F900F0F9
:10256000C7F801F061F92046F8BD000070B5104CC5
:102570002168002904D00978814203D0032070BD6E
:10258000122070BD0B4D02212878FDF77BFD0A4813
:102590000026468004212878FDF774FD0748068050
:1025A0002168032048700020FDF7E6FE70BD0000A2
:1025B0004CBCFF1F7DBCFF1F60BCFF1FF0BBFF1F9B
:1025C000272803D202494000085A70470148704743
:1025D000F8BBFF1FFFFF000010B5044C6070FDF753
:1025E000D1FE0521607800F0E3FF10BD7CBCFF1F29
:1025F00070B5284E054630680C46002801D01120E1
:1026000070BD254801780520014216D02348806816
:10261000002805D00078002802D0C80706D101E0C4
:10262000102070BD00F044F8002808D0207803285E
:1026300005D0022803D0002801D0122070BD0C2044
:10264000FDF7A6FE3060002820D005700021417003
:102650000A222146801CFDF739FD03F0FFFD04002E
:1026600002D002F0CFFF12E00D48007803280ED10F
:102670001D20FFF7A5FF0B490028088007D00B4855
:10268000094A04210078FDF789FE00E01324204662
:1026900070BD00004CBCFF1FEDBBFF1F60BCFF1FE7
:1026A000EEBBFF1FF0BBFF1F60EA00007DBCFF1FF9
:1026B00010B505F06FFC10BD70B50C4605461C2228
:1026C00000210948FDF7AAFD084805704470FDF790
:1026D0006BFE0549002803D000200870122070BD51
:1026E00001220A7070BD0000C0E7FF1FECBBFF1F96
:1026F00070B50F4C0025A068002802D0FDF730FE11
:10270000A560E068002802D0FDF72AFEE5600948D0
:1027100005210078084206D00548103003F050FB30
:1027200002F0B2FE70BD002003F04AFB002070BD35
:1027300060BCFF1FEDBBFF1FFEB5344D0C46080407
:1027400019D56878FDF7F4FD0121C9034C40064610
:1027500000280ED003F054FA002807D12878FF286B
:1027600004D03146FDF726FE002802D03046FDF7A2
:10277000E5FD2046FEBDE007012700280AD0A86835
:10278000002804D04168002901D000208847204655
:102790007840FEBDA00709D56868002804D04168CC
:1027A000002901D00120884702202AE060072AD5AD
:1027B000174E308800281FD0401E0004000C3080C7
:1027C0001ED102F095FF002809D0124807706868F2
:1027D000002804D04168002901D00120884702F078
:1027E00061FF694600F054FF684603F0F3F91D20CD
:1027F000FFF7E6FE308003E004216878FDF742FC35
:1028000004206040FEBD0020FEBD00007CBCFF1F18
:10281000F0BBFF1FEFBBFF1F0149087070470000AE
:102820007CBCFF1F10B500F0D9FF10BD70B50E4C79
:102830000B46261D07C60546102200211846FDF747
:1028400071FD012803D11021A06805F0F1FD1022CF
:1028500000212846FDF766FD012803D1102160689C
:1028600005F0E6FD70BD0000C0E7FF1F38B5054666
:1028700010480C460078400701D4122038BD284685
:1028800005F02CFB002812D00B48A9000068405826
:10289000002801D0817D00E02146684606F070FAEC
:1028A000064B6A460221284606F0CCF938BD1420B2
:1028B00038BD0000EDBBFF1F5CBCFF1F91920211F1
:1028C000272807D2044A914204D0044A40001152FA
:1028D0000020704702207047FFFF0000F8BBFF1F79
:1028E00070B50E46104915460978022916D00129FF
:1028F00014D0002D14D005F0F1FA040012D0002EEF
:1029000003D0207902210843207110222946A01803
:10291000FDF7DCFB28692062002070BD122070BD2D
:10292000022070BD142070BDEDBBFF1FF8B50D4631
:1029300017461D4906461B4A12248868954208D14D
:1029400000282DD00268002A2AD029463046904718
:1029500023E0144A521C954213D1002807D0026884
:10296000002A04D0294630469047040005D0394655
:10297000304602F063FD040012D10B480670477028
:102980000EE0284605F0AAFA002809D00078B042E7
:1029900005D139462846FDF713FD044600E003241F
:1029A0002046F8BDFEFF000050BCFF1FF8B50E46E4
:1029B000014619481546007805221F46104028D0C8
:1029C000304326D01548012E1BD0C468002C20D0DF
:1029D0001F2D18D8002D01D0002F14D001701F22F8
:1029E0000021601CFDF71AFC2A463946601CFDF7E1
:1029F0006DFB28462570002E07D0611CFDF7E6FC14
:102A0000F8BD8468E2E70220F8BD611CFDF7E4FC34
:102A1000F8BD1220F8BD0000EDBBFF1F60BCFF1F1A
:102A2000014610B50020C90704D0034A0421034819
:102A300000F0A8F910BD0000A49A0211C8B9FF1F48
:102A400070B50F4D0F4CA87029461831204600F084
:102A50001DF8002128460B461030CA008452121877
:102A6000491C09065360090EF7D0012004F0D2FA80
:102A7000A87800F071FB044805F0A2FA70BD0000D0
:102A8000A8B9FF1FFFFF00005D68021170B50A4C76
:102A90000025A04209D1002082008C525218401C0F
:102AA000C0B295700228F7D370BD03F0A6FE0028CF
:102AB000FAD00480857070BDFFFF0000F8B50E46A7
:102AC0000746069900240798002902D00B242046C7
:102AD000F8BD022B01D00D24F9E7117852781202CB
:102AE00089188DB22946814301D08024EFE738460A
:102AF000F16800F03FF9A842E9D02A463846F1686B
:102B000000F0CAF90400E2D171892A46384600F083
:102B100067F9DCE770B50C46080412D50A488078DE
:102B2000FDF706FC050008D02878B02802D1284619
:102B300003F080FF2846FDF701FC0120C003604040
:102B400070BD002070BD0000A8B9FF1FFFB583B0A5
:102B5000087A00250C9E1C460F46C0060DD5059828
:102B600003F044FE030006D00A2239460398984732
:102B7000050035D101E00E2532E0387802281DD15C
:102B8000786829220178407812020002081881B280
:102B9000881A91427ED009DC7348081A23D0012894
:102BA00021D002284FD0032808D125E0012872D077
:102BB000022871D003286DD004286ED0059803F048
:102BC0003DFE00286AD00568002DD4D00E990D98DE
:102BD000019100903346224639460398A84705469E
:102BE000284607B0F0BD0D98002872D1F86801782A
:102BF00031800278416896E00D98002869D1012063
:102C00003080F8680021007820707889401C80B2FC
:102C100000F070F900280DD0318802788918891CDD
:102C20003180817A61704189090AA1700278416816
:102C3000E01C79E030880422001D30800021601CF7
:102C4000FDF7ECFACCE70D98002875D1F86802A9D9
:102C50000088009004203080009820700098000ABE
:102C60006070009800F046F9070029D0F8680090DD
:102C70006846028901AB3D49384600F093F90028C7
:102C800010D13B7802213A487A68FEF79EFC002872
:102C900008D104E026E030E01CE04AE062E033487E
:102CA000694688800098007802280CD1009802229A
:102CB0004168201DFDF70AFA3088801C308002E050
:102CC00069460098888068468088A070000AE07095
:102CD00086E731E00D9800282ED1F968039800F0BE
:102CE00049F804E00D98002826D1F86800880221F0
:102CF00031802070000A607072E7F868FDF772FB9F
:102D00000D99C0B2814212D8814201D1002206E061
:102D10000E9A8918814202D30D99401AC2B23280AC
:102D2000F9680D9809182046FDF7D0F958E70725EE
:102D300056E70D98002801D00B2551E70721F868C8
:102D4000318001782170417861708178A17041886B
:102D5000090AE1700179217181796171C088000AE5
:102D6000A0713DE700252FE700280000FFFF0000CD
:102D7000369B021110B503F040FD002800D080788A
:102D800010BD00007CB51546040019D068460194BA
:102D9000018000F0E7F903001DD1002D1BD06489EC
:102DA000002C0DD00C20FDF7F3FA00280AD00023E8
:102DB00003608480094A85609168002904D006E098
:102DC000022308E0132306E0906004E011460A683D
:102DD000002AFBD1086018467CBD0000A8B9FF1F7F
:102DE000F8B50C4C0746207815460E46FF280FD044
:102DF0000A20FDF7FDFA01000AD0B120087000207A
:102E0000487008714F80CE800D812078FDF7D2FA8E
:102E1000F8BD0000A8B9FF1F70B50C46054606496D
:102E2000FFF7A8FF800704D52146284600F0EEF9F9
:102E300070BD012070BD0000C0B9FF1F1CB56B46FE
:102E40001A71120A5A7100220092022301AA00F09C
:102E500001F81CBDFFB583B008461F4601A90C9EB2
:102E600000F048F8050014D06846808803F0E6FCBE
:102E700000280AD04468002C09D000963B46294619
:102E8000059A0398A04707B0F0BD0024F3E70E2091
:102E9000F9E70120F7E7000070B514460E46054635
:102EA00003F0ABFC002806D13146054803F0A5FC31
:102EB000002803D005808470002070BD112070BDF3
:102EC000FFFF000010B50178B0290BD1417800292F
:102ED00008D10179122906D01B2903D1408801218C
:102EE00000F0E2FA10BDFF210231095C0129F5D0A2
:102EF00010BD0000F0B58C4610494B6819E09F6882
:102F00007C89A04214D39E883119814210D90022B5
:102F10000CE011017D186989814205D160460028C5
:102F200000D004802846F0BD521C92B29642F0D8E0
:102F30001B68002BE3D10020F0BD000088BCFF1F00
:102F4000FFB5174881B00A9F446824E000251EE0C1
:102F5000A0682901461870890199884215D3029901
:102F6000884212D80498002807D031787068049BF2
:102F7000039AFEF72AFB002807D0002F02D0A06892
:102F800040893880304605B0F0BD6D1CADB2A088D8
:102F9000A842DDD82468002CD8D10020F3E7000037
:102FA00088BCFF1FFEB5174600256A46958004467B
:102FB00040891D4A1E46904208D001AA0092401C3A
:102FC000237880B26268FFF7BBFF054623780221B1
:102FD00016486268FEF7F9FA002807D12378022123
:102FE00013486268FEF7F1FA002801D060890EE00C
:102FF000237802210F486268FEF7E7FA00280DD017
:10300000002D03D068468088B84203D0384604F0CB
:1030100015F904E06889401E80B200E06089002E46
:1030200000D030802846FEBDFFFF0000349B021117
:10303000369B02113A9B0211FFB581B00F461E4626
:1030400014466946019803F01FFA050018D1002CB8
:1030500006D001221021019804F01AFF05000FD1BB
:1030600039460198FEF748FB050009D1009CFF2E68
:1030700006D021461E22A31C034804F0EBF8E6709C
:10308000284605B0F0BD00004171021110B5054998
:103090000870042100F08CFA00F006F8FEF740FBFF
:1030A00010BD000094BCFF1FF8B50F4D0D4B002064
:1030B0006E1C1C78FF2209E09F688100C919002856
:1030C0000ED00E80CA70401C8A70C0B2A042F3D3EA
:1030D000064803F07DFB064804F072FF0020F8BDAF
:1030E0000D80EFE788BCFF1FFEFF00006D7102112D
:1030F000C1700211F8B50D4614460646694603F044
:10310000C3F917280CD0002C06D00122102130461C
:1031100004F0BEFE002803D129463046FEF7F6FA39
:10312000F8BD000070B50C46080411D509480078B8
:10313000FDF7FEF8050007D00178A02901D103F0C2
:10314000EBFA2846FDF7FAF80120C003604070BD95
:10315000002070BD94BCFF1F0149487070470000FB
:1031600088BCFF1F70B50546008800281DD0686820
:103170000221037842682248FEF727FA002808D186
:1031800068680221037842681E48FEF71EFA00288C
:103190000BD01D4C6088002805D00122298812041C
:1031A000101A814203D9012070BD022070BD0C208D
:1031B000FDF7EEF8060001D000200BE0132070BDF3
:1031C00001016B6862880A315A526188491C401CAF
:1031D000618080B229888142F2D8002030600822C4
:1031E0002946301DFCF772FF6068002802D1666036
:1031F00004E0084601680029FBD10660002070BD8C
:10320000349B0211369B021188BCFF1F70B5BEB003
:103210000D460646002402230E4A0F490120009461
:10322000FFF78EFE002812D040896A4610800420E5
:103230005080012010715471FF209071D0712B4685
:10324000002269463046FFF7F7FE3EB070BD012010
:10325000FBE70000529B0211FFFF0000064949688E
:1032600006E08A685289824201D1888870470968DD
:103270000029F6D10020704788BCFF1F10B514222A
:10328000114201D0012202E04A0604D50022102199
:1032900004F0FEFD10BDC80701D0002010BD0220C3
:1032A00010BD10B514468A0604D50122102104F081
:1032B000EFFD10BD882211420ED008220A401021D5
:1032C00004F0E6FD00280BD0E034617E0029F0D048
:1032D000217E0129EDD103E0880701D4032010BD30
:1032E000002010BD014610B50020C90704D0034AD4
:1032F00007210348FFF746FD10BD0000909A021118
:1033000034B9FF1F70B50D46164600241D49030051
:10331000FCF7A6FE08051234341934222934152D81
:1033200023D8162200211848FCF778FF2A46314698
:103330001548FCF7CBFE22E0022D16D1114910886A
:10334000103908801BE0082D0FD10E4808223146A5
:103350000838FCF7B1FF12E0012D06D1CA6909490E
:103360003078283107E0012D01D0182407E0CA6B1E
:1033700004493078483104F034F800E00224204653
:1033800070BD000034B9FF1FC2D7FF1FF0B5069F04
:10339000099E002833D0102831D800292FD0002AC8
:1033A0002DD0002B2BD0002F29D0079C002C26D00D
:1033B000089C002C23D0002E21D00A9C002C1ED06B
:1033C000104C851D20706570A26061600E490F4A27
:1033D0000B60059911600E490E4A0F600799116044
:1033E0000D4A089911600D49401C08700C490E6087
:1033F0000C4908700C490A9808600020F0BD18209C
:10340000F0BD0000A4BCFF1FE8BCFF1FE4BBFF1F12
:103410005CBCFF1FD4BCFF1FD8BCFF1FC8BCFF1F74
:10342000CCBCFF1F88BCFF1F90BCFF1F0B78037034
:103430000B8802221B0A43700B88801C012B02D0D0
:10344000022B07D011E08A7802704988090A41707E
:1034500004220AE08A7802704A88120A42700A79C5
:1034600082708988090AC1700622104670470000E0
:1034700008B5044B009313460A46012104F016FCDC
:1034800008BD00002D3402111CB5032301920093E6
:103490000A46024B122104F039FC1CBD857502114D
:1034A00010B5FCF7ABFF10BD13B504480078012838
:1034B00003D101AA6946FCF7A7FF1CBDA0BCFF1FF2
:1034C00070B51049104A087000210B468C00491C49
:1034D000C9B213530429F9D30B4C00211034FF2631
:1034E0000A460A256A4315196B80491CA354C9B2C0
:1034F0006E720329F4D3FCF78DFF04F08DFB04F00A
:1035000023FD70BDA1BCFF1FDCE7FF1F082A01D00F
:10351000012070474B780A781B02D2180280CB78C2
:103520008A781B02D21842804B790A791B02D21882
:1035300082808A79C97909025118C18000207047B8
:1035400070B50C46080411D509480078FCF7F0FE68
:10355000050007D00178902901D104F0BFFA284670
:10356000FCF7ECFE0120C003604070BD002070BD80
:10357000A1BCFF1F70B50C490978884213D20B4CCF
:103580000601606800258553301885816068301811
:103590008580606830188068002804D0FCF740FF00
:1035A00060683018856070BDA4BCFF1FD0BCFF1FD1
:1035B000072907D0052905D0042903D0062901D001
:1035C00002207047044A8B009A181346403B198624
:1035D000203A907400207047DCE7FF1F70B5174950
:1035E0000978884228D25C21154C4843A1680546D9
:1035F0004018002640300674A068281840304674F1
:10360000A068281840300676A0682818406D002869
:1036100004D0FCF705FFA068281846650026A068BE
:10362000F100281840184068002801D0FCF7F8FE87
:10363000761CF6B20A2EF2D370BD0000A4BCFF1FA8
:10364000D0BCFF1F70B50A880C460546072A07D074
:10365000052A05D0042A03D0062A01D0022070BD15
:10366000012104F0DFFC002804D02146284603F0A5
:103670009FFF70BD142070BD10B5001D80B2FCF717
:10368000D5FE002803D00321C943FCF7D5FE10BDA9
:1036900038B50C46050014D0002C12D00321684622
:1036A00004F0C6FE6946887840218006800E0843F3
:1036B000694688702246284605F022FC050002D0A3
:1036C00006E0022038BD03226946E01CFCF7FEFC40
:1036D000284638BDF7B58EB00E9815460E46002820
:1036E0002DD0002D2BD0301DC0B20190FCF750FE24
:1036F000040039D001F0E2FF07463246201D0E9942
:10370000FCF7A0FEF8B20890E0703804000E0B90B1
:10371000A0703802000E0A9060703F0E277001F012
:10372000C7FF0146102202A8FCF78CFE06AB21461B
:1037300002A8019A05F03AFB060003D010E002202F
:1037400011B0F0BD089828700B9868700A98A8709E
:10375000EF70082206A9281DFCF774FE01F0B4FFE3
:103760002046FCF7FDFD00E013263046E8E70000A8
:1037700010B5064C2070FCF76BFE06212078FFF791
:1037800017FF034804F01CFC10BD0000BCBCFF1F69
:103790008984021170B50C46080419D50D480078CB
:1037A000FCF7C6FD05000FD004F094FF002808D1F7
:1037B00009480078FF2804D02946FCF7FBFD0028C3
:1037C00002D02846FCF7BAFD0120C003604070BD5E
:1037D000002070BDBCBCFF1F7CBCFF1F7CB50C462D
:1037E00005001DD0002C1BD00322E11C6846FCF70D
:1037F0006DFC6946887840218006800E0843694642
:10380000887001AA284605F07BFB002807D1032217
:10381000214601A8FCF76CFC012803D001207CBDE7
:1038200002207CBD00207CBD10B505480078400713
:1038300001D5044800E0002004F0D4FF002010BDB2
:10384000EDBBFF1FB0BCFF1FFFB58DB00F98169CDE
:103850000E46002815D0002C13D00D9804F03EFB26
:10386000050011D06178207809024018A178E2782B
:103870000904120689184718286AB84206D3401C62
:1038800004D0022011B0F0BD1420FBE7002E04D0BC
:103890002879800701D40120F4E70822002106A836
:1038A000FCF7BCFC1098001DC0B20190FCF770FD45
:1038B000060017D0301D109A0F99FCF7C3FD0422A3
:1038C00021463046FCF7BEFD1022A91802A8FCF7DD
:1038D000B9FD06AB314602A8019A05F067FA05006A
:1038E00002D013E01320CDE7082206A908A8FCF7B0
:1038F000A9FD0822211D08A8FCF7FAFB012801D028
:10390000012503E039460D9802F002FD3046FCF730
:1039100027FD2846B6E7000010B503F0FBFCFCF7D6
:10392000DDFC01F0A7FC0120FCF7F0FC01A0FCF796
:10393000E7FC10BD4154204D6F640A00F0B585B01E
:103940000024064657480D460094019402940394BF
:10395000049480210078FCF795FB012E7ED1286825
:1039600001783F290DD0504902AA0B191B7C135531
:10397000641CE4B2062CF6D3FCF770FD11287ED14E
:103980000FE0494D49A0297CFCF7BAFC0124281915
:10399000017C48A0FCF7B4FC641CE4B2062CF6D30E
:1039A0007DE0002401E0052C28D26000296823185E
:1039B000C85C0246303A092A05D9113A052A02D9CB
:1039C000203A052A5BD85E1C8A5D1746303F092FD6
:1039D00005D9113F052F02D9613A052A4FD89B1C02
:1039E000CA5C3A2A4BD16A461074885D5074102222
:1039F000022104A8FEF7C4F96E4622E060002A689E
:103A00002318D05C01463039092905D91139052917
:103A100002D92039052932D85B1CD15C0F46303FD2
:103A2000092F05D9113F052F02D96139052926D85B
:103A300069460874D05C48741022022104A8FEF77D
:103A40009FF93055641CE4B2062CACD3164C002010
:103A5000315C2218401C1174C0B200E00FE006284F
:103A6000F6D3042001F05AFA002818D0002002A949
:103A70000A5C2318401CC0B21A740628F8D30FA0A1
:103A8000FCF73EFC08488021426B7D20C000424389
:103A900004480078FCF702FB002005B0F0BD09A047
:103AA000EEE7000076BAFF1FCCD6FF1F0A253032A2
:103AB000780000003A253032780000000A45525262
:103AC0000A0000000A4F4B0A00000000FEB5002467
:103AD000304F0D4606460094019480213878FCF75B
:103AE000D1FA30462C4E012834D1286801783F297C
:103AF000318C07D00291FCF7B1FCC1B2052929D85D
:103B00006B460CE025A0FCF7FBFB40E02868005D5D
:103B10000246303A092A1DD81855641CE4B28C427A
:103B2000F4D30020191948701846FCF797FC81B2AD
:103B30000A226846FEF724F980B20146184A203965
:103B4000914207D23084082001F0E8F900280ED015
:103B50000298308413A0FCF7D3FB7D20726BC00069
:103B6000424380213878FCF799FA0020FEBD318C61
:103B70000620FEF7A5FE318C0720FEF7A1FE318C52
:103B80000820FEF79DFE318C0920FEF799FE07A064
:103B9000E1E7000076BAFF1FCCD6FF1F0A256400BC
:103BA000E11800000A4552520A0000000A4F4B0A71
:103BB0000000000010B5FCF757FC002811D00B4C9A
:103BC00080212078FCF75EFA09A0FCF799FB0A48EF
:103BD0008021426B7D20C00042432078FCF75EFAD2
:103BE00002E003A0FCF78CFB002010BD76BAFF1F9B
:103BF0000A4F4B0A00000000CCD6FF1FF0B585B07D
:103C00000024254F0D46064600940194029480211D
:103C10003878FCF737FA3046204E01282BD1286837
:103C200000783F2803D0706B694603900DE01CA01C
:103C3000716BFCF765FB2CE00246303A092A1AD872
:103C40000855082C17D2641CE4B22868005D0028CF
:103C5000F2D1091948706846FCF700FC81B20A22CB
:103C60006846FEF78DF870630F2001F057F90028C1
:103C70000FD0039870630BA0FCF742FB7D20726BA2
:103C8000C000424380213878FCF708FA002005B0D4
:103C9000F0BD06A0F0E7000076BAFF1FCCD6FF1FEC
:103CA0000A2564000A4552520A0000000A4F4B0AD6
:103CB00000000000F8B5204E0C4607468021307801
:103CC000FCF7E0F91D4DA878002803D01CA0FCF7F4
:103CD00017FB01E0012F01D01EA020E02068017831
:103CE0003F290CD0FCF7BAFB21680D280CD30C221D
:103CF0001A48FCF7BFFB19490020087307E0174971
:103D000017A0FCF7FDFA09E01448FCF7B9FB288D71
:103D10001249FCF7BBFB0020FCF7BEFB11A0FCF72F
:103D2000EFFA7D206A6BC000424380213078FCF7B7
:103D3000B5F90020F8BD000076BAFF1FCCD6FF1FF2
:103D40000A4E4120696E204D6173746572206D6F5B
:103D5000646500000A4552520A0000002B98FF1FBC
:103D60000A2573000A4F4B0A00000000F8B5404FC7
:103D70000C46064680213878FCF784F93D4D012E2B
:103D800060D1206801783F2936D03BA12E6BFCF72B
:103D9000C3FA002835D03AA12068FCF7BDFA002804
:103DA00032D039A12068FCF7B7FA00282FD038A10B
:103DB0002068FCF7B1FA00282CD037A12068FCF766
:103DC000ABFA002829D036A12068FCF7A5FA002814
:103DD00026D035A12068FCF79FFA002823D034A113
:103DE0002068FCF799FA002820D033A12068FCF75E
:103DF00093FA00281CD025E031A0296BFCF780FA4B
:103E000028E04B20800114E04B20C00111E0E120AC
:103E100080010EE04B2000020BE04B20400208E046
:103E2000E120000205E0E120400202E0254800E038
:103E300025482863B0420DD00E2001F06FF800280D
:103E400002D02E6321A006E022A0FCF759FAFFF76A
:103E500063FD02E01FA0FCF753FA7D206A6BC000EF
:103E6000424380213878FCF719F90020F8BD0000A2
:103E700076BAFF1FCCD6FF1F343830300000000068
:103E8000393630300000000031343430300000006A
:103E90003139323030000000333834303000000027
:103EA00035373630300000003131353230300000E7
:103EB000353030303030000031303030303030008C
:103EC0000A25640020A1070040420F000A45525213
:103ED0000A0000000A4F4B0A00000000F3B587B04B
:103EE00000274E4D0C460097019780212878FCF75B
:103EF000C9F807984A4E012802D002280AD069E082
:103F0000206800783F2865D1B28C718C45A0FCF701
:103F1000F7F981E0708C0590B08C6946049008E058
:103F20000246303A092A55D8C855042F52D27F1C70
:103F3000FFB22068C05D0028F2D1C91948706846F8
:103F4000FCF78CFA81B20A226846FDF719FF80B2AD
:103F5000374A811F91423DD2694688810021084637
:103F60006F467854491CC9B20529FAD3002208E0EB
:103F70000B46303B092B2DD8B954042A2AD2521CA7
:103F8000D2B26168895C0029F2D1B918487038460C
:103F9000FCF764FA81B20A226846FDF7F1FE80B2AE
:103FA000234A811F914215D269468989884202D2EB
:103FB0006846018101E06A46108171846846008983
:103FC000B084092000F0AAFF002811D00598708461
:103FD0000498B08417A0FCF793F97D20726BC000A1
:103FE000424380212878FCF759F8002009B0F0BD41
:103FF0000B49B27F2231F01CFCF754FA0120FCF788
:104000004BFA03AA02210D48FEF714F90B4802AA45
:104010000221401CFEF70EF909A0DCE776BAFF1F6B
:10402000CCD6FF1F0A2564202D2025640000000047
:104030007A0C00000A4552520A00000011030000E9
:104040000A4F4B0A0000000010B5094C802120786F
:10405000FCF718F807A0FCF753F908488021426BD9
:104060007D20C00042432078FCF718F8002010BDE6
:1040700076BAFF1F0A4F4B0A00000000CCD6FF1F84
:10408000F8B51B4D0F46064680212878FBF7FAFF4E
:10409000184C012E1CD1386800783F2805D02678AE
:1040A00031280BD030280BD012E02078002801D026
:1040B00011A000E015A0FCF723F916E0012000E0B4
:1040C00000202070002000F029FF00280DD026706D
:1040D00012A0FCF715F97D20626BC00042438021DD
:1040E0002878FBF7DBFF0020F8BD0EA0F1E7000009
:1040F00076BAFF1FCCD6FF1F0A4E6F742D636F6E0A
:104100006E65637461626C65000000000A436F6E47
:104110006E65637461626C65000000000A4552526E
:104120000A0000000A4F4B0A00000000FEB5002400
:104130002A4F0D4606460094019480213878FBF7FB
:10414000A1FF3046264E012831D1286800783F284B
:1041500003D0F08C694602900DE0F18C21A0FCF7B1
:10416000CFF838E00246303A092A20D80855042C06
:104170001DD2641CE4B22868005D0028F2D1091940
:1041800048706846FCF76AF981B20A226846FDF772
:10419000F7FD80B20146144A0A39914207D2F084F1
:1041A0000A2000F0BBFE00280ED00298F0840FA079
:1041B000FCF7A6F87D20726BC0004243802138785E
:1041C000FBF76CFF0020FEBD054AC5202632022108
:1041D0008000FEF72FF807A0EAE7000076BAFF1F7D
:1041E000CCD6FF1F0A256400770C00000A45525206
:1041F0000A0000000A4F4B0A0000000070B5244E70
:10420000044680213078FBF73DFF224D002C34D14D
:10421000214C2078287060786870A078A870E11C24
:10422000E81CFCF72DF9002021182A18401C097CF5
:10423000C0B211740628F7D3174916481631163044
:10424000FCF71EF9A07FA877E07FE877208C288410
:10425000608C6884A08CA884E08CE884206B286340
:10426000208D2885608D6885A08DA885606B68632A
:1042700000F012FF09A0FCF743F87D206A6BC00034
:10428000424380213078FBF709FF002070BD000019
:1042900076BAFF1FCCD6FF1F3898FF1F0A4F4B0A74
:1042A00000000000F8B52C4D0C4607468021287808
:1042B000FBF7E8FE294E012F4CD1206801783F29F9
:1042C0001DD027A1FCF728F8002834D025A12068AC
:1042D000FCF722F8002827D023A12068FCF71CF85F
:1042E000002823D021A12068FCF716F800281FD051
:1042F0001FA12068FCF710F800281BD02AE0FCF76B
:10430000D7F80300FBF7ACFE050406080A0C2600EC
:1043100018A006E019A004E01AA002E01AA000E02C
:104320001AA0FBF7EDFF08E0012004E0022002E004
:10433000032000E00420FCF7C1F815A0FBF7E0FF24
:104340007D20726BC000424380212878FBF7A6FED7
:104350000020F8BD10A0F1E776BAFF1FCCD6FF1FF2
:104360003235360031323800363400003332000046
:10437000313600000A323536000000000A3132388A
:10438000000000000A3634000A3332000A313600D9
:104390000A4F4B0A000000000A4552520A00000072
:1043A000F8B51E4C0F46064680212078FBF76AFEC2
:1043B0001B4D012E21D138681A4900783F2808D0BA
:1043C0000022542815D00DDC30280FD031280DD113
:1043D0000FE00878002801D013A000E014A0FBF73C
:1043E0008FFF04E0662801D0742802D00A7012A062
:1043F00004E0E87F00280DD00A7011A0FBF780FFD1
:104400007D206A6BC000424380212078FBF746FE86
:104410000020F8BD01200870E9E7000076BAFF1F10
:10442000CCD6FF1F2898FF1F0A7472756500000024
:104430000A66616C736500000A4F4B0A00000000B9
:104440000A4552520A0000000148406B70470000C4
:10445000CCD6FF1F0148006B70470000CCD6FF1F71
:1044600070B5194D04462878207068786070A87877
:10447000A070E91CE01CFCF703F8002029182218A2
:10448000401C097CC0B211740628F7D30E4920469F
:1044900016311630FBF7F4FFA87FA077E87FE077AE
:1044A000288C2084688C6084A88CA084E88CE084AC
:1044B000286B2063288D2085688D6085A88DA08558
:1044C000686B606370BD0000CCD6FF1F70B5194DDE
:1044D00004462878207068786070A878A070E91C7D
:1044E000E01CFBF7CDFF002029182218401C097C96
:1044F000C0B211740628F7D30E4920461631163083
:10450000FBF7BEFFA87FA077E87FE077288C2084A8
:10451000688C6084A88CA084E88CE084286B20637D
:10452000288D2085688D6085A88DA085686B606367
:1045300070BD00003898FF1F0148007870470000E8
:104540002898FF1F0148407870470000CCD6FF1F15
:104550000148C07F70470000CCD6FF1F014840785B
:10456000704700002898FF1F10B5FBF7ADFF00282B
:1045700003D104210148FBF7ADFF10BD004003113A
:10458000F8B5274D0F46064680212878FBF77AFDBF
:10459000244C012E25D1386800783F280AD066784F
:1045A000542814D00FDC302813D031280FD04628DF
:1045B00017D10EE06078002801D01BA000E01BA0FE
:1045C000FBF79EFE29E0662803D0742809D101205C
:1045D00000E000206070012000F0A0FC00280DD059
:1045E000667014A0FBF78CFE7D20626BC000424316
:1045F00080212878FBF752FD0020F8BD6078002864
:104600000BD00C2003F0C8FB012003F0D7FB0120E6
:1046100003F0D4FB002003F0D1FB08A0E2E7000088
:1046200076BAFF1FCCD6FF1F0A4F6E000A4F666690
:10463000000000000A4552520A0000000A4F4B0ACF
:1046400000000000FEB50024074630480E460094E6
:104650000194254680210078FBF714FD38462C4F45
:1046600001283CD1306801783F2905D02822BA5E64
:104670000292302905D00AE0398D26A0FBF740FED2
:1046800042E04078582801D0782800D102256946B8
:104690000EE00246303A092A05D9113A052A02D914
:1046A000203A052A1BD80855042C18D2641CE4B201
:1046B00030686219805C0028EBD10919487068469F
:1046C000FBF7CCFE81B210226846FDF759FB388516
:1046D0000B2000F023FC00280FD0029838850FA093
:1046E000FBF70EFE7D207A6BC00042430748802115
:1046F0000078FBF7D3FC0020FEBD388D0949FBF79D
:10470000C5FE0020FBF7C8FE07A0E9E776BAFF1F49
:10471000CCD6FF1F0A307825780000000A45525297
:104720000A0000002B98FF1F0A4F4B0A00000000F0
:10473000F8B5274D0E46074680212878FBF7A2FCE6
:10474000244CA078002803D023A0FBF7D9FD2AE051
:10475000012F28D1306800783F2808D0E67F002755
:10476000302814D0312814D032281CD113E0E07F37
:10477000002804D0012804D0022814D103E01BA093
:1047800002E01BA000E01BA0FBF7BAFD12E0E777F8
:1047900003E0012000E00220E077072000F0BEFBEC
:1047A000002802D0E67714A005E0E07F002801D0C1
:1047B0001348077013A0FBF7A3FD7D20626BC000B8
:1047C000424380212878FBF769FC0020F8BD0000F7
:1047D00076BAFF1FCCD6FF1F0A4E4120696E204DCE
:1047E0006173746572206D6F646500000A300000AB
:1047F0000A3100000A3200000A4552520A00000045
:104800002898FF1F0A4F4B0A00000000F0B585B042
:104810000027264E0C4605460097019702970397FE
:1048200080213078FBF72EFC2846214D012824D129
:10483000206800783F280FD0E91C6846FBF720FE6F
:104840002068FBF70BFE21680D280AD30C22E81C18
:10485000FBF710FEEF7307E0E91C16A0FBF750FD15
:1048600022E0E81CFBF70CFE032000F057FB0028B9
:1048700011D06946E81CFBF703FE0FA0FBF740FDD3
:104880007D206A6BC000424380213078FBF706FC34
:10489000002005B0F0BD0649AA7F2231E81CFBF7D5
:1048A00001FE0120FBF7F8FD05A0E7E776BAFF1F40
:1048B000CCD6FF1F0A2573000A4552520A00000099
:1048C0000A4F4B0A00000000F8B51B4C0D46074686
:1048D00080212078FBF7D6FB184E012F01D018A0BD
:1048E00012E0286801783F291AD017A1FBF714FDC0
:1048F00000281CD015A12868FBF70EFD002818D051
:10490000F020FBF7EDFD12A0FBF7FAFC7D20726BA7
:10491000C000424380212078FBF7C0FB0020F8BD97
:10492000FBF7E4FD01460CA0FBF7EAFCEBE7A02057
:10493000E7E78020E5E7000076BAFF1FCCD6FF1F2F
:104940000A4552520A000000313630003132380038
:104950000A4F4B0A000000000A25640070B50C4C99
:10496000054680212078FBF78DFB002D04D109A09E
:10497000FBF7C6FCFBF7C0FD08488021426B7D2099
:10498000C00042432078FBF789FB002070BD000087
:1049900076BAFF1F0D0A4F4B0D0A0000CCD6FF1F41
:1049A000F8B52E4D0F46064680212878FBF76AFBA6
:1049B0002B4C012E37D1386800783F2808D030388A
:1049C000A77F0300FBF74CFB05181A1E22262F00B9
:1049D000A07F0300FBF744FB050406080A0C270030
:1049E00020A006E021A004E022A002E023A000E035
:1049F00024A0FBF785FC24E000200CE00120A07738
:104A00001F260AE00220A0770A2606E00320A077EE
:104A1000012602E00420A0773F26062000F07EFA5F
:104A2000002802D0A77719A00CE03046FBF76AFDFA
:104A30000B49A27F2231E01CFBF734FD0120FBF77C
:104A40002BFD14A0FBF75CFC7D20626BC000424391
:104A500080212878FBF722FB0020F8BD76BAFF1FE3
:104A6000CCD6FF1F0A3564426D0000000A30644254
:104A70006D0000000A2D3564426D00000A2D3230B1
:104A800064426D000A313064426D00000A455252A2
:104A90000A0000000A4F4B0A00000000F8B51F4D45
:104AA0000F46064680212878FBF7ECFA1C4C012EB5
:104AB00020D1386800783F2809D0A6784D280FD03B
:104AC00053280FD06D280BD0732813D10AE0A0789B
:104AD000002801D013A000E014A0FBF711FC1BE09C
:104AE000012000E00020A070022000F017FA00284A
:104AF0000DD0A6700FA0FBF703FC7D20626BC000F9
:104B0000424380212878FBF7C9FA0020F8BD0BA0AA
:104B1000FBF7F6FBFBF7F0FC08A0ECE776BAFF1F0B
:104B2000CCD6FF1F0A4D6173746572000A536C6125
:104B3000766500000A4552520A0000000A4F4B0AEF
:104B40000000000070B51C4E044680213078FBF751
:104B500099FA1A4D002C25D1E91C19A0FBF7D0FBBE
:104B6000A878002801D01AA000E01EA0FBF7C8FB1F
:104B700021A0296BFBF7C4FB297C23A0FBF7C0FB1A
:104B800001242819017C25A0FBF7BAFB641CE4B2C0
:104B9000062CF6D3094923A01631FBF7B1FB25A05B
:104BA000FBF7AEFB7D206A6BC0004243802130786A
:104BB000FBF774FA002070BD76BAFF1FCCD6FF1F3A
:104BC0000A4E616D652020202020A3BA25730000C5
:104BD0000A526F6C652020202020A3BA4D617374A7
:104BE000657200000A526F6C652020202020A3BA55
:104BF000536C6176650000000A42617564726174ED
:104C000065203A20256400000A424C452061646416
:104C10007220A3BA25303278000000003A253032E5
:104C2000780000000A50494E202020202020A3BAFE
:104C3000257300000A4F4B0A00000000F8B51C4C19
:104C40000F46064680212078FBF71CFA194D012EED
:104C500001D019A01CE03868194900783F2808D015
:104C60000022542820D00DDC30280FD031280DD15F
:104C70001AE04878002801D012A000E013A0FBF74A
:104C80003FFB04E0662801D074280DD04A7011A0C3
:104C9000FBF736FB7D206A6BC00042438021207801
:104CA000FBF7FCF90020F8BD01204870EFE7000099
:104CB00076BAFF1FCCD6FF1F0A4552520A000000E9
:104CC0002898FF1F0A747275650000000A66616CFF
:104CD000736500000A4F4B0A00000000F0B589B070
:104CE0000024684604770094019402940394049489
:104CF0008482FF20274607AA01218130069403F011
:104D0000D5F900287ED16846007F01257C4E002819
:104D100002D0012802D026E0347000E035706846E9
:104D20000477FF2007AA0121823003F0BFF9002891
:104D3000E8D16846007F002802D0012802D012E0A6
:104D4000747000E0757068460477FF2007AA01219F
:104D5000833003F0ABF90028D4D16846007F0028E7
:104D600007D0012807D067A0FBF7CAFA042009B0D2
:104D7000F0BDB47000E0B570FF206A460D218430AC
:104D800003F094F90028BDD16946F01CFBF778FBCD
:104D90006D46EC557F1CFFB20D2FFAD3FF202A463B
:104DA0000621853003F082F900282BD1295C3218C6
:104DB000401CC0B211740628F8D300202C54401CAB
:104DC000C0B20628FAD3FF206A460821863003F0D5
:104DD0006DF9002816D14A4869461630FBF750FB9A
:104DE00000202C54401CC0B20828FAD3684604772F
:104DF000FF2007AA0121873003F058F9002876D157
:104E0000684600E073E0007FB07768460477FF20D3
:104E100007AA0121883003F049F9002867D16846C4
:104E2000007FF07768468482FF2005AA022189303E
:104E300003F03CF900285AD16846808A30846846DD
:104E40008482FF2006AA04218A3003F02FF900286B
:104E50004DD16846008B70846846408BB0846846AC
:104E60008482FF2005AA02218B3003F01FF900285D
:104E70003DD16846808AF08468468482FF2005AA76
:104E800002218C3003F012F9002830D16846808A64
:104E9000308568468482FF2005AA02218D3003F008
:104EA00005F9002823D16846808A70856846848287
:104EB000FF2005AA02218E3003F0F8F8002816D151
:104EC0006846808AB085FF2004AA04218F300494AC
:104ED00003F0ECF800280AD104983063FF2004AAFC
:104EE00004219030049403F0E1F8002804D008A0D5
:104EF000FBF706FA03203AE704987063002036E7D0
:104F0000CCD6FF1F0A525F465F445F4572720A00AB
:104F10000A525F465F4572720A000000F0B589B020
:104F2000002569460D770246009501950295039587
:104F300004958D8201202C46074653496E460695FE
:104F40001300FBF78DF8100913212B3B50686D728D
:104F5000777F84898E959A6008780028304601D042
:104F6000077700E00577FF20813008E048780028C7
:104F7000304601D0077700E00577FF20823007AA8E
:104F8000012103F0A5F83EE088780028304601D0E2
:104F9000077700E00577FF208330F0E73046C91C33
:104FA000FBF76EFAFF2084306A460D2103F090F87B
:104FB0003555641CE4B20D2CFAD324E00819007CAA
:104FC0003055641CE4B2062CF8D3FF32813290B223
:104FD0003246062103F07CF800217554491CC9B201
:104FE0000629FAD30FE0284930461631FBF748FA74
:104FF000FF2086306A46082103F06AF83555641CA4
:10500000E4B2082CFAD3002803D020A0FBF778F9EB
:10501000052009B0F0BD887F3077FF208730AEE7EC
:10502000C87F3077FF208830A9E7088CB082FF2046
:1050300089301AE0488C3083888C7083FF208A3056
:1050400006AA1FE0C88CB082FF208B300DE0088DCF
:10505000B082FF208C3008E0488DB082FF208D3078
:1050600003E0888DB082FF208E3005AA022188E7F8
:10507000086B0490FF208F3003E0486B0490FF2002
:10508000903004AA04217CE7CCD6FF1F0A575F4664
:105090005F4572720A00000010B500242046FFF739
:1050A0003DFF641CE4B20F2CF8D910BDFEB50024FE
:1050B00007462F480E46009401942546802100782B
:1050C000FAF7E0FF38462B4F01283CD130680178D1
:1050D0003F2905D02A22BA5E0292302905D00AE083
:1050E000798D25A0FBF70CF93FE04078582801D0D6
:1050F000782800D1022569460EE00246303A092A96
:1051000005D9113A052A02D9203A052A1BD8085593
:10511000042C18D2641CE4B230686219805C002848
:10512000EBD1091948706846FBF798F981B2102253
:105130006846FCF725FE78850C20FFF7EFFE002877
:105140000FD0029878850EA0FBF7DAF87D207A6BF5
:10515000C0004243064880210078FAF79FFF0020F4
:10516000FEBDB98D788DFBF7D3F907A0ECE7000001
:1051700076BAFF1FCCD6FF1F0A30782578000000D2
:105180000A4552520A0000000A4F4B0A0000000074
:10519000FEB5002407462F480E460094019425468C
:1051A00080210078FAF76EFF38462B4F01283CD15A
:1051B000306801783F2905D02C22BA5E029230294E
:1051C00005D00AE0B98D25A0FBF79AF83FE04078BA
:1051D000582801D0782800D1022569460EE0024601
:1051E000303A092A05D9113A052A02D9203A052A66
:1051F0001BD80855042C18D2641CE4B2306862191C
:10520000805C0028EBD1091948706846FBF726F945
:1052100081B210226846FCF7B3FDB8850D20FFF778
:105220007DFE00280FD00298B8850EA0FBF768F825
:105230007D207A6BC0004243064880210078FAF74F
:105240002DFF0020FEBDB98D788DFBF761F907A019
:10525000ECE7000076BAFF1FCCD6FF1F0A30782596
:10526000780000000A4552520A0000000A4F4B0A1B
:1052700000000000F8B51049104CCF68206B8E6814
:105280000D68002802D1E120400220630B48402233
:10529000403800780021FAF7C1FF094900208870E2
:1052A000246B02F037F800903B46324621462846F0
:1052B000FBF71AF8F8BD0000789A0211CCD6FF1F50
:1052C0002898FF1F0A480949427D0A70491C027D3F
:1052D0000A70491CC27C0A70491C827C0A70491CF5
:1052E000427C0A70491C007C087070476509FF1FEA
:1052F000CCD6FF1F7CB50020174D00900190802177
:105300002878FAF7BFFE30206B46187033215970A9
:105310002E229A70D87031241C715A719871D971EB
:105320000EA0FAF7EDFF00246E46315D0DA0FAF7EE
:10533000E7FF641CE4B2082CF7D30BA0FAF7E0FFF8
:105340000B488021426B7D20C00042432878FAF749
:10535000A5FE00207CBD000076BAFF1F0A766572AC
:105360003A200000256300000A4F4B0A00000000AD
:10537000CCD6FF1FFFB583B016460F461B2A01D0BF
:10538000522E04D10398FBF7C9F800281BD01D4901
:10539000039889684000085AFEF76EF904002DD082
:1053A0000125601C2670002F03D00699B847401CC9
:1053B00085B2300613D51021039802F033FE002881
:1053C00004D0192616E0132007B0F0BD6219E9B227
:1053D0002046FEF77FF906000CD10C35ADB2042152
:1053E000684601800194058169460398FEF72AF911
:1053F000060004D02046FBF713F800E013263046E1
:10540000E2E70000DCBBFF1F024610B50848F42AA3
:1054100000D9F422428092B2001DFAF74DFF0548F0
:105420000349027804480088FAF752FF10BD0000D3
:10543000F8DBFF1F76BAFF1F7ABAFF1F10B50C46C4
:1054400002F064FD002804D040882146FAF7B8FF36
:1054500010BD122010BD0022002913D0002811D049
:10546000012806D04A799206920E4A71032805D087
:1054700007E04879C0221043487102E0402002430F
:105480004A7101221046704770B512480025007815
:10549000052108421BD02020FAF77AFF0E4C002885
:1054A000A06013D020220021FAF7B8FE2020FAF7DE
:1054B0006FFFE060002804D020220021FAF7AEFE42
:1054C00005E0A068FAF74CFF0020A06013252846ED
:1054D00070BD0000EDBBFF1F60BCFF1F70B50A4D23
:1054E000064600240E206043401906223146FAF792
:1054F000FFFD002801D0204670BD641CE4B20A2CD8
:10550000F0D30A2070BD00002CD7FF1F7FB50D46D9
:105510000A280BD2002D09D0062148436A460E21E5
:10552000203002F0C3FD040003D007E0022004B0E5
:1055300070BD062269462846FAF7C8FD2046F6E700
:1055400000218A00835A491CDB4383521218937846
:10555000C9B2DB4393700A29F3D3704710B50E4BE1
:105560005979002900D001219A78002A00D004221C
:105570000A439979002900D008211143DA79002AD9
:1055800000D010220A43197A002900D020211143AB
:10559000FDF76CF910BD0000FCB8FF1F002909D011
:1055A000012807D1497989098901C02902D04029F8
:1055B00001D00220704703207047FFB500200E463F
:1055C00008701AE01C5C401CC5B2002C17D02819CA
:1055D000904214D85F5D6D1CEDB2384600F0C1FEFC
:1055E000002806D0641EE0B2307000998F4202D1CC
:1055F000581904B0F0BD4019C0B29042E2D3002067
:10560000F7E7000010B5044C2068002803D0FAF733
:10561000A7FE0020206010BD4CBCFF1F70B5104DD0
:105620008400E8680059002819D0006A002801D0D9
:10563000FAF796FEE8680059406A002801D0FAF7A8
:105640008FFEE8680059806A002801D0FAF788FECA
:10565000E8680059FAF784FEE9680020085170BD37
:1056600050BCFF1F10B5044C6068002803D0FAF747
:1056700077FE0020606010BD50BCFF1F011E044873
:1056800005D104498978002901D00248801D70475E
:10569000D0E7FF1FECBBFF1F014880787047000078
:1056A000ECBBFF1F0148406870470000C0E7FF1FC8
:1056B0000148806870470000C0E7FF1F0148C068CC
:1056C00000687047C0E7FF1F10B50748C068016851
:1056D000491C016005480078FF2803D00121890397
:1056E000FAF7D6FC10BD0000C0E7FF1FECBBFF1FA0
:1056F00002484068002800D00120704748BCFF1FC6
:10570000FFB581B00F460D9E0A9D039802F0E6FB9F
:10571000040042D0019800283FD12079102108438D
:1057200020710499490702D50221084301E0FD21B7
:10573000084020710B99284608430C9908433043D0
:10574000207902D00421084301E0FB2108402071A8
:10575000002E06D03069102220623146A018FAF7D8
:10576000B5FC002D01D0002F05D00B98002814D0D7
:10577000012F08D011E0606A002801D0FAF7F0FD8F
:105780001C21284606E0606A002801D0FAF7E8FDEF
:105790001C210B98FAF7EAFD60620398274C8700FA
:1057A000E068C059002846D0002D11D0006A0028BA
:1057B00007D11C20FAF7ECFDE1680028C9590862FE
:1057C00006D0E0681C22C0592946006AFAF77EFC20
:1057D0000C98002813D0E068C059406A002807D10F
:1057E0001620FAF7D5FDE1680028C959486206D0AD
:1057F000E0681622C0590C99406AFAF767FC002E3F
:1058000013D0E068C059806A002807D11420FAF745
:10581000BFFDE1680028C959886206D0E0681422FB
:10582000C0593146806AFAF751FC0B9B049A0399E0
:10583000019802F087FC05B0F0BD000050BCFF1FCE
:10584000F3B581B0019802F049FB050029D00E2084
:10585000FAF7CEFD040024D02620FCF7B1FE0600A6
:1058600000D12E78D0202070002767700B20A07008
:105870000622E91DE01CFAF729FC019860810298D4
:10588000C1070120002901D0207300E0277302998D
:10589000890701D5607300E06773F0B22146FAF71B
:1058A00089FDFEBD10B581881F4B0124CA1A99429B
:1058B00037D011DC1D4BCA1A994219D007DC1C4A9B
:1058C0008A1810D0022A1ED0032A29D11BE0472AA9
:1058D00027D0482A24D124E01300FAF7C1FB06217F
:1058E0002222222222218068007800F0FBFC08E0BE
:1058F0008068827841781202891889B2007800F0B5
:1059000051FD04460DE0094A921E914201D1012247
:1059100000E0002280680178104600F02BFD00E0D6
:105920000024204610BD0000532000000A20000083
:10593000FADFFFFF70B51A4D1A4A01460026287893
:105940001268194C01290CD0002A09D0174909788E
:10595000490705D50221FAF795FB6680FFF752FE4D
:1059600070BD6188002903D0114B1B78002B05D036
:10597000002AF5D01078FCF7F9FD70BD3C2902D360
:105980003C39618070BD0221FAF77CFB62887D2082
:10599000C000424302212878FAF780FB668070BD80
:1059A0007DBCFF1F4CBCFF1F60BCFF1FEDBBFF1F7A
:1059B000EFBBFF1F08B5418900910389C288818828
:1059C000C07800F0DBFB08BDF0B504468088A1215B
:1059D00089004843304987B009684018FF30FF30DC
:1059E0000230A1794167002C54D02C4D6868002802
:1059F00023D006782A480068002804D0416800298E
:105A000001D0002088472146E07908310591FFF751
:105A1000C5FDE0710246277D638A218AE0890190F5
:105A200002A88AC0A0880090E0783146059B02F069
:105A300001FCE078002802D00DE01A48D9E7E079AF
:105A4000E2896B46059907C3A379A18801223046F4
:105A500002F0F2F9E0706868002811D0FFF702FE4A
:105A6000287800280CD06978FFF7E8FC002807D0D8
:105A7000E078A2880346297802F009FC002028700B
:105A8000A0881721FBF7B6FFA088FDF773FDA0885B
:105A9000FDF7A4FD07B0F0BD3409FF1F50BCFF1F88
:105AA00080BCFF1FECBBFF1F70B50446002580883B
:105AB00002F014FA002803D00578A08802F096FAC4
:105AC000134E3078002808D0854206D17178FFF750
:105AD000B5FC002809D000203070002D05D0A37936
:105AE000A288A078294602F0D2FBA088F268810043
:105AF0005158002901D0FFF791FDA0881721FBF72D
:105B000079FFA088FDF736FDA088FDF767FD70BD21
:105B100050BCFF1F70B58288294D0124531B2949B1
:105B2000AA4242D019DC284D531BAA4218D00BDCE4
:105B3000264BD21826D0254B1033D2181ED0032A5C
:105B400017D0042A39D10BE0012B09D0022B07D042
:105B5000032B21D0042B30D11AE0433B072B2CD848
:105B6000496800292AD00968002927D088470446B7
:105B700024E08068007800F0ADF81FE0806800F055
:105B800001F9F4E78068411C007800F0D9F8EEE7ED
:105B900083681B78002B11D0896800290ED00B6810
:105BA00008E0014610469847E1E7094909680029DD
:105BB00004D04B68002BF4D100E00024204670BDD7
:105BC0000E2000007CBCFF1F08200000F7EFFFFF45
:105BD00058BCFF1F10B5094CA17800290CD0014614
:105BE0000622A01DFAF772FAA11DA078FFF733FC78
:105BF000A01DFAF751FD10BD002010BDECBBFF1F2A
:105C00001CB52F49037801240A68912B02D0A22BDE
:105C10002ED13EE04178052909D00E2904D00F2964
:105C200008D03E2924D115E0FFF774FF10E0FFF7FC
:105C30003BFF3AE001468088224B0124C31801D083
:105C4000062B15D1002A30D05268002A2DD090475B
:105C500004462AE081780124032917D004DC0129B5
:105C600011D0022904D105E015291ED016291CD017
:105C700000241AE014498968002916D049680029CF
:105C800013D0884711E0FFF79FFE0EE0FFF792FE6A
:105C90000BE00E490978042909D0002A05D0526882
:105CA000002A02D001460A48904720461CBD002128
:105CB0006A46118001794088FDF7DAFBF5E70000BC
:105CC00058BCFF1FF3DFFFFF7CBCFF1FEDBBFF1FB6
:105CD000FFFF0000F8B5164F0646BD1F2878FF28C5
:105CE00014D00A20FAF784FB04000FD0D0202070D3
:105CF00066700820A070A878E07006223946201D42
:105D0000FAF7E4F921462878FAF754FBE8780128F5
:105D10000DD108480068002803D08068002800D012
:105D200080470648044A04210078FAF737FBF8BD9B
:105D3000F2BBFF1F80BCFF1F60EA00007DBCFF1F9D
:105D400070B500240546002805D1002903D006229D
:105D50000B48FAF7BBF90A4810380178012907D136
:105D60000124002D06D000210170284600F0E2F940
:105D7000204670BD02210170FAF7D6FBF8E700005B
:105D8000D0E7FF1F10B50024002813D002780B497C
:105D9000002A03D14288CA8202790A760A78022A46
:105DA00008D102780124002A06D000220A70007867
:105DB00000F0C0F9204610BD0322F7E7C0E7FF1F3F
:105DC00001494860704700007CBCFF1FF8B50746DA
:105DD000002000907D4CB978054607266079A279AD
:105DE0000B00FAF73DF90805E61A36365E98CAE662
:105DF000787800285AD175480622F91C3C30FAF709
:105E000065F90120A071714B0146423362786079D7
:105E1000FCF7CCFD002849D1CEE07978002945D1A6
:105E2000F978002906D06A4BA2780021FCF7BEFD64
:105E300078700AE0022A0BD00121FAF78BFA0028C9
:105E400003D101216079FAF723F9787800282DD160
:105E5000F8BD7B78002B29D1032909D0A289002A1B
:105E60000CD0217800290AD00121FAF717F906E0B1
:105E7000052A01D0022012E0062010E02570A0794A
:105E8000062802D0042802D008E0052007E00120FF
:105E9000207001466079FAF7FBF88DE00320A071CD
:105EA0008AE07878002803D0312832D0A67183E0C8
:105EB00046480622391D3630FAF708F97889E0811C
:105EC000B8892082F88960820520A071A28A002A00
:105ED00003D002216079FAF7E1F8B889E083F88904
:105EE0002084388A6084E07801280AD11F20FCF7DA
:105EF00067FB7D21C9004843024604216079FAF717
:105F0000CDF87A89F8780423391DFBF76BFF2570EB
:105F100052E02570C2E72D48062200213630FAF7FC
:105F20007DF9E5832584658404216079FAF7AAF870
:105F300008216079FAF7A6F8B979082911D0032069
:105F4000A07124A0FAF7DCF9274801214902007862
:105F5000FAF79EF82078002805D06079FCF706FB58
:105F600007E00420ECE70120207001466079FAF791
:105F70008FF80020C043E0811EE00821FAF782F884
:105F80007878002800D063E7F888E0833889208497
:105F90007889608404216079FAF7DCF90028F2D16D
:105FA000A06A0028EFD00368628C218CE08B9847B0
:105FB000F8BD00980028FBD0606A0028F8D001687E
:105FC0000029F5D0A0798847F8BD00000CBAFF1F62
:105FD000C0DAFF1F5B444953435D2E726561736FE6
:105FE0006E20253032780A0076BAFF1F10B501788E
:105FF000224C912906D0A22926D0D02901D1FFF721
:10600000E5FE10BD41780E290AD00F29F9D181880B
:106010001B4A9142F5D181781AA0FAF771F910BDA7
:1060200081881C4A9142FAD1816803200856A179DF
:106030000529F4D17F28F2D0616A0029EFD04968A0
:106040000029ECD0884710BD41791329FBD1008984
:10605000012802D12079022808D00520FCF7B0FAE7
:10606000024608216079FAF719F810BD0821607915
:10607000FAF708F8FCF704FA10BD00000CBAFF1F8D
:10608000322000005B484349205048595D202532AA
:1060900078200A00051400007CB5144C0546E08BFE
:1060A000E18A88420AD3218B884207D8208C618BF1
:1060B000884203D1608CA18B884216D00520FCF762
:1060C0007FFA0646E08A69460880208B4880608B0C
:1060D0008880A08BC8806279E089FDF7D5F92571A9
:1060E000324608216079F9F7D9FF7CBD0CBAFF1F51
:1060F000F8B507460E46084601F0F0FE040018D039
:106100002620FCF75DFA050000D125780620FAF775
:106110006FF904000DD006220021FAF77FF8D02095
:10612000207067700E20A070A680E8B22146FAF7B2
:1061300041F9F8BD70B50F4D06462878FF2818D0F4
:106140000E20FAF755F9040013D0D02020706670A5
:106150000020A07006220849E01CF9F7B7FF0648A6
:106160001038C18A6181007E207321462878FAF7B1
:1061700021F970BDECBBFF1FD0E7FF1FFFB581B059
:106180001E4617460D460C20FAF732F9040013D0CC
:10619000284601F0A3FE002810D00078D0212170FD
:1061A000019961700721A170A580E78026810A9975
:1061B00061812146FAF7FEF805B0F0BD0048ECE732
:1061C000ECBBFF1F70B50D4D044628680E46002835
:1061D00012D00620FAF70CF9010009D0D02008707F
:1061E0004C70032088708E8028680078FAF7E2F8F7
:1061F000002C01D0FFF706FA70BD00004CBCFF1F59
:10620000FFB581B01F460E46084601F067FE050047
:1062100022D01020FAF7ECF804001DD01022002143
:10622000F9F7FCFF2620FCF7CBF9002800D12878ED
:10623000D0212170019961700F21A170A68003996E
:10624000217267720A99A1720B99E1720C99E1604F
:10625000C0B22146FAF7AEF805B0F0BDF0B51F4D5B
:1062600085B02868002837D08778FCF721FA002805
:1062700005D00A20FCF7A4F904900B200EE001F0F1
:106280004FF9002805D00620FCF79AF90490072062
:1062900004E00820FCF794F904900920FCF790F939
:1062A00004460F480078002814D001262968C878D1
:1062B000091DFFF7D0F829686D46CA7A8B7A091D47
:1062C0000BC5039233463A4621460498FAF732F951
:1062D00005B0F0BD0026E9E70120F9E74CBCFF1F3F
:1062E000EEBBFF1F10B50949096800290CD0002832
:1062F00005D101204870FAF73FF8002802D00021AC
:10630000FFF760FF012010BD002010BD4CBCFF1F37
:10631000F8B50C4601F0E2FD020021D026201462FF
:10632000FCF74EF905062D0E00D115789679D01D93
:1063300000901020176AFAF75BF8040010D0D02004
:106340002070002060700920A070E6700622201DD9
:106350000099F9F7BBFE21462846E760FAF72AF8CC
:10636000F8BD411E152903D9FF2801D00020704730
:106370000120704770B50A4E054630780C46FF285C
:106380000DD00420FAF734F8010008D0D0200870AE
:106390004C7002208870CD703078FAF70BF870BD21
:1063A00060BCFF1FF3B5284D81B0286800284AD093
:1063B0004078264E012803D03078002831D041E0C3
:1063C00001F0AEF8224F002813D00120FCF7F8F8B6
:1063D0000446412808D91F4A02213878F9F7DEFF20
:1063E0001D483C3C44800EE07D20C00022464243D4
:1063F00003E00020FCF7E4F80246002A03D0022163
:106400003878F9F74BFE2968022048703078002868
:1064100002D00020307015E002990198FFF7D2FEFB
:1064200010E00320019CF9F7E3FF010008D0D02021
:1064300008704C700420887028680078F9F7BAFF5B
:10644000FFF7E0F80120FEBD4CBCFF1FEFBBFF1FB4
:106450007DBCFF1F60EA000060BCFF1F30B5094A29
:106460000021137809E095688C002C5B844202D1EE
:106470008800401930BD491CC9B29942F3D30020AD
:1064800030BD000088BCFF1F10B50C46FFF7E6FFCB
:1064900000280DD0002C00D020608078FE2803D08A
:1064A000FF2803D0162010BD172010BD002010BDFE
:1064B000022010BDFFB581B0FF201E4617460530F3
:1064C0000A9DF9F795FF04001BD0B020207067707B
:1064D000029860802671002D06D02046FC222946B5
:1064E0000830F9F7F3FD05E02046FC2200210830D2
:1064F000F9F794FE21460198F9F75CFF002005B0FA
:10650000F0BD1320FBE70000054817220280098830
:10651000172901D204207047018000207047000035
:10652000E8BBFF1F0020704708B50A460888498865
:1065300088420BD8002809D0002300931379521DFC
:10654000FCF7FEFC002803D0002008BD012008BD98
:106550000A2008BDF3B50D4608884988002687B093
:10656000814215D3002813D0002769460F71009788
:10657000002369881A46FCF7E3FC04004FD0684604
:106580000079002807D069464979012925D008E01B
:10659000012009B0F0BD217802291BD002216A46F2
:1065A00051711222504301AA6189801841806846C6
:1065B00000791223584380181022001D6168F9F7F2
:1065C00085FD68460079401C0106090E6846017188
:1065D0001FD11AE001216A465171217802291ED18A
:1065E000820001A86189121851806A461279616897
:1065F000920010180222001DF9F768FD6A46107912
:10660000401CC0B21071052803D261890A4881423A
:1066100000D101266089401C80B2002EA7D06846B8
:106620000079002805D001A90798FBF749F8002058
:10663000AFE70A20ADE70000FFFF000038B50C46C9
:1066400008884988884215D8002813D02379621D0C
:1066500002210B48FAF7B9FF00280DD00020009066
:10666000237961882088621DFCF76AFC002805D028
:10667000002038BD012038BD102038BD0A2038BDAB
:10668000349B021108B50A460888498888420BD80D
:10669000002809D0002300931379521DFCF750FC09
:1066A000002803D0002008BD012008BD0A2008BD35
:1066B000F8B500250F4606460C46E03717E068009F
:1066C000205A0021FCF716FC002809D0017A304638
:1066D000FCF7D4FD002808D06900615A2180F8BD7C
:1066E0006800205A20800120F8BD6D1CEDB2B87DF5
:1066F000A842E4D80020F8BD10B50446088800215F
:10670000FCF7F8FB002804D0017A2046FCF7B6FD20
:1067100010BD012010BD000030B585B005466946AA
:10672000FBF75AF8040026D168468078C1071E4856
:1067300009D08268002A04D06888694690470446D8
:1067400019E0062417E04268002A05D068886946E7
:106750009047040001D10EE00624684640780028E6
:1067600009D16846817801730021C1810474688869
:1067700003A9FAF765FFA868002801D0F9F750FED1
:10678000002C05D168468078122807D01B2803D03A
:1067900068880121FCF788FE05B030BD6846407866
:1067A0000128F5D1F8E7000094BCFF1F70B505463D
:1067B0000C4608880021FCF79DFB002805D0017AD3
:1067C00022462846FCF76DFD70BD012070BD00001B
:1067D000014948607047000094BCFF1F10B5044693
:1067E000801C00F03EFDFF20E07010BD10B500F0F1
:1067F00025F8002800D0806810BD00229300CB5AF5
:10680000834202D1900040187047521CD2B2022A33
:10681000F4D3002070470000074A0021CB00D35A70
:10682000834202D1C80080187047491C0906090E2E
:10683000F4D0002070470000B8B9FF1F06498968EE
:1068400005E08A88824201D188687047096800297A
:10685000F7D1002070470000A8B9FF1FF8B5074620
:10686000012906D0022924D1012101F0DBFB0028F7
:106870001FD13846FFF7D0FF050015D000240D4E7C
:106880000CE0F8206968604308180188002908D0E6
:10689000F8220021F9F7C2FC641CE4B2707884424B
:1068A000EFD30020C0432880024938461831FCF756
:1068B000EDF8F8BDA8B9FF1FF3B5074683B008305F
:1068C000029000267888FFF7A7FF019000282FD0BC
:1068D000002523E001984168F82068430C182188BE
:1068E00000291FD00298007801280ED160880090FE
:1068F000A3887888A21DFCF7ADFA060005D002999E
:1069000000200870049821880180F8220021204688
:10691000F9F784FC00206D1C2080EDB20748407818
:106920008542D7D30021C9430198002E018002D1AE
:106930007888FAF7AFFE304605B0F0BDA8B9FF1F62
:10694000F3B50546374C074685B00835F6220021D9
:106950002046F9F763FC03A800902B796988288802
:106960006A1DFCF7EDFA064646E02F4A7888126861
:106970004100515C2D4BC91FC9B200930022029106
:106980000192284B69468A89F63B3146FCF7DEF8CE
:10699000002812D125482989001F828891420CD1F4
:1069A00020492846F6390A30F9F7A2FB002804D01E
:1069B0002178708989000919488068468289698828
:1069C00004AB3046FCF7EEFA217806468800001941
:1069D0004288002A10D0002E05D06A46128A491C2F
:1069E000217082800AE00A060020920DC04312192D
:1069F000491C2170908006E0002E04D00C482178BC
:106A000000888142B1D32078002806D078882146BA
:106A1000FAF748FE002007B0F0BD069829880180EB
:106A20000A20F8E7C6D9FF1FE4BBFF1FACB9FF1F60
:106A3000DEBBFF1FF0B585B00446002069468881A3
:106A400020790E287ED00FDC082823D004DC022811
:106A500013D0062872D118E0264608364C4D0A2875
:106A60001ED00C286AD13AE010287CD012287FD0A2
:106A700016286AD0182861D184E047484549008823
:106A800008806088FAF7E6FD58E003A92046FFF782
:106A900057FF03E003A9204600F076F905463EE0E3
:106AA000308804A9FCF726FA010016D060882B680C
:106AB00042009A5C374F521ED2B2002301930292D9
:106AC00000976A46BB1C128AFCF740F805001ED1ED
:106AD00060883946FAF784FF21E0012517E0308805
:106AE00004A9FCF707FA0100F7D060882B68420080
:106AF0009A5C7388521E274FD2B20193029200977C
:106B00006A46BB1C128AFCF721F8050003D03088C6
:106B10006946888103E060883946FAF731FF002D25
:106B20000CD06078142809D01A492079087068467A
:106B3000808948800D716088FAF782FD2046FCF755
:106B4000C1F903E00AE00EE012E016E01348C16864
:106B5000002901D02046884705B0F0BD03A9204692
:106B600000F0A8F99AE703A9204600F06BF895E732
:106B700003A9204600F010FA90E703A9204600F090
:106B80000FF88BE703A92046FFF796FE86E7000083
:106B9000E4BBFF1FC6D9FF1FDCBBFF1FA8B9FF1F47
:106BA000F8B504460F460546083400896946FCF7E7
:106BB000A1F906003DD0307A80060ED568460088DF
:106BC000FFF714FE030006D068881222314698476A
:106BD000061E02D02EE00E262CE06E883046FFF70F
:106BE0001BFE010005D11548FFF716FE01000ED06F
:106BF0000E80134A0020567807E0F8234A68434382
:106C0000D25A002A07D0401CC0B2B042F5D30926A0
:106C1000002E09D00EE04968F8225043081821469A
:106C2000F9F754FA0026F3E768882146FAF79EFE42
:106C300002E00126208838803046F8BDFFFF0000C2
:106C4000A8B9FF1FF3B587B0079A04A808320392CA
:106C500000900026137951881088484C3746521D01
:106C6000FCF76EF905466FE00798297A4088FCF733
:106C700005FB070003D008986989018066E0079842
:106C80003F49408809684200895C3E4B891FC9B270
:106C90000093002202910192384B69460A8AF63B22
:106CA0002946FBF753FF0700E5D1002E2FD03548CA
:106CB0006188001F8088021D914249D131180798D0
:106CC000408842002E480068805A801F81423FDC85
:106CD000A119A87A0871761CB0B269892218090A2C
:106CE000401C117186B2039805AB41886846028A40
:106CF0002846FCF757F905000FD06946888AA11984
:106D000008716946761C898AB0B2090A0AE01D48F2
:106D1000001F8088001D6080DAE7FF21A019017143
:106D2000761CB0B2221811711649401C091F8A88BE
:106D300086B21249A019F639001DF9F7C7F91148B2
:106D4000001F8088301886B2002D8DD1002E0CD007
:106D500061883046F9F7F4FB207007982146408897
:106D6000FAF718FE002009B0F0BD002F00D10A2765
:106D700003980188089801803846F4E7C6D9FF1FB8
:106D8000E4BBFF1FACB9FF1FF3B50746083087B05F
:106D9000049000880024434D019403905BE005A813
:106DA0000090049803794188421D0398FCF7C8F8C5
:106DB000060058D070890390317A7888FCF75EFA23
:106DC000019000284FD13849788809684200895CD1
:106DD000364B091FC9B20093002202910192314B38
:106DE00069468A8AF63B3146FBF7B0FE01900028DF
:106DF00039D1002C45D02D486988001F8088801C1F
:106E0000814232D1294B1B1F988821187888420073
:106E100025480068805A001F814224DC2919B07A75
:106E20000871641CE0B22A187189401C090A1171AA
:106E3000C4B21C4928191E469A88F639001DF9F774
:106E400045F930791A492018C4B2039888420AD00B
:106E5000401C80B203907888410013480068405A73
:106E6000001FA0429BDA002C11D069882046F9F758
:106E700067FB287078882946FAF79AFD002009B048
:106E8000F0BD0A48001F8088801C6880BAE701981E
:106E9000002801D10A2001900898039901800198E7
:106EA000EDE70000C6D9FF1FE4BBFF1FACB9FF1F11
:106EB000FFFF0000F3B507460646002085B0334CBF
:106EC00000900837208005463846E03004904AE0BC
:106ED0006800385A03A9FCF70DF801001BD0708830
:106EE0002C4B844642002A480068805C0093401E78
:106EF000C0B2002202900192244B68468289F63B80
:106F00006046FBF723FE0090002807D06800395A3E
:106F10000698018037E001200090F7E71D4821889E
:106F2000001F80880A187088430019480068C05AFA
:106F3000431E9A4204DD401A1649091F401E8880EC
:106F40002188A01C08181349091F8A880F49F6399F
:106F5000F9F7BCF80F482188001F808808182080A6
:106F60006D1C0498EDB2807DA84208D970882188F4
:106F7000420007480068805A401E8142A8DB7088A2
:106F80002146FAF723FD009807B0F0BDC6D9FF1FD0
:106F9000E4BBFF1FACB9FF1FF3B5054683B006463F
:106FA0000835008901A9FBF7A5FF3746E8370446F5
:106FB000002822D0207A80060ED568468088FFF708
:106FC00015FC030006D07088122221469847040061
:106FD00002D013E00E2411E0002000906B88298875
:106FE00070882A1DFBF736FF040007D1787E002841
:106FF0000AD17088FAF708FD03E001240498298873
:107000000180787E002802D0002005B0F0BD204627
:10701000FBE70000F8B504460246F8204243194851
:1070200000250646457010367068002807D00020FD
:10703000C1008919401C00064D60000EF8D0124FA7
:1070400000213846F9F7EAF8002318466043C0B239
:10705000F8214843C1190B48DA0010301618716046
:10706000002105E0F8224A437068491C8552C9B2E4
:10707000A142F7D35B1C1B061B0EE6D001484470EF
:107080000020F8BDA8B9FF1FD8D7FF1F7CB50C782A
:10709000069D022C0FD14C6826786478240234199E
:1070A000064EA4B2F44206D10224DBB2009501944C
:1070B000FBF704FD7CBD01207CBD0000FED6FFFF78
:1070C000F8B505461D48854223D0461C002921D02D
:1070D00001292BD002291CD10121284600F0A2FF52
:1070E000002816D12846FFF7B9F9040011D0A0787E
:1070F000FF280ED0FE2807D000200090E0781E2345
:1071000014222946FFF7D6F92046FFF767FBFF2038
:10711000A070F8BD2846FFF7A1F90028F9D1304644
:10712000FFF79CF90028F4D00580F8BD2846FFF74A
:1071300095F90400F9D02680D9E70000FEFF000091
:1071400038B5040010D0A078FF280DD0FE280BD051
:10715000002000902188E0781E231722FFF7AAF96B
:10716000FE20A070FF20E07038BD0000F3B50C4693
:107170008978C1B01E2914D02E4D6878FF2829D0F7
:10718000182927D84808C2002B481218803A976F50
:10719000002F1FD0D06F00281CD02078002817D1D6
:1071A00013E04198FFF75AF905000BD0002000903A
:1071B000A378E87800224199FFF77CF90646284633
:1071C000FFF70CFB304643B0F0BD6278012A03D1D3
:1071D000122901D00620F6E702AE0096A388617856
:1071E000A268B8470028EED1A0784008C100124834
:1071F00008188038C26F02A94198904700280FD024
:1072000061780029DFD1A27869460A700871684662
:107210000189418069464198FAF712FA0020D2E7C5
:10722000A378042BCFD00096002268784199FFF70D
:1072300041F9C8E788BCFF1FD09A021100B5034688
:10724000FCF70CF8002803D0C018401E80B200BD27
:10725000184600BD10B57D24E4006243F9F776F9C5
:1072600010BD10B5040008D02078FF2805D0FE28F6
:1072700003D0F9F771F9FF20207010BDF7B506466D
:107280000F461020F9F784F805461020F9F780F82A
:107290000446002D3AD0002C2DD010220021F8F702
:1072A000BDFF2A462146304601F032F8060023D1C0
:1072B0002878000604D43946284600F0AFFD08E0DF
:1072C0002146284600F0AAFD3A461149204602F020
:1072D0002BFB3878000604D43846029900F09EFD56
:1072E0000AE02146384600F099FD09492046029AF5
:1072F00002F01AFB00E013262846F9F731F8002CBB
:1073000002D02046F9F72CF83046FEBD1326F6E7EA
:107310005A9B0211014800787047000008BBFF1F0C
:10732000F8B5069800271D4614460E46002801D0E1
:107330000B20F8BD30780021022801D019804DE0E3
:1073400070680278407800021018152280B252024C
:10735000801A0300F8F784FE0504121F1A25410065
:10736000F068F9F73FF8C2B20798824200D90246A6
:107370002A80F1682046F8F7A9FE30E0F068022183
:10738000008829802070000A607028E0062028808C
:107390000246F168EEE701202880F068007820704E
:1073A0001DE0F068002816D008212980017821709E
:1073B0000188090A61708178A1704188090AE17029
:1073C000017921718188090A61718179A171C0886F
:1073D000000AE07103E0298001E029800127384696
:1073E000F8BD10B50B78840702D50224234301E0D1
:1073F000FD2423400B7003070B7802D50824234398
:1074000001E0F72423400B7083060B7802D520247B
:10741000234301E0DF2423400B700A21084201D1FD
:10742000810603D510780C21084304E0002803D11D
:107430001078F3210840107010BD0000FFB581B036
:10744000087800240A9E1F460D4602280FD168685E
:107450000178407800020818152180B24902401ACC
:1074600009D0012829D0022848D003283CD0012483
:10747000204605B0F0BDE868F8F7B4FFC0B2864218
:1074800005D8F0190090152803D90D24F0E707243A
:10749000EEE7E8683A4680190399F8F717FE009876
:1074A000EA6880B2002111541C4840680028DFD0EF
:1074B00001680029DCD0002012E0002E12D1022B3E
:1074C000E3D10399E8680A784978090251180180E4
:1074D000124840680028CBD001680029C8D001209C
:1074E0008847C5E70B24C3E7002EFBD1062BCCD180
:1074F0000622E8680399F8F7E9FDB9E7002EF1D113
:10750000012BC2D103980078002803D0012801D0B4
:107510008024ADE7E9680870AAE7000024B9FF1FDE
:1075200008B509488368002B0CD01A7869460120F9
:107530005B1CFEF742F8002804D00078C00701D099
:10754000012008BD002008BD60BCFF1F10B5034628
:107550000B4A00200A21414389184988002905D097
:10756000401CC0B20328F5D3002010BD0A2100241E
:10757000414354540446403488184480037210BD7B
:10758000ECE7FF1F0A7802700A88120A42708A78B4
:1075900082704A88120AC2700A7902718A88120AB5
:1075A00042718A798271C988090AC17108207047BD
:1075B000F8B504460D4648680421F8F73DFF297ADE
:1075C000017029890346401C090A0170297841701D
:1075D0002988090A8170287A001DC2B2FB2A38D88E
:1075E0001D48844215D115461E460C20F8F700FFB1
:1075F00001000CD090200870022008714C808E6031
:107600001648CD800078F8F7D5FE00271FE0132735
:107610001DE05C202546124E4543B06829185820CD
:10762000405C00280BD00F480727416A491C416283
:10763000B06829185820405C002805D007E0204693
:1076400000F096F90746F3E72046F8F78BFF384637
:10765000F8BD0220F8BD0000FEFF0000A1BCFF1F26
:10766000D0BCFF1F2CE8FF1F10B50A4A00210A23D7
:107670004B439B185C88002C06D01B79834203D1B6
:107680000A204143881810BD491CC9B20329EED312
:10769000002010BDECE7FF1F002141800170704702
:1076A00070477CB504000FD0608800280CD00025FE
:1076B000009501951323E188207A172200F028F81D
:1076C000FF206072658025707CBDF8B507461546C1
:1076D0000E461020F8F78CFE040017D0A020207072
:1076E000002060706680002D05D00C222946201DE8
:1076F000F8F7ECFC04E00C220021201DF8F78EFDC9
:1077000021463846F8F756FE0020F8BD0120F8BDA6
:10771000FFB581B01E46174614200B9DF8F768FE92
:1077200004001AD0A22020706770029860800A9826
:1077300020716671002D06D020460C2229460830A3
:10774000F8F7C4FC05E020460C2200210830F8F7C9
:1077500065FD21460198F8F72DFE05B0F0BD022A1F
:107760001CD34B780A781B02D21892B20280012AED
:1077700002D0022A06D00FE08A78C978090251188F
:10778000418009E0CB788A781B02D21842800A79BE
:107790004979090251188180002070470120704703
:1077A000F8B506464F88002070600D460979634899
:1077B0008C46406802290FD03C01025B002A06D0AB
:1077C00021188B68002B02D06346012B7ED05C48C9
:1077D0004169491C4161ACE0EA88042A40D3A968A8
:1077E0004C780B7824021B199BB20093CC788B78D1
:1077F00024021B199CB20B7AC979090259184F4B04
:107800005980009B1B1D9A421ED1072C11D0052CBC
:107810000FD0042C02D0062C22D10AE03901405AA4
:10782000002806D03846FBF7A5FE45480169491CEB
:1078300001610098308134800321C943A868F8F7BA
:10784000FBFD70600020F8BD072C0AD0052C08D085
:10785000042C06D0062C04D03948C168491CC160EC
:107860006AE09A42F8D8042C0AD13901405A00281B
:1078700006D03846FBF77EFE31480169491C01619C
:107880003E012E4F00207968885371180098888136
:107890007868301884800098FBF7EEFE79687118DC
:1078A0008860002819D00321C943A868F8F7C4FDEF
:1078B00001467868EA8830188068121FF8F706FCDD
:1078C0007868EA88815B8918091F00E00AE0815323
:1078D0001B480168491C01602EE019488169491C58
:1078E000816129E0EB88D21892B2025388898242E2
:1078F0001BD88868114F8018EA88A968801AF8F7A1
:10790000E5FB7868025B21188889824214D13081B6
:107910008888308078682118896871600021015357
:1079200007484168491C416006E005488168491CD8
:1079300081603846FBF71EFE0120F8BDD0BCFF1F5A
:107940002CE8FF1F022A01D0012070470A784978ED
:10795000090251180180002070470A7802704A78A5
:1079600042708A78C9780902511841807047000036
:10797000FFB50C4607463D49A120800009687843C1
:107980004018FF30C130067E89B015463846F9F7F9
:10799000ABFE001DB04204D23846F9F7A5FE001D2B
:1079A000C6B2B54207D82A46002138460C9BF8F7E4
:1079B000DFFD0DB0F0BD31462846F8F7C1FD274682
:1079C000403738740C99616501467143691AC9B230
:1079D00002910C9904910299002901D0401C38743D
:1079E000002523E00299002904D0401EA84201D1BD
:1079F000084600E03046E900059103916054FBF72A
:107A00004FFD03990919486000281BD00599625C55
:107A10000499F8F75BFB0598215C0498081804901A
:107A20001348C169491C6D1CEDB2C161387CA84284
:107A3000D8D8606D002803D0F8F7F2FC002060650C
:107A40000020B6E7002038740646606506E0F000C6
:107A500000194068F8F7E4FC761CF6B2AE42F6D3A3
:107A60000348C16A491CC1621320A2E73409FF1F01
:107A70002CE8FF1FF7B586B016460D464878FFF78D
:107A8000F3FD040010D0002727712878012802D0C8
:107A9000132809D105E06A88314602A8FFF75FFE86
:107AA0000AE02078032802D0002009B0F0BD6A88DF
:107AB000314602A8FFF746FF0646204600F064F96B
:107AC00002A8019000972B78207A32460699FFF79A
:107AD0001FFE2046FFF7E0FD3046E6E7FEB5044610
:107AE000468801466846FFF75BFE05460198002878
:107AF0002FD068460088052806D0042809D006281B
:107B000007D0072805D026E06946304600F030F857
:107B100021E081001548081801464039098E0029E6
:107B200019D02038807C6A463146FFF7CEFD002808
:107B300011D168460088042803D001213046FBF7A4
:107B4000B3FC012D04D1A068002801D0F8F768FC2F
:107B5000FEBD012D04D1A068002801D0F8F760FC1B
:107B600001213046FBF7A0FCFEBD0000DCE7FF1F53
:107B700030B50546088987B00C46042817D302A8FB
:107B80006168FFF7EAFE68464089172837D82189DF
:107B9000001D81421ED16846007AC10709D0626883
:107BA00002A92846121DFFF765FF002812D107B071
:107BB00030BD6168091D122805D000206946088083
:107BC000497A6A4622E06846428903A8FBF79EFC90
:107BD000002803D02846FFF763FDE8E70D488188B9
:107BE0000029E4D06946497A03AA019200916946C6
:107BF0000B7A807900222946FFF78AFDD7E7012119
:107C00006846018017214180417A6A462846FBF781
:107C10002FFCCCE7DCE7FF1FF8B50025214C3BE04B
:107C2000606800262F01C6533818868160683818AE
:107C30008680606838188068002804D0F8F7F0FB68
:107C4000606838188660374630465C212E464E43C1
:107C5000A168711840310874A168711840314874E6
:107C6000A168711840310876A0683018406D00286E
:107C700004D0F8F7D5FBA16871184F650027A068FC
:107C8000F900301840184068002801D0F8F7C8FB08
:107C90007F1C0A2FF3DB6D1C034800788542BFDB95
:107CA000F8BD0000D0BCFF1FA4BCFF1FFFB589B00A
:107CB00015460E461720129FFBF7DEFC040021D06C
:107CC000684606704570002F03D0201D0C99B847F8
:107CD00000E0002069464880267065704888A070E2
:107CE000010AE170052269468A82001D0694888394
:107CF00005A90998FFF75CFC050004D02046F8F7B9
:107D00008FFB00E0132528460DB0F0BDFFB581B014
:107D10001E46054601210A9F0B9C00F083F90028AE
:107D200011D02046FFF712FC00280AD0C580044677
:107D3000077012484178491C0A06120E427004D09E
:107D400005E015250FE014250DE001224270227197
:107D500000962846039B0299FFF7A8FF050005D06F
:107D60002046FFF799FC284605B0F0BD2346214682
:107D7000034A09330348F8F7E9FBF4E7D0BCFF1FD7
:107D800030750000A376021110B50446407AF8F76A
:107D9000E3FBFF20607210BD10B5074C012160703D
:107DA000F8F7ECFB00216078F8F7EEFB0321607830
:107DB000F8F7F0FB10BD00005FBBFF1F10B5154CBE
:107DC000002808D0012810D002281AD0032160789A
:107DD000F8F7E0FB10BD00216078F8F7D5FB032130
:107DE0006078F8F7D7FB002008E001216078F8F709
:107DF000CBFB01216078F8F7CDFB012000F05CFAA5
:107E000010BD05480121F72209030078F8F746F96B
:107E100010BD00005FBBFF1F76BAFF1F10B5002426
:107E20000F22835C5B0023438B54835C521EDC096E
:107E300052B2002AF5DA10BDFFB581B01E461746D2
:107E40000D46084600F04AF8002802D0112005B07F
:107E5000F0BD0E4800F042F8040015D00A98A07159
:107E60000622E01D0B99F8F731F9658027716671DC
:107E700001982070002060620C98E0810021284663
:107E800000F04AF90020E2E71520E0E7FFFF0000DC
:107E900070B514460D46064600F020F800280BD0B9
:107EA000416A007900290CD0C20611D580070AD496
:107EB000002C08D0052070BD074886420AD0142047
:107EC00070BDC006F6D5887EA84203D20C2070BDD6
:107ED0000F2070BD002070BDFEFF000030B50A4AC3
:107EE000002113780CE0282455684C4364196488F9
:107EF000844203D128204143481930BD491CC9B2EE
:107F00009942F0D3002030BDA4BCFF1FF0B50C4B4C
:107F100000210C4E1D780FE028225C684A43171997
:107F20007F88B74206D0A25C824203D12820414319
:107F30000819F0BD491CC9B2A942EDD30020F0BD1B
:107F4000A4BCFF1FFFFF000070B5104900200C7893
:107F500002460F4E0CE028234D6843435D196E80A6
:107F60004D685D192A714D685B19401CC0B25A6298
:107F7000A042F0D38B680020497803E08400401CC5
:107F80001A51C0B28842F9D370BD0000A4BCFF1FD3
:107F9000FFFF000010B5094A00205368014612781F
:107FA00009E028244C43E4182479002C01D0401C1B
:107FB000C0B2491CC9B29142F3D310BDA4BCFF1F8B
:107FC00030B5094A0021537806E095688C002C5999
:107FD000002C05D0491CC9B29942F6D3132030BDFC
:107FE00089006850002030BDA4BCFF1F10B5FFF70A
:107FF00075FF040013D06088012100F08DF8606ADD
:10800000002801D0F8F7ACF9282200212046F8F723
:1080100005F90020C04360800020207110BD0220BF
:1080200010BD000010B50C460649884206D0FFF787
:1080300055FF002804D00079204201D0012010BD56
:10804000002010BDFEFF000070B500241220F8F7DC
:108050009FF91549122208600021F8F7DFF8204641
:108060000124F8F79DFA02252046F8F79FFA032429
:108070002846FBF725FA04252046FAF7ADFA052431
:108080002846FBF703F806252046FBF771FB07247B
:108090002846FAF707F808252046FAF7D1FC2846C3
:1080A000F8F78AFA70BD000004BBFF1F70B51446D4
:1080B0000D460A4600232146F8F784FA002801D02D
:1080C0000A2070BD29462046F8F782FA002070BDCC
:1080D000F8B507460020009016460D461046F8F702
:1080E00077FA6846F8F77AFA2C4600982034A042CE
:1080F00008D20020F8F778FAA0420ADDF8F77AFAF9
:10810000F8F77EFA2A4631463846F8F77FFA002813
:1081100000D00A20F8BD0000F8B50E46074600243E
:10812000074D09E0A968A0000A58002A02D031468C
:1081300038469047641CE4B268788442F2D3F8BDB4
:10814000A4BCFF1FFFB581B00298FFF7C7FE040073
:108150006BD0029836498600C8688259002A64D0DC
:10816000136A1820002B00D03420936A002B00D013
:108170001430049B002B00D01C30516A002900D021
:108180001630F8F735F905004FD018220021F8F71E
:1081900045F82620FAF714FA070000D12778D020F6
:1081A0002870019868700A20A8700298A880039827
:1081B000A8711F482C46C16818348859006A0028E5
:1081C00007D0AC6089592046096A1C221C34F7F795
:1081D0007DFF1748C1688859806A002807D0EC6085
:1081E000895920461434896A1422F7F76FFF0498DE
:1081F000002806D02C6120461C341C220499F7F775
:1082000065FF0B48C1688859406A002806D06C6138
:1082100089592046496A1622F7F758FFF8B22946CD
:10822000F8F7C8F80298FDF7F9F905B0F0BD0000BD
:1082300050BCFF1FFFB581B01D46174614200E9E8F
:10824000F8F7D6F8040020D0D02020700198607094
:108250000520A070E770002D05D006222946201DBC
:10826000F7F734FF04E006220021201DF7F7D6FFC0
:108270000A9860810B98A0810C98E0810D9820826B
:10828000A67421460298F8F795F805B0F0BDF8B548
:1082900006461C4615460F460820F8F7A9F80100C7
:1082A00009D0D02008704E70062088708D808C71A7
:1082B0003846F8F77FF8F8BD704700784107820725
:1082C000C90F920F89000006C00E1143C000084379
:1082D0007047000001468A000849102089688958C3
:1082E00000290AD00A6A002A07D08968002904D028
:1082F000107A097E884200D308467047E0BCFF1F11
:1083000010B50246014620321031F8F785F910BD4C
:1083100010B5F8F781F910BD7FB50D460446810010
:108320000A488068405800280ED0014668314EC97E
:1083300003966E460EC6037FC28801782846FDF775
:10834000DFF9204600F004F87FBD0000E0BCFF1F0D
:1083500070B5044600F0F8FCA500174CA068405921
:10836000002827D0006A002801D0F7F7F9FFA0689D
:108370004059806E002801D0F7F7F2FFA0684059FD
:10838000C06E002801D0F7F7EBFFA0684059006FDE
:10839000002801D0F7F7E4FFA0684059406F00289B
:1083A00001D0F7F7DDFFA0684059F7F7D9FFA168C2
:1083B0000020485170BD0000E0BCFF1F7FB5094D93
:1083C0008400A8681022015968462531F7F77EFE1F
:1083D000A868054B00596A46C088112100F032FC9C
:1083E00004B070BDE0BCFF1F959102117FB50D4C2C
:1083F0008500A1684959002911D0694600F046FC62
:10840000A06840590178C088002901D0064B00E0DF
:10841000064B6A46072100F015FC04B070BD012030
:10842000FBE70000E0BCFF1FF191021183920211F3
:1084300070B50D46064600240AE0F8F7F3F8010A85
:108440003155641CE4B2AC4202D23055641CE4B233
:10845000AC42F2D370BD00007FB5094D8400A8681E
:108460001022015968463531F7F730FEA868054BF0
:1084700000596A46C088112100F0E4FB04B070BDC9
:10848000E0BCFF1FCF91021110B5074A830092682C
:10849000D258002A06D0D288824203D1012901D1C4
:1084A000FFF756FF10BD0000E0BCFF1F70B50F4C7A
:1084B00006468500A0684059002813D0007800289F
:1084C00011D06068002804D04168002901D03046EE
:1084D0008847A06840594078122803D100213046CF
:1084E000FFF71AFF70BD2068ECE70000E0BCFF1F3B
:1084F00010B50A46024B112100F0A4FB10BD00008C
:10850000FD9002111CB50446684613460170062210
:108510001946401CF7F7DAFD034B6A46082120464E
:1085200000F090FB1CBD00001F91021110B50A461F
:10853000024B112100F086FB10BD00004591021195
:1085400010B586B0044668461346018008221946D5
:10855000801CF7F7BBFD044B6A460B21204600F058
:1085600071FB06B010BD00006791021110B50A46FC
:10857000024B112100F066FB10BD0000AF9202110A
:1085800030B587B00446002069460875A0680578B4
:108590002B00F7F765FD0C2C07070F1215181B1E93
:1085A0002124272C00F006FF12281DD10620694641
:1085B000087529E000F0CFFE16E000F0EBFE13E0B6
:1085C00000F0D8FE10E000F083FE0DE000F0AFFEFA
:1085D0000AE000F09DFE07E000F089FE04E000F0F4
:1085E00061FF01E000F050FF002802D008E0072002
:1085F000DEE760886A46294600F064FF6946087530
:108600006846007D002805D0608805A900F008FBB9
:1086100007B030BD608800F069FBF9E7F8B52C4C75
:1086200006468700A0680D46C059002807D0C188BB
:10863000B14204D14178062904D0112930D0002D4F
:1086400036D03EE00178002926D08268016A52695E
:10865000D30704D00B7BDB0701D0072105E093078C
:1086600005D50B7B9B0702D5092141702DE05207F0
:1086700004D5097B490701D50B21F6E7606800287E
:1086800023D04168002920D030468847A068C059CF
:108690004078122802D018E02068F0E7002103E0BB
:1086A000002D00D0322529463046FFF735FE0CE07C
:1086B0003046FFF713FC002803D001791022114344
:1086C000017131462846FDF713FD0120F8BD000079
:1086D000E0BCFF1F70B501780124922902D0A029C7
:1086E00019D130E041780E2902D03E2913D10BE098
:1086F00081881A4AD14205D18068411C007800F077
:1087000033F81EE000201CE0014680780124052893
:1087100003D0082811D000241DE01148007840073C
:1087200019D510480068002815D08368002B12D096
:10873000CA898888891D984703E088888979FFF766
:108740006DFF044607E00546FFF71AFFA8680028FA
:1087500001D0F7F765FE204670BD0000E8DFFFFF9F
:10876000EDBBFF1FE0BCFF1F70B51D4C0546206828
:10877000002825D0002D06D10278002A21D0082219
:108780000A30F7F7A3FC20682E46002817D01220E5
:10879000F7F72EFE05000DD0C12028706E702168FD
:1087A0001022A81C891CF7F791FC20682946407804
:1087B000F7F700FE2068F7F7D3FD002020600120C6
:1087C00070BD0822801CF7F781FCF7F731FF002805
:1087D00001D00125D7E7216801200870EFE70000EC
:1087E000DCBCFF1F0149086070470000E0BCFF1FB0
:1087F000F7B588B016460446102200216846F7F700
:108800000DFD354DA7002868C059002835D0C18816
:10881000A14232D1017800292FD14278062A0FD007
:10882000816E002929D0088A112A19D0B04224D19A
:10883000082212310998F7F75BFC01283DD01CE0B3
:10884000024601465532353104AB0C3000F029FCAC
:10885000002812D12046FFF73DFD024604A932E070
:10886000B04206D1082212310998F7F741FC0128DD
:108870001BD032212046FFF74FFD2046FFF72EFB8D
:1088800005000CD0696A002909D0088AB04206D1D7
:10889000082212310998F7F72BFC012811D0204645
:1088A000F7F7D2FE01200BB0F0BD2046FFF712FD16
:1088B00002462868C059816E05E02868C059816E5B
:1088C00000E0696A8A7E6846F7F700FC2046694640
:1088D000F7F7CEFEE6E70000E8BCFF1FF1B582B077
:1088E00002986E4C850020684059017800297BD1A0
:1088F00041788768066A062907D0CA1F1300F7F770
:10890000AFFB050A4B555F1877007969CA0706D097
:10891000327BD20703D0806E002813D01AE088077C
:1089200002D5307B800741D4480769D5307B4007AA
:1089300066D5FCF7BDFE014620684059C088FFF7A8
:1089400015FE5DE01C20F7F723FD2168002849593A
:10895000886657D02068102240590021866E304624
:10896000F7F75CFC0298FFF7B5FC01463046FFF7CD
:108970005FFDF7F757FE3082304608211230FFF7CF
:1089800057FD0298FFF7A6FCB076206831464059A3
:10899000C088FFF7ADFD35E0816E002934D00A466E
:1089A0001232098AC088FFF7CBFD2DE0FCF77AFE72
:1089B00021684959CA8801461046FFF7B7FD41E0D2
:1089C00001200190FCF768FE009001280DD00020E6
:1089D00000900198FCF752FE024620680099405929
:1089E000C088FFF78FFD3CE024E000200190F1E714
:1089F000072907D0082907D0092923D00A2930D010
:108A000078690EE008201EE07869810704D5317B83
:108A1000890701D5092016E0410724D401E00B2085
:108A200011E0C10523D5B189C90520D50C202168E5
:108A300049594870FEBD400520D5B08940051DD577
:108A40001020F4E70A2021684959487020684059ED
:108A5000C088FFF743FA002812D0C08941080A18DD
:108A600010E07869D8E7317B4907DAD5D7E7810587
:108A7000E1D5B1898905DED50E20D8E71220D6E7E9
:108A8000FF22F5320649029808542068435902989B
:108A90001B1D09180348F7F759FDFEBDE8BCFF1F71
:108AA0000AE8FF1F3D8D0211F8B504460020009032
:108AB0000E461020F7F76CFC5749A5008A6800287D
:108AC0005359186252597AD00F4694681022314691
:108AD000F7F7FCFAB86840590178002962D1026AB8
:108AE0006069177B2146C307FF071431DB0FFF0FB7
:108AF0000C32BB4204D1C30702D00123184301E06A
:108B000040084000086017788307BF07DB0FFF0F9E
:108B1000BB4204D1830702D50223184301E002239C
:108B200098430860177843077F07DB0FFF0FBB42AE
:108B300004D1430702D50423184301E004239843DA
:108B400008601788C305FF05DB0FFF0FBB4205D187
:108B5000C30503D5FF230133184302E0FF2301338C
:108B60009843086017888305BF05DB0FFF0FBB42E2
:108B700005D1830503D501235B02184302E00123DD
:108B80005B0298430860128843055205D70F012203
:108B9000DB0F9202BB4203D1430501D5104300E035
:108BA00090430860707800280AD06078002807D0C9
:108BB00019480521806840592030017127E028E0DC
:108BC0003079400709D4A07C400706D4124901201F
:108BD000896849592031087119E00F488068425965
:108BE0001078002802D02178307801E020783178A0
:108BF000042901D8042801D9182007E08300C018EF
:108C0000064BC018405C2032107100200090009884
:108C1000F8BD1320FAE70000E0BCFF1F6A9B0211B9
:108C200070B50C460A460646054B022100F00AF8CC
:108C3000054621783046FFF76FFB284670BD0000DF
:108C4000B7910211FEB51646054606226846028017
:108C500001811C460846FAF70FFD019000280ED04E
:108C600001463046A047040005D169462846FAF778
:108C7000E9FC040004D00198F7F7D2FB00E01324CC
:108C8000284600F033F82046FEBD000070B50D46C2
:108C900081000D488068405800280FD08468002C5F
:108CA0000CD02078287060786870A17C281D00F0B6
:108CB00067F8207E28726069E86070BD102200218C
:108CC0002846F7F7ABFA70BDE0BCFF1F38B5064C7D
:108CD000049D6468002C05D0A468002C02D0009587
:108CE000A04738BD022038BDE0BCFF1FF8B50446E0
:108CF0002020F9F765FC0E4E05463068A700C059E4
:108D0000002813D0002D11D0C078FF2804D02946A8
:108D1000F7F794FC002809D006482A460455316824
:108D2000CB5901190448DB1CF7F710FCF8BD000013
:108D3000E8BCFF1F60E8FF1F778D021110B50078B7
:108D4000FFF7B4FB10BD000070B5074C850020682C
:108D50004059002806D0C078F7F7FEFB2168FF20B5
:108D60004959C87070BD0000E8BCFF1F10B517213D
:108D7000FFF7D2FA10BD10B50078FFF7F7FF10BD6E
:108D800010B502688B07920892009B0F1A434C079C
:108D900004230260002C01DA1A4300E09A43F8230E
:108DA000C9089A43C9000A43026010BDFFB587B0E5
:108DB00017461020F7F7ECFA01901020F7F7E8FAC1
:108DC0000090019800287DD0009800287BD00246B2
:108DD00001990798FEF752FA04007ED11020F7F7A8
:108DE000D7FA02901020F7F7D3FA06460298002827
:108DF0006BD0002E7CD038460F30050902D03807E2
:108E00000CD000E001250020290110390028089825
:108E1000C9B205D04018324601991AE00120F3E7A3
:108E2000401884463A07120F002003A9802390427D
:108E300002D267463F5C04E0904201D10B5401E04E
:108E400000270F54401CC0B21028F0D3324603A8AC
:108E5000009900F069FD102200210298F7F7DEF971
:108E600000276D1E0FE038070899000E091803AAA5
:108E7000029800F059FD03A9029A0798FFF748FAF3
:108E80007F1C04463FB2AF4202DA002CEBD011E067
:108E9000002C0FD103AA3146029800F045FD03A92A
:108EA000029A0798FFF734FA0446082202990A98B2
:108EB000F7F70CF90298002801D0F7F751FA002EC5
:108EC00008D004E01AE017E007E013E010E03046B5
:108ED000F7F746FA0198002802D00198F7F740FA10
:108EE0000098002801D0F7F73BFA20460BB0F0BD00
:108EF0001324E2E71324E2E71324EEE71324EFE759
:108F000070B58CB015460E460446302200216846E6
:108F1000F7F784F9102221466846F7F793FA07A875
:108F2000032231460130F7F78DFA6846FFF7E8F97A
:108F300004460BA9032228460131F7F783FA20469D
:108F40000CB070BDFFB5254D07468600A8688DB0F2
:108F5000805900281BD0C088FEF7C0FF040019D03C
:108F600005A93846FFF792FEA868805901780029C4
:108F700012D005A90291006A0190FCF78DFB0090C8
:108F80000020FCF77BFB0646A779E51D12E01220C6
:108F900011B0F0BD1420FBE7006A029005A8019013
:108FA000FCF77AFB07460020FCF768FB0546A07932
:108FB000E61D009009A9019800F063F90BA9029839
:108FC00000F016F9109804900BAB09AA02970196CD
:108FD00003950F990E9800F003F8D9E7E0BCFF1F46
:108FE000FFB595B004461F463022002104A81E9EFE
:108FF000209DF7F713F91022214604A8F7F722FA6B
:10900000102200216846F7F709F9072268461799E8
:10901000F7F718FA01A8072239460330F7F712FAD2
:10902000002D01D0012000E0002069468873002E49
:1090300001D0012000E00020C8731022002110A8F8
:10904000F7F7ECF8062211A81F99F7F7FBF912A819
:10905000062202302199F7F7F5F908A810220646F2
:109060001699F7F7EFF96946304600F03AF804A888
:10907000FFF746F904460CA910220D463046F7F7D3
:1090800025F810A9304600F02CF804A8FFF738F9AD
:109090000443102229462298F7F7D4F9204619B044
:1090A000F0BD70B50C468CB0164601461D46102228
:1090B0006846F7F7C7F90822214604A8F7F7C2F96E
:1090C0000822314606A8F7F7BDF96846FFF718F9F8
:1090D00004461022284608A9F7F7B4F920460CB038
:1090E00070BD10B5002203780C78521C63400370E9
:1090F000D2B2401C491C102AF5D310BD10B500296E
:109100000BD0002809D006220A704B1C0146102201
:109110001846F6F7DBFF002010BD022010BD10B589
:1091200000290DD000280BD009220A704B1C0178B1
:109130001970411C0622581CF6F7C8FF002010BD0C
:10914000022010BD10B500290BD0002809D008223C
:109150000A704B1C014610221846F6F7B7FF002094
:1091600010BD022010BD10B50346002910D0002B01
:109170000ED007200870481C197801701988082241
:10918000090A4170991C801CF6F7A0FF002010BD51
:10919000022010BD10B500290BD0002809D00322F1
:1091A0000A704B1C014610221846F6F78FFF00206C
:1091B00010BD022010BD002907D0002805D00522CF
:1091C0000A7000784870002070470220704710B580
:1091D00000290BD0002809D004220A704B1C01463C
:1091E00010221846F6F772FF002010BD022010BDB5
:1091F0000A4610B50146012000F001F810BD70B517
:109200000C46002A3BD0002C39D0107020785070CA
:1092100060789070D51C201DFFF74FF82870207AD9
:109220006870A089C005C00FA870A1898905C90F01
:1092300049000843A870A1894905C90F890008435E
:10924000A870A1890904C90EC9000843A870207B31
:10925000C007C00FE870217B8907C90F4900084388
:10926000E870217B4907C90F89000843E870217B1A
:109270000906C90EC9000843E870002070BD02202D
:1092800070BD0A4610B501460220FFF7B8FF10BDB9
:1092900010B5002909D0002807D00B220A704C1CF9
:1092A000FFF70BF82070002010BD022010BD10B594
:1092B00000290BD0002809D00A220A704B1C014655
:1092C00010221846F6F702FF002010BD022010BD44
:1092D00010B50B46002808D0002B06D0411C1022E8
:1092E0001846F6F7F3FE002010BD022010BD10B5A1
:1092F0000B4600280AD0002B08D041781970811C39
:109300000622581CF6F7E2FE002010BD022010BD18
:1093100010B50B46002808D0002B06D0411C1022A7
:109320001846F6F7D3FE002010BD022010BD10B580
:109330000B4600280DD0002B0BD08278417812020A
:1093400089181980C11C0822981CF6F7BFFE00205E
:1093500010BD022010BD10B50B46002808D0002B10
:1093600006D0411C10221846F6F7B0FE002010BDB2
:10937000022010BD002809D0002907D040780870CD
:10938000092805D8002803D0002070470220704724
:109390001820704710B50B46002808D0002B06D0C7
:1093A000411C10221846F6F791FE002010BD022045
:1093B00010BD000070B50C4600281DD0002C1BD03D
:1093C0004178217081786170C178051D201DFFF7FB
:1093D000D7FC287820726978FF22E0680132904338
:1093E000CA07D20D104301228B075202AD1CE06068
:1093F000002B03DA104302E0022070BD9043214AA3
:10940000E0604B0701D5104300E090431F22D202D9
:10941000C9089043C9020843E06029784008CA0798
:109420004000D20F10438B070222E060002B01DACC
:10943000104300E090434B070422E060002B01DA68
:10944000104300E09043F822C9089043C900084344
:10945000E0602120F9F7B4F8217A884205D822206B
:10946000F9F7AEF8217A884201D2122070BD207837
:10947000042802D86078012801D9182070BD002086
:1094800070BD00000004000010B50A46002807D097
:10949000002A05D041781046FFF772FC002010BD6D
:1094A000022010BD10B50B46002808D0002B06D0B6
:1094B000411C10221846F6F709FE002010BD0220BC
:1094C00010BD000070B515460E460724FEF706FDD8
:1094D000002807D042790D49002A05D0012A09D079
:1094E000052070BD082070BD094A127812070BD5FF
:1094F000496800E00968002906D00B68002B03D0FA
:109500002A46314698470446204670BDE0BCFF1FFE
:10951000EDBBFF1FF8B5144C0646850020680F46CA
:10952000405941780C291DD1C06E002807D11C205C
:10953000F6F72EFF216800284959C86612D0206826
:10954000102240593946C06EF6F7C0FD3046FEF78E
:10955000C1FE21684A59D26E907649590D20487053
:109560000020F8BD0720F8BDE8BCFF1F70B5114C06
:10957000064685002068405942780F2A01D007200E
:1095800070BD006F06221030491CF6F79FFD206861
:1095900040598168898A490506D5016A8989490542
:1095A00002D51021417003E000213046FEF7B4FEE1
:1095B000002070BDE8BCFF1F70B5114C850020680D
:1095C0000E46405941780E2901D0072070BD006F2A
:1095D000002807D11620F6F7DBFE2168002849593C
:1095E000086706D02068102240593146006FF6F710
:1095F0006DFD21680F2049594870002070BD0000A2
:10960000E8BCFF1FFEB505462B4B40881B68860053
:109610009B590024002B04D0DD88854214D00820FB
:10962000FEBD01290ED11446101DFEF746FEE1686D
:109630000291217A00900191637822786988002054
:10964000FCF7DEFD0020FEBD1B78012B09D00B00CE
:10965000F6F706FD0B2E092E0D122A161A1E2226CB
:109660002E000720FEBD114600F0B4F802E01146BE
:1096700000F058F804461CE0114600F07BF8F9E7CA
:109680001146FFF747FFF5E7114600F017F8F1E73D
:109690001146FFF791FFEDE71146FFF767FFE9E796
:1096A000114600F0F9F8E5E71178FEF735FE00E025
:1096B00007242046FEBD0000E8BCFF1F70B5184C13
:1096C0008500226806465359D86E002802D05B7880
:1096D0000D2B01D0072070BD0B8803825059082242
:1096E000C06E891C1230F6F7F1FC20684159886879
:1096F0004069820505D50A6A9289920501D50E2036
:1097000006E0400506D5086A8089400502D510208C
:10971000487003E000213046FEF7FEFD002070BDDA
:10972000E8BCFF1FF8B5124C0746850020680026EC
:10973000405910224530F6F7C9FC20684159487855
:10974000042813D00B460A462533353238460C31EF
:10975000FFF7F8FB3846FEF731FE002800D0082658
:1097600021680520495948703046F8BD0320FAE7C2
:10977000E8BCFF1FF0B5164C07468500206885B091
:109780004059002610225530F6F7A0FC20686B46A1
:10979000415938460A4655320C31FFF7D3FB206851
:1097A0001022415968464531F6F7A2FC012803D042
:1097B0000426304605B0F0BD3846FEF74DFE0028C1
:1097C00001D00826F5E72168062049594870F0E7DE
:1097D000E8BCFF1FF8B504460026FFF765F900282E
:1097E00004D0182853D008263046F8BD2046FEF78E
:1097F000FDFDA500274C216848598268927CD2075C
:1098000009D0026A12799207920F012A03D1027FCE
:1098100001231A43027748592421095C04270229AD
:1098200021D003291FD004291DD0012901D00529E9
:10983000DAD102214170206824214059095C0129B4
:109840001FD0816810220C30891CF6F73FFC20687D
:109850004059017F39430177206810214059353044
:10986000FEF7E6FDC0E7022900D00121C088FBF722
:10987000E7FF206841590A7F3A430A774059477009
:10988000B2E7102200210C30F6F7C8FCE4E703260B
:10989000AAE70000E8BCFF1FF8B5154C0646850096
:1098A00020680F46405900281FD0406F002807D17C
:1098B0001420F6F76DFD216800284959486712D039
:1098C0002068102240593946406FF6F7FFFB2168A7
:1098D00000204959C043496F086100213046FEF716
:1098E0001BFD0020F8BD0820F8BD0720F8BD0000D2
:1098F000E8BCFF1F10B5FAF7A7FD7D21C90048435A
:109900000246034880210078F6F7C8FB10BD00002E
:1099100076BAFF1F10B5034880210078F6F7B2FB36
:1099200010BD000076BAFF1F30B50023C45CCD5CCB
:109930006C40D4545B1CDBB2102BF7D330BD00005D
:10994000489E02111C9C0211B53B0211FC9E0211A3
:10995000BC9C0211454B0211949E0211709E021193
:10996000FD410211649E0211E09C02115D49021149
:10997000A89D0211909D0211F5520211B49C021192
:10998000989C02119D4A0211089D0211F09C02113F
:109990000D480211D89D02112C9E02113D39021171
:1099A000F49E0211F89D0211A1490211149C0211AA
:1099B000109D02116D3D0211B89E0211709C0211A2
:1099C00081400211C09B0211D09B0211B53C0211D3
:1099D000689C0211549C021131470211A89E021189
:1099E0005C9D0211CD3A0211B09E0211789D0211C8
:1099F000DD3E0211E09E0211C89E02112D410211AE
:109A0000CC9D0211089E021149400211E89B0211EF
:109A1000409C021181450211F09B0211AC9B021186
:109A200045460211FC9B0211849B0211AD500211AC
:109A3000089C0211989B021191510211C09E0211C3
:109A4000B49D0211FD3B0211EC9E02114C9E0211CD
:109A5000A5420211A09E0211E09D0211C948021107
:109A6000C89B0211289D0211A1430211509D0211B1
:109A70003C9D02113D4C02110506FFFF00C2010092
:109A800001000000C521FF1F02000000309B0211F1
:109A9000217302113D740211000000000200000059
:109AA000329B0211000000008D70021100000000C6
:109AB0000506FFFF00C20100010001002522FF1F73
:109AC000FB349B5F8000008000100000000000005D
:109AD0004517021109650211B717021155650211E8
:109AE0006F17021129650211911802118566021182
:109AF00011190211F96602116F180211F9660211AB
:109B0000CD180211B1660211911802113D660211C1
:109B100029190211AD6702110000000000000000C9
:109B200037180211AD6702115D1702112565021188
:109B300000180118002801280228032800290129FB
:109B40000229032904290529002A012A022A032AB5
:109B5000042A052A06290729082900000000000018
:109B60000000000000000000008701010201020166
:109B700001020102030304010301010101010303C6
:109B80000201030053657420736572766963652072
:109B90005555494400000000536574207472616E8D
:109BA0007366657220555549440000005365742062
:109BB000636F6E6E65637420555549440000000064
:109BC00061742B617664610061742B646D610000C7
:109BD0004368616E67652061647665727469736954
:109BE0006E6720646174610061742B6C65640000B1
:109BF00061742B6C757569640000000061742B73CF
:109C0000757569640000000061742B747575696472
:109C10000000000061742B62617564004368656335
:109C20006B207768657468657220554152542069CD
:109C30007320696E204154206D6F64650000000040
:109C4000536574204C454420776F726B206D6F64B0
:109C5000650000004368616E676520706F7765720C
:109C6000206D6F646500000061742B6D6F6465008A
:109C70005365742077686574686572207468652020
:109C80006D6F64756C6520697320636F6E6E6563BC
:109C90007461626C65000000537769746368204DDD
:109CA00061737465722F536C61766520726F6C6599
:109CB0000000000061742B726F6C6500436865637F
:109CC0006B20626173696320706172616D65746598
:109CD0007273206F66206D6F64756C650000000004
:109CE0005265736574206D6F64756C6500000000CB
:109CF0004368616E676520626C7565746F6F746828
:109D0000206E616D6500000061742B6E616D6500F1
:109D10004368616E676520554152542062617564E5
:109D2000726174650000000053657420444D412049
:109D30007061737374686F75676800005365742091
:109D400072782F747820444D41207061746800004F
:109D500061742B7278706174680000004368616EF2
:109D60006765206164766572746973696E672069DE
:109D70006E74657276616C004368616E676520631E
:109D80006F6E6E65637420696E74657276616C00C7
:109D90004665746368206D6F64756C6520766572C6
:109DA00073696F6E0000000061742B7665727369D1
:109DB0006F6E00005365742074696D6520666F7264
:109DC000206175746F20736C6565700061742B631E
:109DD0006C6561720000000061742B616464720044
:109DE000476574207061636B657420636F756E7472
:109DF000206E756D626572004368616E6765205202
:109E00004620706F776572004D61737465722063D0
:109E10006C65616E207265636F7264656420736C3B
:109E20006176652061646472657373004368616E76
:109E3000676520626C7565746F6F74682061646417
:109E40007265737300000000617400005365742034
:109E50006275662073697A6520706572207061632F
:109E60006B65740061742B7265736574000000008B
:109E7000526573746F7265206D6F64756C652074C4
:109E80006F20666163746F72792064656661756CBA
:109E90007400000061742B64656661756C74000069
:109EA00061742B70636E740061742B61696E740051
:109EB00061742B63696E740061742B636F6E740040
:109EC00061742B61757374004368616E676520630C
:109ED0006F6E6E6563742074696D656F75740000D4
:109EE00061742B63746F75740000000061742B64DF
:109EF0006976000061742B726670770061742B7252
:049F000078000000E5
:020000041FFFDC
:100000000000000049800211EC97FF1F1098FF1FAD
:1000100004BBFF1F00000000000000000000000003
:1000200000000000000000000000000000000000D0
:1000300000000000000000000000000000000000C0
:1000400000000000000000000000000000000000B0
:1000500000000000000000000000000000000000A0
:100060000000000000000000000000000000000090
:100070000000000000000000000000000000000080
:100080000000000000000000000000000000000070
:100090000000000000000000000000000000000060
:1000A0000000000000000000000000000000000050
:1000B0000000000000000000000000000000000040
:1000C0000000000000000000000000000000000030
:1000D0000000000000000000000000000000000020
:1000E0000000000000000000000000000000000010
:1000F0000000000000000000000000000000000000
:1001000000000000000000000000000000000000EF
:1001100000000000000000000000000000000000DF
:1001200000000000000000000000000000000000CF
:1001300000000000000000000000000000000000BF
:1001400000000000000000000000000000000000AF
:10015000000000000000000000000000000000009F
:10016000000000000000000000000000000000008F
:10017000000000000000000000000000000000007F
:10018000000000000000000000000000000000006F
:10019000916CFF1F996DFF1FDD8AFF1F000000009B
:1001A000000000000000000000000000000000004F
:1001B000000000000000000000000000000000003F
:1001C000000000000000000000000000000000002F
:1001D000000000000000000000000000000000001F
:1001E000000000000000000000000000000000000F
:1001F00000000000000000000000000000000000FF
:1002000000000000000000000000000000000000EE
:1002100000000000000000000000000000000000DE
:1002200000000000000000000000000000000000CE
:1002300000000000000000000000000000000000BE
:1002400000000000000000000000000000000000AE
:10025000000000000000000000000000000000009E
:10026000000000000000000000000000000000008E
:10027000000000000000000000000000000000007E
:10028000000000000000000000000000000000006E
:10029000000000000000000000000000000000005E
:1002A000000000000000000000000000000000004E
:1002B000000000000000000000000000000000003E
:1002C000000000000000000000000000000000002E
:1002D000000000000000000000000000000000001E
:1002E000000000000000000000000000000000000E
:1002F00000000000000000000000000000000000FE
:1003000000000000000000000000000000000000ED
:1003100000000000000000000000000000000000DD
:1003200000000000000000000000000000000000CD
:1003300000000000000000000000000000000000BD
:1003400000000000000000000000000000000000AD
:10035000000000000000000000000000000000009D
:10036000000000000000000000000000000000008D
:100370009118FF1F000000000000000000000000B6
:10038000000000000000000000000000000000006D
:10039000000000000000000000000000000000005D
:1003A0000000000000000000000000001958FF1FBE
:1003B000000000000000000000000000000000003D
:1003C000000000000000000000000000000000002D
:1003D000000000000000000000000000000000001D
:1003E000000000000000000000000000000000000D
:1003F00000000000000000000000000000000000FD
:0C04000001FF01FF01FF01FF41000000AF
:020000041FFFDC
:1018380070ECFF1FC918FF1F81840000F128000009
:101848000000000000000000000000000000000090
:10185800000000000000000000000000D518FF1F75
:101868000000000000000000CD840000D918FF1F10
:101878000448854600F078F8004800474582FF1F75
:10188800C046C04670ECFF1F0A48483869460160E8
:101898000430F0C044464D4656465F46F0C030BC62
:1018A800F0BCF0C0F0BCF0C044380349034A954688
:1018B800084700000008FF1F3937FF1F3018FF1FB7
:1018C8000448804704480047FEE7FEE7FEE7FEE7D6
:1018D800FEE70000F533FF1F7918FF1F10B5044617
:1018E80005E00B780370401C002B00D0491C521EE9
:1018F800F7D2204610BD03460A780270401C491CE6
:10190800002AF9D118467047F0B51FB406460020E2
:1019180082B005464024019100901BE001992246BF
:101928000F46304600F042F8049A059B801A994108
:1019380010D310461946224600F028F8361A8F416F
:101948000197224601200021009F00F01FF8381857
:101958004D4100902046641E0028DFDC019B009862
:101968002946324607B0F0BD064C0125064E05E073
:10197800E36807CC2B430C3C98471034B442F7D3A8
:10198800FFF77AFF9C97FF1FEC97FF1F10B5202ADF
:1019980004DB0146203A9140002010BD91402023ED
:1019A8009C1A0346E3401943904010BD10B5202A05
:1019B80004DB0846203AD040002110BD0B46D34036
:1019C800D0402024A21A91400843194610BD70B592
:1019D8008C180578401C6B075B0F01D10378401CFD
:1019E8002A1106D10278401C03E006780E70401CCC
:1019F800491C5B1EF9D12B0705D40023521E0DD4B8
:101A08000B70491CFAE70378401CCB1A921C03E0C0
:101A18001D780D70491C5B1C521EF9D5A142D8D304
:101A2800002070BD03B40148019001BDB30E000051
:101A380003B40148019001BDE94C010003B4014819
:101A4800019001BD0D52010003B40148019001BD90
:101A5800BD1F021103B40148019001BD551C0211BC
:101A680003B40148019001BD5145021103B4014876
:101A7800019001BD1599021103B40148019001BDFF
:101A8800F598021103B40148019001BDB352010059
:101A980003B40148019001BD8B52010003B4014811
:101AA800019001BD810E000003B40148019001BD01
:101AB8006945021103B40148019001BDDD4C0211D2
:101AC80003B40148019001BDFD41021103B401486E
:101AD800019001BD4944021103B40148019001BDC0
:101AE8001939021103B40148019001BD191A0211F4
:101AF80003B40148019001BD751C021103B40148EB
:101B0800019001BD75A9000003B40148019001BD11
:101B1800F9A6000003B40148019001BDA1AF00007F
:101B280003B40148019001BD9DA9000003B4014818
:101B3800019001BDE927000003B40148019001BDEF
:101B4800852D021103B40148019001BDDD3F00005D
:101B580003B40148019001BD8944000003B4014861
:101B6800019001BD2144000003B40148019001BD6A
:101B7800750F000003B40148019001BDC95C010064
:101B880003B40148019001BD1907010003B40148DD
:101B9800019001BDBD0B010003B40148019001BDD6
:101BA800DD0C010003B40148019001BDDD0A01000C
:101BB80003B40148019001BD0134010003B4014898
:101BC800019001BD0934010003B40148019001BD31
:101BD8000534010003B40148019001BDF535010049
:101BE80003B40148019001BDF935010003B401486F
:101BF800019001BDE917010003B40148019001BD3E
:101C08006137010003B40148019001BD01D700000C
:101C180003B40148019001BD6DF6000003B401480A
:101C2800019001BD7912010003B40148019001BD82
:101C38004DF9000003B40148019001BDC1F700004F
:101C480003B40148019001BD413F000003B40148BD
:101C5800019001BD095A000003B40148019001BD7B
:101C68000966000003B40148019001BD8D8200009F
:101C780003B40148019001BDEDD6000003B401484A
:101C8800019001BD8914010003B40148019001BD10
:101C9800B110010003B40148019001BDE910010031
:101CA80003B40148019001BD9D6B010003B40148D4
:101CB800019001BD516B010003B40148019001BDC1
:101CC8005D6B010003B40148019001BDC96C0100BE
:101CD80003B40148019001BDED6B010003B4014854
:101CE800019001BD8512010003B40148019001BDB6
:101CF8008D11010003B40148019001BD4514010094
:101D080003B40148019001BD8111010003B40148E9
:101D1800019001BDF90D010003B40148019001BD16
:101D28000108010003B40148019001BDED0A01005A
:101D380003B40148019001BDF90C010003B4014846
:101D4800019001BD090E000003B40148019001BDD6
:101D58000189000003B40148019001BDE1AC000015
:101D680003B40148019001BD79B3000003B40148F0
:101D7800019001BDE53A010003B40148019001BD9D
:101D8800156B010003B40148019001BD496D0100C4
:101D980003B40148019001BD3D71010003B401483D
:101DA800019001BDED4A010003B40148019001BD55
:101DB800A54F010003B40148019001BD85520100FF
:101DC80003B40148019001BD1573021103B4014821
:101DD800019001BD6189000003B40148019001BD73
:101DE8005D45021103B40148019001BD0954021177
:101DF80003B40148019001BDB54C010003B401488A
:101E0800019001BD7D07021103B40148019001BD95
:101E18008D33021103B40148019001BDC17F021145
:101E280003B40148019001BD2580021103B40148A3
:101E3800019001BDCD44021103B40148019001BDD8
:101E48006144021103B40148019001BD45450211E6
:101E580003B40148019001BD997D021103B4014802
:101E6800019001BDBD7D021103B40148019001BD7F
:101E7800C552021103B40148019001BDC1280211E5
:101E880003B40148019001BD3522021103B4014891
:101E9800019001BD0533021103B40148019001BD51
:101EA800E532021103B40148019001BD212A021153
:101EB80003B40148019001BDF530021103B4014893
:101EC800019001BDF54E010003B40148019001BD28
:101ED800434D010003B40148019001BD492402119A
:101EE80003B40148019001BD6D1A021103B4014801
:101EF800019001BD591B021103B40148019001BDB5
:101F0800511A021103B40148019001BDF11A0211DE
:101F180003B40148019001BDD11C021103B401486A
:101F2800019001BDB30E000003B40148019001BD4A
:101F38003945021103B40148019001BDCD4C01009F
:101F480003B40148019001BDBD2A021103B4014840
:101F5800019001BD154D010003B40148019001BD78
:101F6800C90E000003B40148019001BD016C0100D5
:101F780003B40148019001BDBD5C010003B40148F0
:101F8800019001BDD1AE000003B40148019001BD2C
:101F9800C53F000003B40148019001BD350E0000A3
:101FA80003B40148019001BDA96F010003B40148C1
:101FB800019001BD4D74010003B40148019001BDB9
:101FC800810E000003B40148019001BD21A9000061
:101FD80003B40148019001BDADAE000003B401484F
:101FE800019001BDC56D010003B40148019001BD18
:101FF8000972010003B40148019001BD53B9000002
:1020080003B40148019001BD49CC000003B4014864
:10201800019001BDE9D4000003B40148019001BD5D
:1020280079D5000003B40148019001BDF9ED000025
:1020380003B40148019001BD6142000003B40148A6
:10204800019001BDADFF000003B40148019001BD3E
:102058005DB0000003B40148019001BDE1B000008B
:1020680003B40148019001BD8576010003B401481D
:10207800019001BD6D0B010003B40148019001BD41
:10208800C115010003B40148019001BDCD0C010048
:1020980003B40148019001BD71B0000003B40148C8
:1020A800019001BDD9B0000003B40148019001BD01
:1020B8005976010003B40148019001BDB9B0000090
:1020C80003B40148019001BD1DB0000003B40148EC
:1020D800019001BDAD0F010003B40148019001BD9D
:1020E8003D4B010003B40148019001BDCD3601000C
:1020F80003B40148019001BD8937010003B40148C8
:10210800019001BD61B5000003B40148019001BD13
:102118002D6C010003B40148019001BDC9A900005C
:1021280003B40148019001BD8311021103B40148B1
:10213800019001BDF110021103B40148019001BDE5
:102148008540010003B40148019001BDD94F010049
:1021580003B40148019001BD2D11010003B40148E9
:10216800019001BDD1A5000003B40148019001BD53
:102178001DBC000003B40148019001BD6DBC000006
:1021880003B40148019001BDB11F000003B4014828
:10219800019001BDD544010003B40148019001BD7F
:1021A8007997000003B40148019001BD691101004D
:1021B80003B40148019001BDE512010070B5044661
:1021C8000078012801D002280BD1114D227AA87875
:1021D80011183F2906D90020A87040210D48FFF7A3
:1021E80021FC70BD012A03D1616809780029F8D063
:1021F800084B61681818FFF71BFC207AA97840186B
:10220800A870054840210078FFF718FC70BD000051
:102218002898FF1F8CD6FF1F76BAFF1FFEB505460C
:10222800604800240090274601A95F48FFF70CFC8E
:10223800684680885D49884202D1FFF70BFCFEBDE5
:102248002878012809D0022807D00328F7D1584850
:1022580010210078FFF7F2FBFEBD009E297A603658
:10226800B07940183028F7D2FFF7FAFB00281FD0C2
:10227800FFF7FCFBFFF700FC287A012802D1B179AF
:1022880000290BD0811E0E2912D269680127021B72
:10229800521E8A5CFE2A07D0002709E06868007889
:1022A800FE2805D1012703E0641CE4B2022CEED31A
:1022B8003F4C20212078FFF7E5FB082220212078D9
:1022C800FFF7E6FB002FC7D10098B37967302A7A69
:1022D80069681818FFF7E2FBB079297A4018B071DD
:1022E800FEBD10B50021062004F078F90021062073
:1022F80004F0E8F80021062004F0B8FA10BD70B523
:1023080000252946062004F069F9062004F000FBA0
:10231800612004F033FC002838D10024062004F0A2
:10232800C1F9002804D0641CC82CF7DB002D2DD07F
:102338000024FF259135062004F0B4F900282DD09B
:10234800612004F047FCFFF7AFFBFFF7B3FB002861
:1023580003D000210846FFF7B3FB03F0DFF900289C
:1023680017D0FFF7B3FB0446FFF7B6FB104D8021EB
:102378002878FFF787FB002C09D020467D21C9006B
:102388004843024680212878FFF782FB70BD14205D
:10239800F4E7FFF7A7FBFFF7ABFB70BD641CAC428B
:1023A800C9DB70BD30DBFF1F0E030000FFFF00001C
:1023B80076BAFF1F0446FFF7A1FB0A49CA69402005
:1023C8008243CA612046FFF79FFB04F095FB05484E
:1023D8000021C0304160042101600120FFF79AFB11
:1023E800FEE7000000F0004070B5354A88B00128CB
:1023F80000D1344A4301344803AD1C18207E00281C
:102408000AD084208058C3B2002002E016782E54E7
:10241800401C9842FADB04E0107D012310786A46DC
:102428001073E069002805D06846017001950372B1
:10243800E169884708B070BDFEB50446224A4001EC
:102448008318105C191D1E4D002829D0187E0028FD
:1024580026D0987E002823D00878022820D18888A2
:102468004A888E68801A82B2102A00D91022002A5F
:1024780002D0012C17D01DE00120087000204880F0
:102488008880D869002806D010486D4607C807C557
:10249800D96968468847002C03D0192004F012FC3B
:1024A800FEBD0820FAE7074D04E04888431C4B802E
:1024B800305C28701046521E92B20028F5D1FEBD3D
:1024C8000040004000900040BCE2FF1F3097FF1F13
:1024D80010B5FFF713FB0D4804680C4A411780320A
:1024E80011600B490160002005F08AFCFFF718FB1A
:1024F800204610BD10B50446FFF700FB03480460F2
:10250800012005F07DFCFFF70BFB10BD00E100E0AA
:102518001000100010B5FFF709FB022805D00728A6
:1025280005D0122800D1022010BD142010BD224968
:1025380004200A6B521C0A6310BDF8B500260C462D
:102548000D46074640341FE0607CC1004A195368B5
:102558006A5C002801D0012100E000213846FFF71D
:10256800D9FF002802D001212176F8BD607CC00087
:1025780040194660607C401C6074207C401E2074BA
:102588000D48016A491C0162207C0028DCD1667470
:102598002676F8BD10B5094A5C219268414389182E
:1025A8005822525C012A05D1FFF7C7FF0248816A09
:1025B800491C816210BD00002CE8FF1FD0BCFF1F22
:1025C80010B5034A13210348FFF7B6FA10BD0000FF
:1025D8008C96FF1FC4B7FF1F10B5002413460028B0
:1025E80002D00224204610BD0A4619460148FFF7CA
:1025F8001FFAF7E7BBB7FF1F70B5242000F042F9B8
:10260800184D0024002000F053F9641CAC42F9D3A3
:102618000024FF2000F04CF9641CAC42F9D30024DC
:10262800002000F045F9641CAC42F9D3262000F0E4
:1026380029F90024002000F03BF9641CAC42F9D3CE
:102648000024002000F034F9641CAC42F9D30024C3
:10265800FF2000F02DF9641CAC42F9D300F04EFACB
:1026680070BD000035050000F8B5044616460F4653
:10267800242000F007F90025002C06D0012C20D0DA
:10268800022C07D0032C08D11BE0387800F010F991
:102698007F1C02E0FF2000F00BF97D2040016D1C3B
:1026A8008542E9D3262000F0EDF800257D277F013B
:1026B800002C08D0012C0BD0022C09D0032C0CD1F3
:1026C80008E00020E7E7307800F0F2F8761C04E034
:1026D800FF2000E0002000F0EBF86D1CBD42E7D3BE
:1026E80000F00CFA00F0A2FA00F001F8F8BD10B5FD
:1026F8000021142004F0F8F80021152004F0F4F863
:102708000021162004F0F0F80021112004F0ECF864
:1027180000210D2004F0E8F800210C2004F0E4F872
:102728000121072003F094FF0121072004F0DCF8C1
:1027380010BD10B50121142003F050FF0121152010
:1027480003F04CFF0121162003F048FF012111205E
:1027580003F044FF01210D2003F040FF00210C206D
:1027680003F03CFF0121072003F038FF0021072078
:1027780004F0BAF810BD000010B500210D2004F0D7
:10278800B3F8642000F048FE01210D2004F0ACF8F5
:10279800642000F041FE04F0CDFC31A002F00AFCF8
:1027A800122000F06FF804F0C5FC012000F06AF870
:1027B800F92000F07DF8002000F07AF8002000F001
:1027C80077F8112000F05EF8012000F071F844203D
:1027D80000F058F8002000F06BF80F2000F068F8BF
:1027E800452000F04FF8F92000F062F8002000F0D2
:1027F8005FF8002000F05CF8002000F059F83C2059
:1028080000F040F8052000F053F8182000F03AF8DE
:10281800802000F04DF8222000F034F8B12000F0BC
:1028280047F8212000F02EF8002000F041F8802021
:1028380000F03EF84E2000F025F8002000F038F8AF
:102848004F2000F01FF8F92000F032F8002000F0C7
:102858002FF8202000F016F804F06CFC10BD0000E2
:102868004550445F52657365745F616E645F496E7D
:1028780069742C6C63645F63686B737461747573DB
:102888000D0A000010B504460021142004F02CF8AD
:102898000021112004F028F8204600F08DFD0121C8
:1028A800142004F021F80121112004F01DF810BDB6
:1028B80010B504460021162004F016F80021142053
:1028C80004F012F80121112004F00EF8204600F05F
:1028D80073FD0121142004F007F80121112004F0F0
:1028E80003F80021162003F0FFFF10BDF8B50E46CF
:1028F8000446002504E0615D49A002F05BFB6D1C05
:10290800B542F8D348A002F055FBA17860780902D7
:10291800401880B28642207804D0022106F0E6F9F9
:102928000220F8BD0025414F222863D008DC10287A
:1029380011D0112816D0202820D0212806D150E007
:10294800302860D066285ED0692860D0052106F05E
:10295800CDF90520F8BD35480C38C56005614561DD
:10296800012005E031480C38C56005614561022049
:1029780038707D20800105F0DDFE4AE039780029B5
:1029880011D0E01CA119203978604A7F897F09029B
:10299800511889B23981C8290AD92078062106F048
:1029A800A5F90620F8BD032106F0A0F90320F8BD1B
:1029B8007A8906F0E3FD002808D006F0E3F92078CC
:1029C800042106F093F93D700420F8BD788939890F
:1029D800401880B27D2149017881884201D27D600A
:1029E800C7E706F0CFF93D702078012106F07EF99F
:1029F8000120F8BD06F0C6F90C480C38C560056121
:102A080045613D7005E00AA000F096F801E006F087
:102A1800C3F92078002106F069F90020F8BD00000C
:102A280025303278000000000D0A000010D7FF1F83
:102A38003500000010B5FFF77CFEFFF79DFE2F2044
:102A4800FFF720FF00F014F8014604A002F0B2FAE4
:102A580000F0ECF8FFF74BFE10BD000072656164F2
:102A680020646174613A307825780D0A000000000E
:102A780070B50021142003F037FF052000F0D6FCC4
:102A88000021162003F0AAFD0121112003F02CFFDC
:102A9800052000F0CBFC0021152003F025FF0520C0
:102AA80000F0C4FC00246806060E162003F0FAFDA8
:102AB800304305460121152003F016FF052000F0DC
:102AC800B5FC0021152003F00FFF052000F0AEFC37
:102AD800641CE4B2082CE6D3052000F0A7FC012111
:102AE800142003F001FF0121112003F0FDFE012154
:102AF800162003F073FD284670BD000010B5222093
:102B0800FFF7C0FECF20FFF7D3FE2020FFF7BAFE65
:102B180004F010FB01A002F04DFA10BD66756E635B
:102B28003A4550445F726566726573682C20646F1D
:102B38006E650D0A0000000010B50446FFF7F9FDA8
:102B48002078312809D0322810D0332819D03428D9
:102B580020D0352824D017A010E0FFF70DFE184A22
:102B680018490320FFF780FD17A007E0FFF704FED0
:102B7800134A14490220FFF777FD18A002F01AFA49
:102B880010BDFFF7F9FD0E4A0E490120FFF76CFD55
:102B980017A0F3E7FFF7F0FDFFF72EFD19A0EDE70B
:102BA800FFF7EAFD064A07490020FFF75DFD1BA075
:102BB800E4E70000636D64206572726F720D0A00AD
:102BC80010A8FF1F7098FF1F7265667265736820F2
:102BD80072656420656E640D0A0000007265667295
:102BE80065736820776869746520656E640D0A00EE
:102BF8007265667265736820626C61636B20656ECE
:102C0800640D0A00726566726573682033636F6CC1
:102C18006F7220656E640D0A0000000072656672AE
:102C280065736820656E640D0A00000010B51020F9
:102C3800FFF728FE0120FFF73BFE10BD70B5012409
:102C4800A407A36810252B43A360FEF77BFFA068A9
:102C5800A843A06070BD0000FFB5064601208007AC
:102C6800816881B01D46102211438160554F0020B4
:102C780038603046D730FEF76BFF9D208000344621
:102C88008059FF36CA3401360028306822462CD0D5
:102C98000121FEF763FF4B4F2078F863641C204640
:102CA800FEF762FF00BA000AE17800020843B86341
:102CB800241D2046FEF758FF00BA000AE1780002FA
:102CC80008437863241D2046FEF74EFF00BA000A29
:102CD800E178000208433863039802990002084328
:102CE800F860039F00243F1D0EE00021D1E728195A
:102CF800401CFEF739FF0102285D014332482018C5
:102D08000160241DA4B23F1F042FF0DA032F04D062
:102D1800022F08D0012F0CD011E02819FEF724FF4C
:102D28000102090A06E0291948780A7801021143C4
:102D380000E0295D244820180160241DA4B2002168
:102D4800214F02E0E0190160241DFF2CFADD1D4827
:102D58001E4A42600F220261012202604269002A73
:102D6800FCD04269930701D4520708D40120800798
:102D7800826810218A438260002005B0F0BD01609E
:102D88000020039A11E0C11909682954401C80B237
:102D98000B0A2B54401C0B0C80B22B54401C80B2E5
:102DA800090E2954401C80B2121F002AEBDC30683F
:102DB800401C306001208007826810218A438260AD
:102DC8000120DAE70000044000010440080F000079
:102DD800FFB5054601208007816881B01E46102294
:102DE80011438160504F002038602846D730FEF7E5
:102DF800AFFE9D2080002C464059CA3480350028FB
:102E0800E86F22462BD00021FEF7A8FE464F207817
:102E1800F863641C2046FEF7A7FE00BA000AE178B2
:102E280000020843B863241D2046FEF79DFE00BA41
:102E3800000AE178000208437863241D2046FEF763
:102E480093FE00BA000AE178000208433863039849
:102E5800029900020843F8600024039F0EE0012154
:102E6800D2E73019401CFEF77FFE0102305D0143B6
:102E78002E4820180160241DA4B23F1F042FF0DA49
:102E8800032F04D0022F08D0012F0FD014E03019DF
:102E9800FEF76AFE0102090A09E031194878097843
:102EA8000002084321496118086003E0315D1F48AA
:102EB80020180160241DA4B200211C4B02E0E01878
:102EC8000160241DFF2CFADD0F2217481202426010
:102ED8000F220261012202604269002AFCD00160CF
:102EE800039A0020121D11E0C11809683154401CD2
:102EF80080B20C0A3454401C0C0C80B23454401C70
:102F080080B2090E3154401C80B2121F002AEBDC3B
:102F1800E86F401CE86701208007826810218A4317
:102F2800826005B0F0BD00000000044000010440CC
:102F3800F8B5FEF71FFE644908600420FEF720FE7E
:102F4800FEF724FE0546C00715D06049002008603A
:102F58005F480078012811D0032813D0042815D021
:102F6800022817D0052819D0FEF716FE594F044637
:102F780001281AD01EE0FEF715FEF8BD2846FEF718
:102F880017FE0EE02846FEF719FE0AE02846FEF76F
:102F98001BFE06E02846FEF71DFE02E02846FEF767
:102FA8001FFE40B20128E8D05FE03878052809D034
:102FB800062807D04848494E0078022806D0052838
:102FC80004D009E0284604F045FF4EE0002C06D066
:102FD800022808D0052806D0022C0ED005E0284685
:102FE80004F05CFF41E0022C02D0012C13D016E063
:102FF800B17B002907D0022905D03978052906D0E8
:1030080001281AD00BE0284604F054FF18E028469F
:1030180004F02CFF14E0012807D0062809D0284620
:10302800FEF7E4FD022C0BD01FE0284604F05AFFFF
:103038001BE0284604F04AFF17E0284604F022FF68
:103048003878012811D168050FD4707BC10701D0E9
:10305800252004E0800701D5262000E02720317DC7
:10306800814202D93220FEF7C7FD1B4C2078042884
:1030780004D003281AD007281DD020E0FEF7C2FD8F
:1030880000281CD0FEF7C4FD5820FEF7C7FD2078A5
:10309800002801D0022020701148407800280ED066
:1030A800207800280BD10320207008E00D48807C90
:1030B800FEF7BAFD03E00C48807BFEF7BBFD03205A
:1030C800FEF75EFDF8BD00009C09FF1F9809FF1F71
:1030D8009009FF1F1C09FF1F2309FF1FA60BFF1FD5
:1030E80070BBFF1FBC0BFF1FD40BFF1FA121890062
:1030F80048430749096840180521C901401805498E
:10310800C0780978884201D30020704701207047B1
:103118003409FF1F1509FF1FF8B50C4610490C426A
:103128001AD1610518D500250E48AF003E187178F0
:10313800012909D1C15D7088FEF782FD0A487080B7
:1031480008490020C85570706D1CEDB2102DEBD3E6
:10315800012080026040F8BD2146FEF777FDF8BDEA
:10316800DE09000060E7FF1FFFFF000010B5012027
:1031780005F0ECF9FEF770FD0446002005F0E6F9CD
:10318800204610BD70B50446FEF76CFDE21DFF3207
:10319800FA32D06F0021000C0004D0671046803846
:1031A8008B001B19FF330133C56A491CDD660829EA
:1031B800F6DB00218B001B19FF338133C56A491CDC
:1031C800DD600829F6DB0120D06470BDFEB5FEF78E
:1031D800D1FC61490861C81FF9388078A1218900AC
:1031E80048435E4909684418FEF788FC5C48C06893
:1031F800416D0091866D5B480078814201D80029B5
:1032080000D1009058480078864201D8002E00D19D
:103218000646E51DFF35FA35686A401C6862534862
:103228000068002808D03D21095D49000818FF30D2
:103238004130418E491C418627462037387FB87770
:10324800FEF716FD287B05F0F1FB287BFEF716FD3F
:10325800FEF71AFDFEF71EFDE06AFEF721FDA06AE3
:10326800FEF724FD787FFEF727FD787FFEF72AFD1D
:103278005820FEF7D3FCFF20FEF72AFD60790028CE
:1032880002D1E86C002852D0B87C3949384A484302
:103298006169490041183248C068C06F0818E18E5A
:1032A8005143344A8918344A914200DD114681421B
:1032B80000D20846FEF712FDE08E2D494843FF2153
:1032C800DF31095B421A2648C168FC204058896CE6
:1032D800101A814200D20846FEF706FD287BFEF749
:1032E80009FD0420FEF70CFD0720FEF70FFD02A9DB
:1032F8000098FEF711FD694609890127FF34C2B21B
:10330800213400970191F3B2217D3020FEF70AFDA8
:103318001A4C2678287B2070FEF70AFD18480760AB
:103328002670FEF7FDFB1420FEF72AFCFEBD207870
:10333800002807D0A1696069401841000848C068A2
:10334800026904E006486269C068C1684900520021
:10335800C06C89180818ADE7300EFF1F3409FF1F2D
:1033680070BBFF1F1509FF1F1609FF1FBC09FF1FB0
:10337800710200001EFBFFFFF82A0000490AFF1F28
:103388009809FF1F10B500231A4604E0845CE3186F
:10339800521CDBB2D2B28A42F8D3D843401CC0B226
:1033A80010BD0000C106C90E01208840014908600F
:1033B8007047000000E100E070B5054600240021D8
:1033C800152003F091FA280601D5012100E000211B
:1033D800162003F089FA6806050E0121152003F06E
:1033E80083FA641CE4B2082CE9D370BD0249014891
:1033F8000860704740787D016CBBFF1F10B5054819
:103408000021C160016141610821202005F06EFCA6
:1034180010BD000004D7FF1F10B57D21C003C900EF
:10342800FEF78CFCFEF790FC10BD000030B5084D8F
:10343800E96A084C8908621AA31AE96A8908611AB4
:10344800914201D3891A00E059188142F5D930BD5B
:1034580000100040FFFF3F000FB47CB50C0009AD21
:1034680001D0611E00E0002101910090074B6A46DF
:103478002946089800F07AFA002C02D0009A002118
:1034880011707CBC08BC04B018470000253EFF1F23
:10349800002805DBC106C90E0120884001490860E3
:1034A8007047000000E100E0002805DBC106C90EF6
:1034B80001208840014908607047000000E100E0F1
:1034C8008307FF22DB0E9A408907090E99400028DE
:1034D80008DB830809489B001818036893430B43CB
:1034E800036070470007000F0838830804489B00F2
:1034F8001818C36993430B43C361704700E400E0A5
:1035080000ED00E08307FF22DB0E9A408907090ED1
:103518009940002808DB830809489B0018180368AD
:1035280093430B43036070470007000F0838830874
:1035380004489B001818C36993430B43C361704741
:1035480000E400E000ED00E08307FF22DB0E9A4074
:103558008907090E9940002808DB830809489B0061
:103568001818036893430B43036070470007000F64
:103578000838830804489B001818C36993430B4311
:10358800C361704700E400E000ED00E08307FF221C
:10359800DB0E9A408907090E9940002808DB83084A
:1035A80009489B001818036893430B43036070474E
:1035B8000007000F0838830804489B001818C369DF
:1035C80093430B43C361704700E400E000ED00E063
:1035D800EFF30380704702E008C8121F08C1002AF1
:1035E800FAD170477047002001E001C1121F002A7C
:1035F800FBD170470248C069002800D000477047D7
:103608004003FF1FFFB5074601208007816883B08C
:103618001C4615460291466939490968384A4900E5
:10362800490801910021C94380321160354A126866
:10363800520052080092334A803211603249816048
:10364800212141611F20FFF7ADFEE20780212F48AD
:10365800002A02D042680A434260A20704D54268A1
:10366800FF2301331A434260002D0CD02A07520F62
:1036780004D00122144342680A43426041682A0781
:10368800D20B1143416021494039CA6B5201520F94
:10369800BA4206D0CA6B07231B069A433B061A4355
:1036A800CA63CA6B5307049A5B0F934205D0CA6B6F
:1036B800049BD208D2001A43CA634168FF228132B0
:1036C8009143E2011143416041680F225203914343
:1036D8006A03114341600C480299014380078160E5
:1036E80001210E43466141000548803001600549CB
:1036F8000098086002490198086007B0F0BD000012
:1037080000E100E000E200E00100080040F00040B5
:103718001CB569460120FEF71DFB012000900348F7
:10372800019001F0CBFD01201CBD0000BB0B000087
:1037380008B5334F0446F86800250678E1202B4683
:10374800122205214002FEF70BFB2EA0FEF70EFB0E
:10375800206B0090214624310EC930A0FEF706FBED
:1037680020690090211D0EC937A0FEF7FFFA206AD4
:103778000090214614310EC93EA0FEF7F7FAE06B1F
:10378800009047A0A36B2268616BFEF7EFFA4FA089
:10379800216CFEF7EBFA5148416851A0FEF7E6FAB2
:1037A80053480178B14202D2B8688A008558514816
:1037B8000E460768FEF7E0FA00903B462A46314677
:1037C8004DA0FEF7D3FA59A0FEF7D0FA614E25684E
:1037D800354000242919B1420BD8200702D15EA038
:1037E800FEF7C4FA29595EA0FEF7C0FA241DFF2C83
:1037F800F0DD5D480068002800D08047FEE7000043
:103808000000FF1F0A5B48617264206661756C7472
:103818002068616E646C65725D0A000052302D523A
:103828003320202020202020203D203078253038CB
:10383800782030782530387820307825303878204E
:103848003078253038780A0052342D52372020201D
:1038580020202020203D20307825303878203078EE
:103868002530387820307825303878203078253061
:1038780038780A0052382D5231312020202020205B
:10388800203D203078253038782030782530387839
:1038980020307825303878203078253038780A007C
:1038A8005231322C53502C4C522C5043203D203056
:1038B80078253038782030782530387820307825C9
:1038C800303878203078253038780A005053522024
:1038D800203D2030782530387820200000ED00E0A9
:1038E80049435352203D203078253038780A00006B
:1038F800B408FF1F6008FF1F5B4F53414C5D6964AC
:10390800782025642046756E632030782530387815
:10391800207379737469636B20253038782072744A
:103928006320253038780A20000000002D2D2D2D29
:103938002D2D2D2D2D2D2D64756D702073746163C3
:103948006B2D2D2D2D2D2D2D2D2D2D2D2D2D2D0A84
:1039580000000000FCFFFF1F0A5B253038585D009F
:10396800253038782000000070BAFF1FFFB591B0ED
:103978000F460546002606E025280AD0149A139912
:1039880090476D1C761C28780028F5D1304615B074
:10399800F0BD002400940121F34A029400E004439E
:1039A8006D1C2B780846203B98401042F7D12878A8
:1039B8002A280ED00222287801463039092915D83C
:1039C80000990A2359433039401814436D1C00905C
:1039D800F1E701CF0090002805DA012040030443F5
:1039E800009840420090022004436D1C28782E283D
:1039F80015D10420044368786D1C2A280AD101CF08
:103A08006D1C02900BE002990A225143303940188C
:103A18006D1C02902878014630390929F3D9287895
:103A28006C2810D006DC4C281AD068280ED06A28DA
:103A380017D104E0742813D07A2812D110E001209D
:103A4800400504430CE00121090501E003210905B3
:103A58000C436978814203D10120000524186D1CAC
:103A68006D1C28786E281ED00CDC632831D004DC4D
:103A780000288BD0582811D1B2E064287BD069285F
:103A88000CD178E073282DD004DC6F2870D0702812
:103A980004D1A7E075286CD078286BD0149A1399B4
:103AA8009047761C62E06002400F022807D0032886
:103AB8000AD0042838680AD006603F1D56E03868E6
:103AC800F11706604160F8E738680680F5E7067088
:103AD800F3E73878694608740020487404A803900E
:103AE800012003E0386803900020C0433F1D6107B0
:103AF8000FD5002101E00199491C029A01919142D8
:103B080013DA8142F7DB019A0399895C0029F2D123
:103B18000BE0002101E00199491C01918142FADB87
:103B2800019A0399895C0029F5D101990098139AA3
:103B3800401A00902146149B00F03CF90199801925
:103B4800461807E0039803990078491C0391149AD2
:103B5800139990470198401E0190401CF2D12146CC
:103B6800149B139A009800F015F986196D1C0AE742
:103B780041E033E034E00A2000210490059160021E
:103B8800410F022905D001CFC2179446032905D059
:103B980007E0FF1DFF08FF0003CF06E000B2C217D1
:103BA8009446042902D140B2C1178C4600226146CE
:103BB800944506DA0A460021404291418C462D215F
:103BC80002E0210504D52B216A461176012103E084
:103BD800E10701D02021F7E7019155E00A200BE029
:103BE800102009E01020049000210420044308203C
:103BF8000591029003E008200021059104906002DD
:103C0800410F022905D001CF00229446032906D08E
:103C180006E0FF1DFF08FF0003CF8C4603E080B2DB
:103C2800042900D1C0B20021019121072CD529789F
:103C38000391702906D0049A1021059B4A401A4323
:103C480005D00EE040216A461176012108E0614660
:103C5800014306D030216A46117603995176022134
:103C68000191049A0821059B4A401A430CD16146E8
:103C7800014301D1610707D530216A461176012138
:103C880001910299491E02912978582904D037A137
:103C980003910FA90F910DE039A1F9E76146059B42
:103CA800049AFDF731FE039B8C469B5C0F9A521ECB
:103CB8000F92137061460143F0D10F9807A9081AB3
:103CC80020300390600704D5012000048443029843
:103CD80001E0012002900399884201DD401A00E0CA
:103CE800002041180290019809180098401A009085
:103CF800E00306D42146149B139A009800F05AF862
:103D080086190020049008E006A9085C149A139903
:103D180090470498401C761C049001998842F3DB74
:103D2800E0030CD52146149B139A009800F042F842
:103D3800861904E0149A302013999047761C02994A
:103D4800481E02900029F5DC08E00F980F990078CA
:103D5800491C0F91149A13999047761C0399481E91
:103D680003900029F1DCFAE60928010030313233EA
:103D7800343536373839616263646566000000009F
:103D88003031323334353637383941424344454689
:103D980000000000F8B5044600251E4617468804B2
:103DA80004D405E039462020B0476D1C641EF9D5BF
:103DB8002846F8BDFFB50446002581B01E46C80355
:103DC80001D5302700E02027880404D505E03846CF
:103DD8000399B0476D1C641EF9D5284605B0F0BD9F
:103DE8001CB569460320FDF7B5FF684603F0CAF91C
:103DF8000098002802D10198002800D001201CBD9D
:103E080010B501F0D1F9FFF783FC002802D0024871
:103E1800804710BDFEE70000E1A200004A68002AC2
:103E280006D00A68531C0B6010704868401E486032
:103E380070470000FEB50021184D2026174C803D24
:103E480000280091019111D0002302221946352043
:103E5800FDF798FF20698007FCD400960098411E62
:103E68000091FBD228680028FCDA10E00023022227
:103E780019460520FDF786FF20698007FCD40096C7
:103E88000098411E0091FBD228680028FCDA012125
:103E980002A8FDF77DFF6846007AFEBD80C8004095
:103EA8000A4610B50146002003F0B4F810BD000022
:103EB8000E480D4981600021C1601B225203026136
:103EC8004D22D20342610A4A82610A4AC2610162F2
:103ED8004162C1620163416304488030016241620A
:103EE8008162012181637047000C000600F00040E8
:103EF80040400601ABFF010010B5FDF74FFF012060
:103F0800FDF752FFFDF756FF002010BD10B50B4915
:103F1800002308798A78904200D10B710879012230
:103F2800CC688240224206D0098948430449401897
:103F380000F09EF810BD8B7110BD000014BBFF1F70
:103F4800F0DCFF1F10B5002001F0D0FE01F052FE9A
:103F580010BD0000014800787047000014BBFF1F27
:103F6800014840797047000014BBFF1F0148807961
:103F78007047000014BBFF1F7CB501F051FE002400
:103F88006846047013490191009801F077FE124DBC
:103F9800EC702C71EC606C716C61012189020F4826
:103FA800AC61FDF73FFDFDF70BFF0D4900280FD071
:103FB8000C4828610C480222046002714471847123
:103FC80081600473447384730121046101757CBDAD
:103FD8002961EFE72151FF1F14BBFF1FF0DCFF1F12
:103FE8000040004000900040F0E0FF1F0149487089
:103FF8007047000014BBFF1FF0B504220024950190
:10400800F426144920270300FDF7E0FE051E040BE3
:1040180013181E00012008708020088148700820AD
:1040280005E0022008704020088148701020887040
:10403800F0BD032008700F814F708F700A70102038
:10404800088148708F70F0BD0C700D814E708A70B9
:10405800F0BD000014BBFF1F014948717047000004
:1040680014BBFF1F014988717047000014BBFF1F74
:1040780070B505460F48104C40782060FDF7ACFE3F
:10408800002801D0256100E0A5600B49002001F05F
:1040980099FC0406240E08D0002001F027FE2146D2
:1040A80006A000F087FF022070BD002001F004FE8A
:1040B800002070BD14BBFF1FF0E0FF1F5B6572722C
:1040C8005D7265743A25640A000000007CB501F051
:1040D800A7FD00246846047013490191009801F077
:1040E800CDFD124DEC702C71EC60AC716C6101214E
:1040F80089020F48AC61FDF795FCFDF761FE0D499B
:1041080000280FD00C4828610C4802220460047172
:104118004471847184600273447384730161012162
:1041280001757CBD2961EFE74D51FF1F14BBFF1FCF
:10413800F0DCFF1F0040004000900040F0E0FF1F4F
:1041480070B5124CE078A178884201D10020E07067
:10415800C1B2012528468840E168084205D0A06917
:10416800401CA0610AA000F025FFE078218948439F
:104178000C494018FFF77CFF6079002805D1E068FA
:10418800002802D0657100F00FF870BD14BBFF1F46
:1041980052782044617461206F766572666C6F771F
:1041A80021000000F0DCFF1FF8B51A4C002520792B
:1041B800A178884200D12571207901263146E2682C
:1041C8008140114224D02189134F4843C119607896
:1041D800FDF708FE00280DD0207921894843C11930
:1041E8006078FDF7FFFD002804D0A069F1070843B7
:1041F800A0610DE0FDF782FC2079E1688640B143BB
:10420800E160401C20716069401C6061FDF788FC1A
:104218006571F8BD14BBFF1FF0DCFF1F10B5034C20
:1042280003A0A16900F0C6FE606910BD14BBFF1FA2
:104238006572723A307825780A00000070B5044635
:10424800C0B00D461AA000F0B5FE69461B48FDF740
:10425800FBFB142D01D9142100E029466846C180D2
:10426800002C12D02A46214601AE02A8FDF716FC02
:1042780004F054FD6846002201A9008800F0C6F940
:1042880000200F49044688700AE00020C04340B06F
:1042980070BD301901790BA000F08CFE641CA4B22B
:1042A800AC42F6D309A000F085FE0020EFE700003D
:1042B8006E6F746966793A0D0A0000000E030000FB
:1042C800A4BAFF1F30582530325820000D0A0000CC
:1042D80000B5692187B0C900144803F06FFD0121BA
:1042E80009031348FDF784FD0121032003460A460C
:1042F800019100900F491048FDF780FD104A0F4BBF
:1043080011465C3908460593103802AB07C30B49C0
:10431800883A091F881F0191831C0090114628398B
:104328000120FDF771FD07B000BD000044D3FF1F59
:1043380044C3FF1FB4BFFF1FC0C0FF1F2098FF1F4B
:104348009CBDFF1F10B504460848FDF763FD00211A
:104358000748C943018000218170064A04211430AE
:10436800FDF7EAFB024908394C6010BD8143FF1F85
:10437800A4BAFF1F9896FF1F084A10B590420BD0A9
:10438800012906D0022907D10121FDF749FD00289E
:1043980002D103490020887010BD0000FEFF000014
:1043A800A4BAFF1F30B599B00546382102A8FDF719
:1043B80039FB8A4CA570FDF777FBFDF77BFB0028DE
:1043C8000AD000210846FDF77BFB02A8FDF72EFD69
:1043D8000E98002804D00AE002A8FDF72DFDF7E7A3
:1043E80000210846FDF76CFB02A8FDF71FFDFDF74D
:1043F80029FD00280ED00C20FDF72AFD0120FDF72D
:104408002DFD0020FDF72AFD0120FDF727FD0020E6
:10441800FDF724FDFDF728FD6846407F00906846BB
:10442800037F6FA2052102AD0F30FFF715F808A82A
:1044380082790AA90231E81C00F05AFB67496846EC
:10444800008E103100F024FB08A880790300FDF7E6
:10445800BDFC0403050709033F2004E01F2002E018
:104468000A2000E0012004F053FB6A46918E508E2A
:1044780004F0A4FE06211F20FDF7FCFC012010AA71
:104488001070107107201075002010836A46518D36
:1044980010AA11826A46918D11809080D08D10AA41
:1044A800908152A003C86A4618911790107A002884
:1044B80007D0022010A9087212AA01214D48FDF761
:1044C800DFFC4C4817AA0621801CFDF7D9FCC32045
:1044D80015AA01218000FDF7D3FC464810AA012146
:1044E800001FFDF7CDFC434816AA0221C01EFDF7A8
:1044F800C7FC6120404A1821C000FDF7C1FC3E4AB4
:104508003C4818321921801EFDF7BAFC312011AA47
:1045180001210001FDF7B4FC364814AA0221083035
:10452800FDF7AEFC33486A4602210930FDF7A8FCC6
:10453800304801AA02210A30FDF7A2FCC52013AABF
:1045480002218000FDF79CFC2448E91C1030FDF78F
:10455800D2F9224A152110320020FDF797FC4B258D
:104568006D0129460620FDF785FC29460720FDF741
:1045780081FC29460820FDF77DFC29460920FDF726
:1045880079FC0025ED432846FDF786FC2846FDF713
:1045980089FCFEF715F81948FFF7D4FEFDF79CFAD9
:1045A8000F98002817D002467D20C0004243802182
:1045B800A078FDF76DFA124A1249612002F038FB23
:1045C800612002F007FB0121A078FDF737FAFEF71A
:1045D80031FA19B030BD0C4AE9E7000074BAFF1F80
:1045E80025303258253032580000000001020304FB
:1045F8000506000009030000FFDAFF1FAD84FF1F56
:104608000723FF1FEB22FF1F1027000010B5074AE2
:104618009278D20707D0054A1432528D0A800022B8
:10462800FDF746FC10BD122010BD0000A4BAFF1F04
:1046380002488078012800D000207047A4BAFF1FE4
:10464800F8B5944D0C46080409D5A878FDF736FC52
:10465800002801D0FDF738FC0120C00315E1E00770
:104668000127002806D08B480830FDF733FC204688
:104678007840F8BDA00703D5FDF732FC022004E11D
:10468800600708D5684607706A4601218248FDF729
:10469800F7FB0420F9E0200703D5FDF727FC0820E5
:1046A800F3E0E00603D5FDF727FC1020EDE0A006B7
:1046B80003D5FDF727FC2020E7E060060026002848
:1046C80017DA774D7548297840182038C07F0D28AB
:1046D80003D00A2801D0202809D11A23714A6F482B
:1046E800FDF716FC2E7040216C48FDF717FC4020A2
:1046F800CBE0200620D5FDF7B3F9054601466AA0B0
:1047080000F058FC002D08D0012D0AD0022D08D049
:1047180069A000F04FFC8020B7E0612002F05AFA4F
:10472800F9E7FDF78FFB002802D00020FDF796FB84
:10473800612002F0C7FAEEE7E00526D58021A878C7
:10474800FDF7A0F9FDF7CEF904F04CFDFDF7D0F91F
:10475800FDF778FB002806D0FDF782F9002802D182
:104768000220FDF77BFBFDF7DFFB00280AD0FDF7F1
:1047780033FB002804D0FFF7FFFBFFF7E1FC01E063
:10478800FFF7A4FCFF2001307FE0A00529D5FDF745
:104798009DF90646FDF75EF9FDF7C6FB002801D036
:1047A800FFF7D0FBFDF798F97D20C0003246424361
:1047B8008021A878FDF76CF9FDF744FB00280BD0A1
:1047C800FDF74EF9002807D101210903A878FDF764
:1047D80059F90020FDF742FB04F0D4FA0120400209
:1047E80053E0600506D5FDF77DF904F097FA01203E
:1047F80080024AE0200504D500F0F6FA0120C00244
:1048080043E0E0041AD5E878002812D00120FDF72B
:1048180025FBEE70012636033146A878FDF732F9FC
:10482800FF22C0323146A878FDF732F920467040A1
:10483800F8BD0020FDF712FBEF70EBE7A0041BD5D5
:10484800FDF7CAFA00280BD0FFF77AFCFFF788FBC0
:1048580000280ED10120FFF7FFFBFFF7A5FC08E0B9
:10486800FFF784FB002804D10120FFF7FBFBFFF7CB
:104878004DFB0120400308E0600408D511A000F0BA
:1048880099FBFEF7BBFD012080036040F8BD0020C6
:10489800F8BD000074BAFF1F050300008CD6FF1F87
:1048A8002A98FF1F4099021170775F6D6F643A2054
:1048B8002530780A000000004552525F50575F4D7E
:1048C8004F440A004255505F4F53414C5F45565480
:1048D8005F5452414E534D49545F54494D454F55CD
:1048E800540A0000F8B5087A00261F4615460C46FB
:1048F800C00601D50820F8BD022211496068FDF7FD
:1049080019FB002807D00220387002462846E168C3
:10491800FDF78EF810E002220A496068FDF70AFBED
:1049280000280BD006203870064800210A30425C67
:104938006A54491C0629FADB3046F8BD0A20F8BD3E
:10494800409B02119EBAFF1F7FB504461B4D030012
:10495800FDF73CFA0631041F31312331C12002A989
:104968008000FDF771F86946087A0870487A48703F
:10497800887A887000200871C870487BC871087BE5
:104988008871C87A48716A4608210020FDF724FE1C
:1049980011E00BA000F00EFB0DE008490C48891D42
:1049A800FDF752F8FF210131A878FDF747F8E988AB
:1049B80008A000F0FFFA6C707FBD000074BAFF1FFA
:1049C8006164766572746973696E67210A00000014
:1049D8000E030000636F6E6E656374656420686122
:1049E8006E646C655B25645D210A0000FFB5087A7A
:1049F800002583B016460C46800602D5082007B06D
:104A0800F0BD022220496068FDF794FA1F4F002884
:104A18001CD001210C980191009032462146069B3A
:104A28000398FDF78DFA05002AD1384614384168F5
:104A3800002925D072783078120280180004000C02
:104A480002D00220387019E00120FBE70F4902224A
:104A580012396068FDF76EFA002813D00B49608997
:104A68000831498D88420DD1084814384168002919
:104A780006D003203870069878807E6003488847FF
:104A88002846BCE70A20BAE7409B0211B0BAFF1FCC
:104A980070B50D460646192200211348FDF756FA4F
:104AA800114C02202070012161700621A1700321A0
:104AB800E17020716671300AA0711120E071FF2049
:104AC80020720A4882886272100AA0722846FDF78E
:104AD80043FAC2B20D2A00D90D220348E2720C3003
:104AE8002946FCF7FBFE70BD17DBFF1F74BAFF1FDA
:104AF800F7B50E461300FDF769F904030507090326
:104B08003F2404E01F2402E00A2400E001241822C4
:104B180000211348FDF71AFA114D0E2028700920BC
:104B2800687002270098FDF717FAC2B20D2A00D95B
:104B38000D22A81C0099FCF7D1FE0520E87312206D
:104B48002874307868743088000AA874B078E874DB
:104B58007088000A28756F750A20A875EC75FEBD67
:104B6800FFDAFF1FF8B54E484068C043000603D57A
:104B78003C20FDF7E9F8F8BDFDF7FEF8484D009038
:104B8800803D28680121890408432860E86945496F
:104B980008402830E8610320FDF7D6F8686AC703A3
:104BA800FF0B0320FDF7D0F8686AC403E40B032069
:104BB800FDF7CAF8686AC603F60BA74201D3204678
:104BC80000E03846B04200D33046A74201D3394608
:104BD80000E02146B14200D23146334ABA18C32A0E
:104BE80026D2314BDB439C4222D9304A94421FD211
:104BF8009E421DD996421BD2081A132818D228485B
:104C080042680C218A4342604168FF2212029143A4
:104C180041601420FDF798F821488038416AC2693C
:104C2800C903C90B08239A43C26121488162F8BDB0
:104C3800274634460320FDF787F819488038406A2C
:104C4800C603F60BFDF798F80099884201D3401A7D
:104C580001E0401A401E17498842AED31048416807
:104C680009040D0E4168FF22120291436A1C1206C4
:104C7800120C1143416041680C229143091D4160A7
:104C88000020FDF76FF9642D02D30548002141602B
:104C9800062D00D306250748A840FDF78BFB8CE7B7
:104CA800C0F0004000FEFEFF91FCFFFF3204000050
:104CB80070BBFF1FE40C0000F8B53D4840683C4C51
:104CC8000006803C8021002806DB6068084360609D
:104CD8000320FDF739F8F8BD364D00202863206819
:104CE8000122920410432060334F606880210843FA
:104CF80060600320FDF728F8286B401C2863606873
:104D080001210904084360600026E0692B49384006
:104D18004018E0610320FDF717F8606AE169C003F5
:104D2800C00B08229143E161A96A062251438142DE
:104D380001D3091A00E0411A3C2909D2E26901218C
:104D480009048A43E26162688A436260E862F8BDE6
:104D5800761CF6B2052ED8D3E16901200004814300
:104D6800E161616881436160286B2E46052807D39D
:104D7800BFF34F8F13491248C860BFF34F8FFEE748
:104D880060688021884360600320FCF7DDFFE069EC
:104D980038402830E0610320FCF7D6FF606AC00382
:104DA800C00BB062E16908208143E1619DE7000022
:104DB800C0F0004070BBFF1F00FEFEFF280001008E
:104DC8000400FA0500ED00E001680A0508D1103179
:104DD800044A016092781203914201D3891A016052
:104DE8007047000064BBFF1F0149002088707047AE
:104DF800A4BAFF1FFEB504461948C16B194D4907EF
:104E0800C90E6958164AC90B403200911168490306
:104E180004D4116801239B0419431160C16B182243
:104E28001143C163C06B104F4001400F0190B84758
:104E380006462046B84706430C49F007C00F884786
:104E48000346A0000A49285808600098411E0091AE
:104E5800FBD2324621460198FEF7D4FB0020FEBD66
:104E680000F00040E07B0100018C0000A98A0000EE
:104E78007408FF1FF8B506460120FCF765FF214DB1
:104E8800214F2878214C002816D0FDF771F82060B2
:104E980002F048F9002802D003F046FC78611C496A
:104EA8008B6A1C4803601C48C76A1C4A12689742F0
:104EB80005D2C06A101A03E0F8684069E7E70020E5
:104EC800174A10609819C862486A2922D203104309
:104ED80048622878002812D012480178022908D0A0
:104EE8000178012908D000780328206808D0C01E5E
:104EF80004E020680F3801E0206808382060F8BD19
:104F0800401FFBE71C09FF1F70BBFF1FE408FF1FC2
:104F180000F00040340AFF1F00100040180AFF1F6D
:104F28001C0AFF1F4A0AFF1F10B51E48A1218078DE
:104F3800890048431C49A12309689B004418912112
:104F480089000A591749002089785943164B1B686C
:104F5800C918C98E002A1ED01448C068FF30013015
:104F6800012A0CD0114BDB68FF338133062A08D89D
:104F78006479012C05D00D4C5234125D04E0006BAD
:104F880009E00A4A543212791B6D006B5A430B0A26
:104F98005B1C5A431018064AC9085143814200D87D
:104FA800084610BD300DFF1F3409FF1F70BBFF1FDF
:104FB800530700000FB410B503AA0448029903F080
:104FC8000DF810BC08BC04B018470000A93EFF1F2C
:104FD80038B5034B00240FCB009401F0E9FF38BD2E
:104FE8003C97FF1FF8B5496894460A7849780698AF
:104FF800090251188FB2444A11210025079CBE1A94
:10500800091A974243D009DC404ABA1813D0012A3A
:105018001CD0022A25D0032A08D12EE0012E40D028
:10502800022E48D0032E50D0292E5AD000201880A6
:105038000A252846F8BD082855D20821091AA14290
:1050480000D80C46A2B21A80314957E00C284AD23F
:105058000C21091AA14200D80C46A2B21A802D4987
:105068004CE00D283FD20D21091AA14200D80C4668
:105078002849A2B21A800D3140E0112833D2A1424A
:1050880000D80C462349A2B21A801B3136E01128F9
:1050980029D2A14200D80C461E49A2B21A802D314D
:1050A8002CE011281FD2A14200D80C461949A2B2FF
:1050B8001A803F3122E0112815D2A14200D80C46AF
:1050C8001449A2B21A80513118E00E280BD20E21D1
:1050D800091AA14200D80C460E49A2B21A806331BF
:1050E8000CE0072801D30725A3E70721091AA142E5
:1050F80000D80C460649A2B21A80C91F0918604692
:10510800FCF796FC95E70000272A0000DDD5FFFF95
:10511800BBB7FF1F1896FF1F10B508490122C878B2
:10512800CB6882401A43CA60401CC87004480121F9
:1051380049030078FCF782FC10BD000014BBFF1F78
:1051480076BAFF1F10B50A4801220179C3688A4060
:105158009343C36000228271491C01714169491C53
:1051680041610448012149030078FCF767FC10BD40
:1051780014BBFF1F76BAFF1F10B5032000F0CAFB4F
:1051880002211320FEF702FA1320FEF78DF90449D5
:105198000248C86003490120886110BDC557FF1F38
:1051A800C003FF1F800301400349002048610349F1
:1051B800086048607047000040F0004040F100403F
:1051C8001CB52748A12180788900484325490968EA
:1051D80044182548406A80B2009091208000015907
:1051E80000290FD02148C068FF30013001290ED0B6
:1051F8001E4AD268FF32813206290AD81B4B523325
:10520800C95C09E0608CE18E484340100DE0006BFA
:105218000AE0164954310979126D006B5143E28E48
:10522800120A521C51430818400000994018009077
:10523800FFF77AFE0190019900980D4B421AE06938
:10524800C10859438A4201D8009805E00949400835
:105258004843019940180090FCF740FD1CBD000030
:10526800300DFF1F3409FF1F0010034070BBFF1FE4
:10527800530700007102000070B50D4C0546E06848
:10528800808D400505D50B48406AC003C00B03F06C
:105298001FFA002003F03EF9002808D006480168EC
:1052A800E068FF30813041652846FCF767FE70BD35
:1052B80070BBFF1F40F000400080FF1F70B58AB030
:1052C80000241E4D049405942878012806D004A9CA
:1052D8000120FCF73FFD002802D000200AB070BD75
:1052E8000498009005980190154881680291C0685B
:1052F8001349039006AA10316846FCF745FE104E84
:1053080010222036314606A8FCF714FE002811D0DA
:10531800012028700B4A31466846FCF735FE049494
:105328000020694605948200401C8C500428FADB52
:105338000120D3E7FF202870CFE70000BDBCFF1F86
:10534800002900111CE8FF1F70B5144DA84201D1B7
:105358002F2070BD124B00228CB256009E5B8642F5
:1053680008D15000C21880321480A94200D11D52C1
:10537800002070BD521C402AEFDB00214A009A5AD7
:10538800AA4205D149005852C81880300480EFE776
:10539800491C4029F2DB302070BD0000FFFF0000EF
:1053A80020E3FF1F10B503484078002801D0FEF71E
:1053B8000FF910BD64BBFF1FF0B5584F584E99B098
:1053C80078683060B8783071FF21B1711020707141
:1053D800002430462546F17109220830FCF7B6FD55
:1053E8004E22002104A8FCF7B1FD36E03068210305
:1053F80040181022694600F05BF90098316888422D
:105408001DD1694609793279914218D1694649799D
:105418007279914213D16946C979F27991420ED1D4
:105428006846B9788079491E884224DAA04201D1B9
:10543800022500E0032504A90855B0710BE0401CC3
:1054480019D168460079FF2815D168464079FF28A8
:1054580011D104A90855641CE4B23179A142C5D818
:10546800042D08D0B0790124FF2807D0012D05D0DC
:10547800002004AA24E0202019B0F0BD00250DE08A
:10548800B5713068290340181022254900F026F923
:10549800002801D01F20EFE76D1CEDB23079401EC7
:1054A800A842EDDC002030743079401E7074102062
:1054B80070823C7025E0135C002B03D0401CC0B206
:1054C8008142F8D881421CD9401E0818FCF762FDB9
:1054D800717400203C70024618A9189000F026F854
:1054E800002802D0212802D004E0189901E0012107
:1054F80009037182C0B2212803D0002801D02A20D4
:10550800BAE7084A084C002041000B1980331A807A
:10551800401C62524028F7DB0020ADE764BBFF1F48
:1055280020E4FF1FFFFF000020E3FF1FF7B5012461
:1055380084B000200E4627460190A3E05A4801791E
:10554800407CC019FCF7FAFBC8B2FF2C03D9FF3C1A
:10555800A4B2FF2C33D2049A002A01D1524A117402
:105568000003012503900198002803D00020019032
:10557800281906E0012C05D92819811EFF2917DAF8
:10558800401E85B203982901081802904648042253
:10559800016802980818694600F08AF804980028FB
:1055A8000ED0012828D002283BD0062007B0F0BD35
:1055B800FF200230401B201A84B2012001905FE0D6
:1055C80000998803800F04D0022802D0032852D102
:1055D8000DE0080D0903890F01294BD10C21FCF7B7
:1055E800ADFB002900D00121401884B243E00298A5
:1055F8000005000D30604FE000998A03900F04D039
:10560800022805D0032836D14CE0900F0228E0D1BB
:10561800328888B292B29042DBD10699029808602B
:105628003AE000988103890F04D002291ED003298B
:1056380021D131E00103890F012903D03068012409
:105648000C300CE0000D0C21FCF778FB002900D091
:105658000121401884B20C2031686043081830607A
:10566800069806990068401C086004E00103890F49
:10567800012913D001246D1CADB2FF2D00D872E7AB
:105688007F1CFFB209488078874200D256E7049809
:10569800002805D0012805D0002087E7000D9DE7E8
:1056A800212083E7252081E720E4FF1F64BBFF1F3B
:1056B80010B5094C636898420BD3A4782403E31807
:1056C800834206D9002904D0002A02D000F0A0FBAA
:1056D80010BD222010BD000064BBFF1F70B5154629
:1056E8000E460446FFF75EFE800601D0292070BDF5
:1056F80009494868844206D3897809030818A042F2
:1057080001D9A00701D0222070BD2A463146204683
:1057180000F0D6FBC0B270BD64BBFF1F0148007823
:105728007047000074BAFF1F10B522480378224959
:105738001022C968022B08D00378012B05D0037802
:10574800032B02D00378042B00D10A6204780E23BD
:10575800022C09D00478012C08D00478032C07D037
:105768000478042C06D007E01B2404E0122402E08D
:105778004B6001E00C244C6004780F49C968803103
:10578800022C0BD00478012C0CD00478032C0ED0FA
:105798000078042801D1CB610A6210BD1F20C861BE
:1057A800212002E01420C8611820086210BD1320CF
:1057B800CA61FAE74A0AFF1F70BBFF1FF8B5002449
:1057C8000B4F0C4E0125B86A2946A140084209D062
:1057D800204600F08BFAE00080198168002901D08A
:1057E80020468847641CE4B2042CECD3F8BD0000C2
:1057F800C0020140FCE2FF1F10B50448C16B034A18
:1058080040321068D06001F0DDF810BD0080004023
:1058180010B50F4880680007000F062808D008DC7C
:1058280002280CD0042803D101210020FCF7DCFD5C
:1058380010BD072807D00C28FAD10221F5E700206F
:10584800FCF7FAFD10BD02484030C06B10BD0000E7
:105858000040004010B50F4880680007000F062878
:1058680008D008DC02280CD0042803D1012101202B
:10587800FCF7BAFD10BD072807D00C28FAD1022181
:10588800F5E70120FCF7D8FD10BD02484030C06B99
:1058980010BD00000090004038B5FCF72FF9012238
:1058A8009207916A08240094002901D1012090628E
:1058B8000A4B022018600098451E0095FBD2032071
:1058C80018600094641E0094FCD20020186000291F
:1058D80000D19062FCF724F938BD000000C00040F8
:1058E800012189070122202804D28B688240934332
:1058F8008B607047402805D24B692038824093431B
:105908004B6170476028FCD20B6A40388240934351
:105918000B627047012189070122202804D28B6875
:10592800824013438B607047402805D24B6920386A
:10593800824013434B6170476028FCD20B6A4038A1
:10594800824013430B627047012110B58907012279
:10595800202813D20346153B012B07D80A682020BC
:1059680082430A600A6802430A6010BD0B688240DD
:1059780093430B6008681043086010BD402814D298
:105988000346353B032B07D8CA6810208243CA60F8
:10599800CA680243CA6010BDCB682038824093436E
:1059A800CB60C8681043C86010BD6028FCD24B6A41
:1059B8004224201A824093434B62486A104348624B
:1059C80010BD0000FEB57C4A002592692C46029263
:1059D80001229207926A0192784A1378002B15D017
:1059E800042876D2C3009B181A791B1D002A0FD0F1
:1059F800734A166A012217468740FFB2BC463E42E8
:105A080002D19E78002E05D01120FEBD1220FEBDC9
:105A18000720FEBD002806D16A4E3778002F01D036
:105A28000F20FEBD3270664E6246803EB263B215EC
:105A3800824000923261644F8A68BA4201D10226DC
:105A480019E0624EB24201D1042614E0604EB2421F
:105A580001D10A260FE05F4EB24201D10C260AE0BE
:105A68005D4EB24201D10E2605E05C4EB24201D134
:105A7800102600E000260A699646BA4201D101279D
:105A88001AE0524FBA4201D1032715E0504FBA42EB
:105A980001D1092710E04F4FBA4201D10B270BE083
:105AA8004D4FBA4201D10D2706E017464B4A97429F
:105AB80001D10F2700E00027002E10D0002F09D0B9
:105AC800761EF4067F1EE40EFA060325D20D144353
:105AD8000BE031E0761E0225F406E40E05E0002F07
:105AE80003D07F1E0125FA06D40D3D4E7246921949
:105AF8003C4EB2420DD80026DE70029A002A01D030
:105B08002D4A9661019A002A05D101229607B262B0
:105B180001E00122DA70582702467A43324F8E6834
:105B2800D21916600E69966000261661002805D005
:105B38001F270E68B74203D20620FEBD2B4FF8E799
:105B48007605760DD661566C294FE4013E40264312
:105B58005664002616642C058D796D07ED0B2C43D1
:105B68008D7B6D07AD0C2C434D796D076D0E2C4365
:105B78004D7B6D072D0F2C430D79AD076D0D2C4313
:105B88000D7BAD07ED0D2C43641C9461097D002944
:105B980008D0FF2102318140094880380161012085
:105BA800587006E0064861468038816300990161B3
:105BB8005E700020FEBD000040C80040FCE2FF1FF0
:105BC8008003014050BBFF1F6060004060700040D0
:105BD8001050004010580040004000400090004025
:105BE800FFFFFFEEFFFF070000000140FF07000076
:105BF8007F00FFFF10B50848002181610748017048
:105C08002021001DFBF70EFF032001F08FF8032071
:105C1800FFF766FE002010BD80030140FCE2FF1F75
:105C280070B50320FFF776FE0320FFF78DFE0221F3
:105C38001320FDF7ABFC1320FDF736FC0B490A488F
:105C4800C8600B4A0021032000F0F2FF0406240E6E
:105C580008D10848012505702021001DFBF7E2FE48
:105C680005488561204670BDC557FF1FC003FF1F4B
:105C78008151FF1FFCE2FF1F8003014003B50D495E
:105C88000878002805D068460078042803D3062041
:105C98000CBD12200CBDC00040180179001D002960
:105CA80001D007200CBD019941600121017000203D
:105CB8000CBD0000FCE2FF1F10B50A490A78002A53
:105CC8000DD0C2005118FF220232824006480262FB
:105CD80001208871032000F07DFF002010BD1220F4
:105CE80010BD0000FCE2FF1F80030140F8B5184D0D
:105CF800AB692E06B26A17490C78002C03D0042829
:105D080003D30620F8BD1220F8BDC4006118CF796E
:105D18000124091D002F08D1002B01D00223AB61FB
:105D2800002A02D1B2620C4A146084400B4BE2B2E2
:105D38009A639A1582400948803002620020887070
:105D480007490870032000F0BDFF0020F8BD0000DF
:105D580040C80040FCE2FF1F00C0004000030140B3
:105D680050BBFF1FF1B584B0FCF7B2FB0126B607A4
:105D78000190B56AFBF7C2FE2249022008607062F2
:105D88000120B062FBF7CCFE1F4F38698007FCD4B6
:105D980020200090411E009101D30846FAE71A4CD2
:105DA800803C20680028FCDA1849012002F0D4FF62
:105DB8000498FCF7F5F8C0B2029038698007FCD463
:105DC80020200090411E009101D30846FAE7206880
:105DD8000028FCDA0D49032002F0BEFFFBF78EFE17
:105DE80008490020086003217162B062FBF798FE41
:105DF800002D01D1FFF750FD0198FCF77BFB0298BD
:105E080005B0F0BD00C0004080C80040FFFFFF079C
:105E1800F7B582B00446FCF75BFB019060031121E3
:105E2800400B090646188F01BD6A2002000A214965
:105E38000090884209D91F20C004044005D01E489C
:105E480044620168BA1311430160002D09D1FBF7C0
:105E580055FE1A490220086078620120B862FBF7F3
:105E68005FFE002003E0325C03990A54401C049949
:105E78008842F8D30026002D08D1FBF73FFE0F48D3
:105E8800066003207862BE62FBF74AFE0949009863
:105E9800884208D9002C06D00748466202680121CA
:105EA80009048A4302600198FCF724FB002005B02E
:105EB800F0BD0000FFFF070000C8004000C0004020
:105EC800F7B5294882B001781546002902D00F207D
:105ED80005B0F0BD244801240470FCF7F9FA0190DC
:105EE800FBF70CFE21490220086046077062B46285
:105EF800FBF716FE1E4F38698007FCD4202000905F
:105F0800411E009101D30846FAE7194C803C2068ED
:105F18000028FCDA1749012002F01EFF2A460399DF
:105F28000298FCF743F8C5B238698007FCD42020F2
:105F38000090401E0090FCD220680028FCDA0D4931
:105F4800012002F009FFFBF7D9FD0848002404608E
:105F580003207062B462FBF7E3FD0198FCF7CAFA0C
:105F6800014804702846B3E750BBFF1F00C000403B
:105F780080C80040FFFFFF07F0B589B000200090FF
:105F8800FFF710FA800602D0292009B0F0BD3A4880
:105F9800007800280DD0394F787C05903979401C5D
:105FA800FBF7CCFEC8B207900598000300240090C8
:105FB80038E02720E9E7079831460019FBF7BEFECD
:105FC8000D030695BC71059831460019FBF7B6FE1E
:105FD80008033968102240182849FFF77FFB00287A
:105FE80041D1002C02D100981030009000261035C5
:105FF80038680422401904A9FFF75AFB0498800363
:10600800800F022815D0032804D0761CF6B210356C
:10601800FF2EEDD31849069849680818FFF7A2FE25
:10602800641CE4B23E79701EA042C4DCFFF7C4F9D8
:10603800ABE73968281D08180C2201A9FFF738FBBF
:10604800386800990422401804A9FFF747FB002884
:1060580009D100983968001D08180C2201A9FFF71A
:106068003DFB002801D01F208FE7009810300090DA
:106078006846FEF7A9FEC8E764BBFF1F20E4FF1FC0
:1060880070B50021044601600F480078002818D038
:106098000E480126458A3603B5420FD2427C017963
:1060A800007C5218101A401EFBF774FFFF200001F5
:1060B8004143701B40180C2148430109002021600E
:1060C80070BD272070BD000064BBFF1F20E4FF1FC8
:1060D8001CB504460020009001900A48007800286A
:1060E80008D001AA69460220FFF720FA002803D049
:1060F80001201CBD27201CBD002C01D00198206068
:1061080000981CBD64BBFF1F10B5084A1378002B0C
:1061180001D0272010BD030501D1022901D2062094
:1061280010BD91705060FFF747F910BD64BBFF1FA9
:10613800014800787047000064BBFF1F70B5074D29
:1061480006462A46002100F097F8040003D12946A4
:106158003046FFF7F9F8204670BD0000FFFF000049
:10616800F8B50D460021009115490978002915D088
:1061780014490090884216D0134A00235C00165B2D
:1061880086420DD1A418803424888C4208D0580047
:1061980080188030008828600020F8BD2720F8BDCE
:1061A8005B1C402BEADB2A4669460120FFF7BEF953
:1061B800040003D129680098FFF7C6F82046F8BD07
:1061C80064BBFF1FFFFF000020E3FF1FFFB583B084
:1061D8001C4616460F460025FFF7E4F8800602D055
:1061E800292007B0F0BD2248007800280BD0002FE6
:1061F8000BD0002E09D069460398FFF7B1FF00289D
:1062080005D02520EDE72720EBE72220E9E719480C
:10621800009900680422401801A9FFF749FA002CE8
:1062280002D00198000D20800198040DB44219D9BC
:106238001CE00C2C01D30C2000E02046C6B20D480F
:10624800791902680098001D10183246FFF730FAD5
:10625800A01B84B2009810300090A81985B2684637
:10626800FEF7B2FD002CE4D10020BAE72620B8E7FB
:1062780064BBFF1F20E4FF1FF7B582B00024174658
:1062880005460094FFF78EF8800602D0292005B055
:10629800F0BD27480078002807D069462846FFF750
:1062A8005FFF002803D02520F1E72720EFE7214DE5
:1062B800009928680422401801A9FFF7F9F9019804
:1062C8000C21000DFBF73AFD002900D001214018F0
:1062D80086B228E0286800990422401801A9FFF72F
:1062E800E7F9019803210246090488439103039AB8
:1062F800890F114009040843019038406946888095
:10630800286800990422401801A9FFF7E7F9002836
:1063180001D01F20BBE70098103000906846FEF7B8
:1063280053FD641CA4B2B442D4D30020AFE70000EC
:1063380064BBFF1F20E4FF1FF7B588B01646FFF7C0
:1063480031F8800602D029200BB0F0BD4C48007807
:10635800002809D00998002804D0002E02D0494806
:10636800864203D92220EFE72720EDE706A8FFF7AA
:1063780087FE0698864201D92320E5E705A90898F3
:10638800FFF7EEFE002806D10898FFF7D7FE002891
:1063980001D00120D8E7009831050003000B08431D
:1063A80000906946089808800321009809048843EA
:1063B800012149044018344600900C2E03D80321CB
:1063C800890408430090002500980C2C0AD9032161
:1063D800890488430121890440180C270C3CA4B285
:1063E80000900BE00103890F022901D0012903D194
:1063F8000321890488430090E7B200242248428A96
:106408000168007C89180003081805900422694671
:1064180001A8FBF70DFB09983A46411902A8FBF7BA
:1064280007FB3A1D01A90598FFF758F9002801D084
:106438001F2089E7002D09D1002E07D01248017CC2
:10644800408A090309180898FEF77EFFE8190E4FDD
:1064580085B2788A0121103080B209037882884297
:106468000AD1387C3979401CFBF768FC787C81427A
:1064780002D0102078823974002CA5D1002063E75F
:1064880064BBFF1FFF0F000020E4FF1F30B5C21FD1
:106498000A2A01D3062030BD162801D9052030BDAF
:1064A8000124074D9440002905D0002100F0D0F8C0
:1064B8002868204301E02868A0432860002030BDF8
:1064C80000380040162809D8054B01228240D868B8
:1064D800002901D0104300E09043D86070470000C5
:1064E80000380040F3B50546FF2819D0A807C40EA8
:1064F800AF08661D284600F00BFA0A48B9000818CC
:106508008169331B01225B1C9A40521EA2409143B1
:10651800019AA2401143816101212846FFF7D2FF69
:10652800FCBD00000038004010B5114C2078002850
:1065380001D0072010BDFF2131310D48FBF772FA59
:10654800012020700B490020086348630A4908624B
:10655800486202211020FCF7F7FF1020FCF798FF93
:10656800064A07490D2000F063FB002010BD00001B
:106578008CE1FF1F0080004080F00040DD67FF1FB6
:106588004567FF1F10B5162801D9052010BD0B4B14
:106598009C6B01228240104620439863586B9043BD
:1065A8005863D86B012906D09043D863186B02430F
:1065B8001A63002010BD1043F7E700000080004078
:1065C800054B0122801E82405869002901D01043E2
:1065D80000E090435861704700380040F0B50F461E
:1065E8000446162801D90520F0BD174801250619CB
:1065F8007178A540012904D18069284201D0002F73
:1066080008D000212046FFF75DFF022C04D0032CA0
:1066180002D005E00620F0BD01212046FFF7D0FF9B
:1066280000212046FFF732FF0848012F06D04168B5
:10663800A9434160022070700020F0BD426801212A
:106648002A4342607170F7E78CE1FF1F0080004029
:1066580070B5162816D84200104B82189C5CD218C8
:10666800537892780E4E012513280CD2A000801979
:1066780084689B1A5B1C9D406D1E9540AC439140FD
:106688000C43846070BD70699B1A5B1C9D406D1E35
:106698009540A84391400843706170BDBB96FF1FA9
:1066A80000F00040162801D90120704707494A68C0
:1066B800012383401A4201D0096802E003494031AE
:1066C8000969C140C807C00F70470000008000403A
:1066D80070B5162827D8184E4300164C9A1901256C
:1066E800002912D014280BD0152809D0162807D055
:1066F800F05680000019816852789540294311E0CE
:10670800606951788D40284312E014280CD0152870
:106718000AD0162808D0F0568000001981685278EF
:106728009540A943816070BD606951788D40A84348
:10673800606170BD00F000400097FF1FF8B50024AD
:10674800124D01272E197078012808D13946A869F9
:10675800A140084215D0E0B20121FFF7B9FF7078D7
:1067680002280ED1E0B2FFF79DFF78400146E0B263
:1067780000F07CF8E0B2FFF795FF0C21614349195E
:106788004877641C172CDDDBF8BD00008CE1FF1F87
:1067980010B50F4A0D4B0124125C142809D2186A4F
:1067A800002902D09440204301E09440A04318629D
:1067B80010BD586A002903D0203A9440204302E0D3
:1067C800203A9440A043586210BD000080F0004079
:1067D800A496FF1F70B502211020FCF7B5FE10200B
:1067E800FCF756FE204E00243519687800281AD088
:1067F800022C01D0032C03D1E0B20121FFF7E0FE07
:10680800687801280FD10121B069A14008420AD057
:10681800E0B2FFF747FF0146E0B200F065F8E0B2EA
:106828000021FFF755FF0C2060438019007F0028E6
:1068380016D0E0B200F090F8E5B2162D10D8284630
:10684800FFF730FF002801D0012100E000210C22D1
:106858006A439219527F824202D0284600F0E6F835
:10686800641C172CC0DB70BD8CE1FF1FF8B516281F
:106878002ED84200184B82189C5CD218174B92787D
:106888001B18521E5B78D2B2022B21D1144FBE6B5B
:1068980001231D4685402E43BE63124D13280ED298
:1068A800002906D0A10049198C6893409C438C604C
:1068B8000BE0A10049198C6893401C43F7E70029B5
:1068C800696906D09340994369610121FFF760FF28
:1068D800F8BD93401943F7E7BB96FF1F8CE1FF1FF4
:1068E8000080004000F0004000B516280CD80122B6
:1068F800064B82400029196801D0114300E09143FA
:1069080019600121FFF76AFE00BD00000080004009
:1069180030B504460E48162C01D9052030BD0C218F
:106928000025614345540A4829461C38001945701A
:106938002046FFF753FE07494A6B0120A0408243D7
:1069480002434A630A6B82430A63284630BD00004B
:10695800A8E1FF1F0080004070B5054618480026D2
:10696800162D01D9052070BD29460C2251430C185B
:106978006268002A02D1A268002A1CD0104B0222A9
:106988001C3B5B195A700122425400212846FFF72C
:1069980025FE6068002808D0A06800280DD0284689
:1069A800FFF780FE002808D0002631462846FFF76A
:1069B800E9FD002070BD122070BD0126F5E700003A
:1069C800A8E1FF1FF3B5184E81B00F46002401203F
:1069D8000199A040084222D0384201D0012500E0A8
:1069E8000025E0B2294600F021F80C206043801908
:1069F8004168806800290DD0002806D0002D02D0FB
:106A08000021E0B203E00121FBE7E0B20121FFF73A
:106A1800B9FD04E0002802D0E0B20021F7E7641CC9
:106A2800172CD4DBFEBD0000A8E1FF1F084A16287A
:106A38000DD80C2343439B185A68002A01D001291A
:106A480004D09A68002A02D0002900D11047704764
:106A5800A8E1FF1F30B58DB0302217496846FBF713
:106A6800ABFA00246D46600041194978285CFFF7AD
:106A7800EFFD641CE4B2172CF5D310484169C2003D
:106A88009143052212048918416141690122520685
:106A98001143416141690322520591430122520584
:106AA80089184161072000F015F800F02FF800F070
:106AB80007F80DB030BD0000CC95FF1F00F0004076
:106AC8000348416901229206914341610F207047B2
:106AD80000F00040074A43091178C908C900002B93
:106AE80002D01170062070474007400F0143117013
:106AF8000020704731BBFF1F0348C1691F225204A1
:106B08009143C1610020704700F000400649C86900
:106B18001F2252049043054A12785207120B104361
:106B2800C86100207047000000F0004031BBFF1F23
:106B380010B578210A48FAF775FF0A480078012845
:106B480003D0022804D0042807D1FBF73BFA04E05D
:106B580005A0FEF72FFAFBF73BFA002010BD000056
:106B680008E1FF1F30BBFF1F5057525F4D4F444590
:106B78005F534C4545500D0A0000000070B50546AE
:106B880012480024007801281BD0042819D0FAF7ED
:106B9800B5FF0F4800210C224A43825C002A0CD022
:106BA800AA4207D10C22514308184078012804D181
:106BB800012402E0491C0A29EDDBFAF7B1FF002C99
:106BC80001D0012070BD002070BD000030BBFF1F48
:106BD80008E1FF1F70B50546134812240078012804
:106BE80016D0042814D0FAF789FF104B0021084664
:106BF8000C2250431A5C002A11D0AA420CD10C2254
:106C080051430120C9184870FBF7DCF9002406E05D
:106C1800FBF7D8F9002070BD491C0A29E7DBFAF711
:106C28007FFF204670BD000030BBFF1F08E1FF1F3B
:106C380070B50024124E23460C255D43755D8542D0
:106C480001D1072070BD002D0BD05B1C0A2BF3DB94
:106C5800002C13D0002363702070A2601846616076
:106C680070BD0C246343074D9C192B785E07DB0825
:106C7800760F5B1CDB001E432E70E9E7032070BD16
:106C880008E1FF1F31BBFF1F70B5FFF73FFF0B483F
:106C98000078C408641E0DD4094D20460C214843D1
:106CA800295C002908D040194068002800D0804796
:106CB800641EF2D5002070BD122070BD31BBFF1FCD
:106CC80008E1FF1F70B50546164800240078012822
:106CD80011D004280FD0FAF711FF0021124B0E46ED
:106CE8000C200A464243985C00280FD0A84205D1E0
:106CF800D018467007E0FBF765F90DE0D01840782A
:106D0800002800D0641C491C0A29E9DB002C05D0A6
:106D1800FBF758F9FAF704FF002070BDFBF758F9A4
:106D2800F8E7000030BBFF1F08E1FF1F70B5014600
:106D3800002515482C460C226243825C8A420CD1FD
:106D4800124B1978CA08D2004907490F083A0A4372
:106D58000C2161431A700D1804E0002A12D0641C3B
:106D68000A2CE8DB002D0DD0FAF7C8FE0920021B1B
:106D78000C20424329182846FBF71EF9FAF7D0FEE3
:106D8800002070BD122070BD08E1FF1F31BBFF1F3E
:106D980070B51C480121890742688A60826801230E
:106DA8001A434A6118490A6BC260496B01610021A4
:106DB8000420FCF7A7FB01211420FCF7A3FB012109
:106DC8001520FCF79FFB01211720FCF79BFB01F026
:106DD80009FC0C4E00240D4D761C0BE020460C21BE
:106DE8004843295C00290BD040198068002800D04E
:106DF8008047641C3078C008A042EFDC002070BDDA
:106E0800122070BD30BBFF1F80F0004008E1FF1F5B
:106E180010B506490448086005490860FDF748F8B8
:106E280004490020486010BD841E0000140AFF1F9A
:106E3800380AFF1FC0F0004010B515491F20087020
:106E48001449012008701449002008701348C16BC8
:106E5800490949010931C163C16B60221143C1630A
:106E6800FFF7D6FF00F01CF800210420FCF728FBF0
:106E780001211420FCF724FB01211520FCF720FB3D
:106E880001211720FCF71CFBFDF722FA10BD0000BA
:106E9800480AFF1F490AFF1F680AFF1F80F00040C9
:106EA80010B5FCF7ADFF10BD70B540251C4C01288E
:106EB80002D0002811D027E060690521400140096F
:106EC800C90640186061E06916490840164940182B
:106ED800E061E0692843E06116E000210A20FFF73D
:106EE800B7FB00210B20FFF7B3FBE0690321090280
:106EF8000843E061E069A843E06160690B21400153
:106F080040090907401860616069012109070843C1
:106F18006061A069032149048843A06170BD000035
:106F280000F000407F00FEFF80FD010010B505491C
:106F3800486000F0A3F8044A00211320FFF778FE08
:106F4800002010BD50BBFF1F8570FF1F0248006A5C
:106F5800002800D0004770474003FF1F72B606485C
:106F68000168491C01600548042101600021416055
:106F7800012080074160FEE77808FF1FC0F000404D
:106F880070B5054601F0E6FF084E6C01A0192021F6
:106F9800FAF748FD00203055002D04D01920FFF7DE
:106FA800C5FE002070BD0820F9E70000BCE2FF1F05
:106FB800FFB581B00A9E144F7501785D002802D094
:106FC800112005B0F0BD6846407B002801D005209F
:106FD800F7E7E81904462021FAF724FD01A80FC8AD
:106FE80010340FC4304601F0F7FF01207855002E09
:106FF80006D0064A00211920FFF71AFE0020E0E714
:107008000021034A0820F7E7BCE2FF1F9391FF1F06
:107018008991FF1F10B5064C43011B199B7E002B5D
:1070280002D001F039FF10BD01F000FF10BD0000D3
:10703800BCE2FF1F70B515460F4A0E464001811885
:10704800105C0C1D002805D0887E002804D020780C
:10705800002803D0072070BD052070BDFAF74EFD4B
:10706800A660E58000206080A08001202070FAF7EB
:1070780057FD002070BD0000BCE2FF1FF8B5224894
:107088000178022901D9042000E000781F49204B2B
:107098000A68012100249A4201D1009100E000947D
:1070A80000230121FAF79AFF1B491A4888631A48F6
:1070B8004030046110214161022686618803174926
:1070C8000860BFF34F8FBFF36F8F15480168FF2229
:1070D80012049143B20511430160642000904120DD
:1070E800FEF718FC4020FEF715FC75076E62009845
:1070F800411E0091FBD203206862FEF7CDFBAC6213
:107108000020FAF771FFF8BD4A0AFF1F54BBFF1FA2
:107118006B000208050001FF00C8004080E100E0A4
:1071280010E400E002488069C00700D001207047E1
:107138004010004070B50A4D00240C20FFF7B2FA49
:10714800002807D02046641CA4B2A84203D905A091
:10715800FDF730FF70BD0120FCF75EF9EDE7000098
:10716800A861000066756E633A6C63645F63686B60
:107178007374617475732C2074696D654F75740D23
:107188000A00000030B50AC8284A4C071068A40F46
:10719800800880002043CC08E50704241060002DF7
:1071A8003CD0A0437824A0430C06240FE4002043DD
:1071B8000F24E401A0430C05240FE40120430C0B29
:1071C800E5071B4C10602BD0A0431A4C20404C0202
:1071D800A40D240320430F24A405A0434C01240F2D
:1071E800A40520439C01C90E6408214303C2990EDB
:1071F800CC0701218906083A002C13D08843D90E00
:10720800CC070D4910600FD0884303210907884334
:107218009900890F09070843106030BD2043C1E772
:107228002043D2E70843EAE70843EEE7C0BCFF1F64
:1072380000080000FF0FC0FF0000000870B54C797F
:107248000B7924020A781B199BB2002A04D1C4784E
:10725800012C01D1002B0CD002468032C41DD37BF7
:10726800FF340125FA34002B12D0D37A172B07D01C
:107278000EE0FF2122310A540721FAF7BBFE70BD48
:10728800927A012A04D1094AD278002A00D02572BC
:10729800267AFAF7B5FE00210548012E0171EED1D4
:1072A800217A0029EBD1057170BD0000E010FF1FA5
:1072B80070BBFF1FF8B5054612480F46C0788142DB
:1072C8001FD1E878002818D00024A0004619FF36FE
:1072D8008136F16800290DD0086800280AD128797C
:1072E80000F044FD0020F0600520C0012818417816
:1072F800491E4170641C082CE7DB39462846FAF71A
:1073080085FEF8BD70BBFF1FF8B507460546FF3779
:10731800052000268137C0012C18B0004019FF3025
:1073280001300090C16E002905D0287900F01EFDBB
:107338002078401E20700098F96A761CC166082ED5
:10734800EBDB0026B0004019FF3081300090C168A7
:10735800002905D0287900F009FD6078401E60708A
:107368000098F96A761CC160082EEBDB0026B00095
:107378004719FF378137396B002905D0287900F084
:10738800F5FCA078401EA0700020761C3863082EFB
:10739800EDDB284600F058F92846FAF73DFE0021B3
:1073A80008468A005219FF320132491CD066082962
:1073B800F7DB00218A005219FF328132491CD06064
:1073C8000829F7DBE070F8BD10B5FAF72BFE09497C
:1073D800A122897892005143074A12688A18D11D60
:1073E800FF31FA31CB6F528C1B0C1B041343CB6754
:1073F80010BD0000300DFF1F3409FF1F10B50346F4
:107408000446FF334B33062018700122032120461F
:10741800FAF70EFEFF20012138300155FF200649FA
:10742800493001539D2080000059002802D1803442
:10743800208A6082012010BD0305000010B50B48AA
:10744800A121807889004843094909684018417892
:10745800002907D0FF30FF300230C16C002901D06D
:107468000021C164FAF7EAFD10BD0000300DFF1FCE
:107478003409FF1FFFB504466030C07E072581B080
:107488001746012842D12046FAF7DEFD00283DD0F4
:107498002148007800283CD0FF2611362046FAF70C
:1074A800D9FD009020790022314600F015FC0099A2
:1074B80089000E19FF360136F066002826D0A6206E
:1074C800005D002807D03A462046049B0299FAF747
:1074D800AFFD3F1DFFB20520C001251828783A46A8
:1074E800401C2870029938020843F16E8880F06EBB
:1074F8000499801DFAF7D2FAF16E0120086020463F
:10750800FAF7AEFDE878401EE8700025284605B079
:10751800F0BD3426C2E700001709FF1FF8B5414C3B
:107528002068002804D0FAF7A1FD2178C84005E0BA
:10753800FAF79CFD3C490968FAF700FC3B49A1228F
:107548008978920051433A4A3B4D12683C4E8C1858
:107558006378384A3949002B0AD0FF34FF340023B6
:10756800023463640B6831698B4241D3591A41E094
:107578002078002805D0E01DFF30FA30436C5B1CF2
:10758800436408683169884201D3401A01E0511AFE
:107598000818E71DD238FF37FA372860796C0129B7
:1075A8002CD0002930D006292ED8607901282BD07C
:1075B800FDF7BAFCE18E234BCA085A438242786C25
:1075C80025D8022821D01E4B5133C35CFF24F06814
:1075D800D1342458FF30090A01306343491C006B39
:1075E8004B431818101A07217964296808180AE00B
:1075F800511AC918081AF168C96811E0F168FF3111
:107608000131096BF2E72860F8BD0020EDE7F26868
:10761800090AFF328132126D491C504348432968D8
:107628004018F0E71C08FF1F1808FF1F300DFF1F48
:107638003409FF1FFFFF3F00A009FF1F9C09FF1F20
:1076480070BBFF1F5307000010B50179134A4900AA
:10765800515C002920D012490B688C15A3430B609C
:107668000146FF3121310B46097D0224214004796E
:107678006400A418647821431975094B403BDC6BFE
:10768800A408A4000C43DC63037900215B00D154F7
:10769800007940008018417010BD000080E5FF1F90
:1076A80040100340F3B507469848A1218078890027
:1076B8004843974989B00968002644182046FF3096
:1076C80021300690407D322822D0222820D025461D
:1076D800FF358135E86A0168002909D08188001DD5
:1076E800090A891CFAF7C8FCE96A0020761C0860B8
:1076F800FAF7C8FC0A99002508802046FF30C130F7
:107708000790007C002829D0B84227DC002018E028
:10771800804901200860FF20AD3000210059012672
:107728000160E5E780000019FF308130006B6D1CB7
:107738008188EDB2090A001D891CFAF79DFC0098A2
:10774800401C00900798017C00988142EADC079869
:10775800007C3F1A86190798002101746E490020A1
:10776800C870FF20AD3000590168002903D00079A6
:10777800C04380073AD00698C07D002836D00698C6
:10778800807D002832D10798007CB8422EDA5F4805
:1077980081781C20414361480818017A002925D1C5
:1077A80001210172A9000919FF31C06881310863FC
:1077B80000281FD00520C001201881786D1C491CA5
:1077C8008170FF204930005BEDB2010A2046FF308E
:1077D8004930891CFAF750FC06980021C1750698B3
:1077E800012181754C48761CC1707F1E0798007C6A
:1077F800002802D030460BB0F0BD2046FAF748FC0E
:10780800049000283BDD002F39DD002031E02046C0
:10781800FAF744FC80000019FF3001300790C06E71
:107828008188001D090A891CFAF726FC00281ED049
:107838000798C16EA8000019FF30813001630799CD
:107848000020C8660520C001201881786D1C491CDD
:1078580081700178EDB2491E01702046FAF724FCC8
:10786800E11DFF31FA31086A401C761C0862009855
:10787800401C04990090884201DAB842C7DB2349CA
:107888001C228878254B5043C218107A002822D031
:107898000020691E1DE083001B19FF3381331B6B19
:1078A800D768BB4214D1884212D0A9000A198000B7
:1078B800FF3200198132FF308130D16A01631348E9
:1078C80081781C20414315480818C068D06202E03E
:1078D800401CA842DFDB092080012018817E002996
:1078E80011D0017D00290ED0428E002A0BD0817F55
:1078F800914202D2491C817705E0002181771A2143
:107908002046FAF777FBB0B275E70000300DFF1F8D
:107918003409FF1F00140340E010FF1FA0E5FF1FFC
:10792800F0B589B0FAF738F905469A48A121807868
:10793800890048439849096844189848006801280C
:1079480003D19748816D491C8165052D01D0042D0F
:1079580002D12046FFF778FEFAF70CF99149924ACE
:107968000861924842610122C2600260052D17D069
:10797800042D7DD1E08E8E4AC9685043FF22DF3244
:10798800125B801AF8225258896C801A814A527800
:107998005208D040814200D20846FAF7A5F904E01F
:1079A8006079012801D0FDF70BFCFAF7E3F806909F
:1079B80080480078002805D0FF20113000273E4677
:1079C800009033E03420F9E72046FAF773FB811979
:1079D800794800788142204603D2FAF76BFB801978
:1079E80005E0FAF767FB811973480078081AC0B2F6
:1079F8000790684802228078009900F06DF907998D
:107A080089000919FF318131C860002813D0052089
:107A1800C001201842787F1C521C42700020CA689E
:107A2800761C1060C968FFB28880F6B22046FAF763
:107A380047FBB042C8D85D48FF2109044268002FBF
:107A480004D08A4339040A43426025E08A4301216D
:107A5800090451184160217901204A005749885486
:107A6800FF203530005D2279C007C00F520000E0CA
:107A780015E0521850704D484030026883151A437B
:107A8800026002682379520852005B00591849784D
:107A98000A43026002218162069800F07BFA484995
:107AA800486B484AC0B21278002A17D1464A0023C8
:107AB800D356002B454BD35606DB1B04002696579E
:107AC80032029A18121808E0FF331B040026965752
:107AD80032029A183E4B1218D2184A63022801D271
:107AE800022002E0502800D950203A4A1278022A8F
:107AF80011D0394A1678394B1F78BE420FD91678FB
:107B08001B78F31A801E4010434310784001C01AB6
:107B18001030401104E0324A1678324BECE7107806
:107B28004A69120A120210434861052D01D0042D3A
:107B380016D12D480078002806D02C480078002857
:107B480002D00020FAF7C4F8FF34FF340234207B57
:107B5800042801D0032803D1FF205F30FAF75EF82C
:107B6800022D12D122480078012807D0032805D019
:107B7800022803D01F480078022806D1114800784F
:107B8800002802D16C20FAF749F81B490120C88265
:107B980009B0F0BD300DFF1F3409FF1F9809FF1F02
:107BA800FC0FFF1F70BBFF1FFF3F000000100340CA
:107BB800710200001709FF1F1609FF1F80E5FF1F4C
:107BC800800003408C09FF1F680AFF1F00000000A7
:107BD800FFFE0000490AFF1F440AFF1F450AFF1F56
:107BE800460AFF1F470AFF1FF908FF1F2209FF1F48
:107BF8001C09FF1F2309FF1FBC0BFF1FF8B53148E5
:107C0800A1218078890048432F49096844182646ED
:107C1800FF3681360020F16A354640350860287401
:107C28002A48C1684A050169520D49014B0DC169CD
:107C3800274F39401143C1619F1A1EE0F06A01685D
:107C480000291ED02349287C0978884215D2800053
:107C58000019FF308130006B00280ED0001DFAF7A4
:107C680035FA3F1A287C81000919FF318131096BE7
:107C78008988090A01D0401C2874002FDEDC2D7C7D
:107C88001CE0001DFAF722FA3F1AF16A0120086089
:107C9800F3E7A8000619FF368136316B00290BD0AF
:107CA8000848807800F062F8002030630520C001A1
:107CB80020188178491E81706D1CEDB2082DE8D31B
:107CC800F8BD0000300DFF1F3409FF1F40100340AE
:107CD8000000FF071509FF1FF7B584B00C46F9F738
:107CE8000DFF1C4D1C4E2868029030681B4F0190F8
:107CF800386800901A48816B2960C16B3160006C4C
:107D080038601848002101702046FAF7E5F9044662
:107D18000298286001983060009838601148012264
:107D280002700499104B1C256943C918002C03D014
:107D3800087E401C087607E00698C0000B5C002B04
:107D480002D10A5408184468F9F7EAFE204607B039
:107D5800F0BD0000D808FF1FD408FF1FDC08FF1F74
:107D680070BBFF1FD008FF1FA0E5FF1F70B50C46B2
:107D78000546F9F7C3FE10481C2100224D43281878
:107D8800D100435C002B09D041184968A14205D1B4
:107D98000021D2008154F9F7C3FE70BD521CD2B243
:107DA800032AEDD3241F21884904490C2180017E30
:107DB800491E0176EFE70000A0E5FF1F30B50A0471
:107DC80015D40B4B0B4C18600B4A206011608908C6
:107DD8008900091800258039CD671168091F0160DD
:107DE8000648216881631968C1631168016430BD60
:107DF800D408FF1FD808FF1FDC08FF1F70BBFF1F38
:107E0800F0B5114A114B124900280ED00020145C1D
:107E1800002C06D085005D59002D02D0A4006418FE
:107E28002560401C1028F2DBF0BD00200446155CDC
:107E3800002D05D0AD006D1887002E68DE512C602E
:107E4800401C1028F3DBF0BDC9BBFF1F34E4FF1F43
:107E58000000FF1F10B504490968002901D08847B0
:107E680010BDF9F7C3FE10BD8002FF1F10B504490D
:107E78008968002901D0884710BDF9F7B7FE10BD01
:107E88008002FF1F10B504498969002901D088477D
:107E980010BDF9F7ABFE10BD8002FF1F10B50449F5
:107EA8004969002901D0884710BDF9F79FFE10BD28
:107EB8008002FF1F10B504494968002901D088478E
:107EC80010BDF9F793FE10BD8002FF1F10B50449DD
:107ED8000969002901D0884710BDF9F787FE10BD50
:107EE8008002FF1F10B50449C968002901D08847DE
:107EF80010BDF9F77BFE10BD8002FF1F10B50A48C0
:107F0800A121807889004843084909684018007908
:107F180007494000085C002803D006490020887102
:107F280010BDFAF7DFF810BD300DFF1F3409FF1F31
:107F380080E5FF1FE010FF1F10B51249A1228978C4
:107F480092005143104A126889189F229200525891
:107F580093B22422525C934209D99A1A0B4BC969ED
:107F68005A434A43411C02D0C82800D08018FAF767
:107F7800BFF8FAF7C3F8002803D114210448FAF728
:107F8800C3F810BD300DFF1F3409FF1F7102000038
:107F98000010004010B50446F9F7ECFDA04203D3E9
:107FA800F9F7E8FD011B04E0F9F7E4FD0949091BAD
:107FB80041180948026A914200D20162C26991429D
:107FC80000D9C161426AD3009A1A5118C90841629E
:107FD80010BD0000FFFF3F0070BBFF1FF7B507464D
:107FE80086B0002004900390164607980BE12529D7
:107FF8000AD00499002901D0039802E004900020D7
:108008000390401C0390FBE00398002805D081B240
:108018000498B84700200490039000240422082301
:1080280010210798401C079000782B2818D004DCF2
:10803800202817D0232804D116E02D280ED0302868
:1080480014D0079800250278ED431346303B092BDE
:108058000FD807A800F070FE054613E00C43E0E7D0
:108068001443DEE71C43DCE7202000E00120044342
:10807800D7E72A2A06D1401C079020CE002D01DA26
:108088006D420C43079800230178DB432E2913D156
:10809800401C079001780A46303A092A04D807A8F4
:1080A80000F04AFE034604E02A2904D1401C079048
:1080B80008CE002B00DA0023079A00211078C94364
:1080C800682803D06C2801D04C2802D1521C0146E4
:1080D800079207980A2200786E282CD00CDC6328B7
:1080E8002AD004DC412826D0582811D198E06428E9
:1080F80001D069280CD197E073283BD004DC6F28A5
:1081080076D0702804D164E0752872D078286ED0B3
:10811800252809D0252069460872012102A8B847F8
:1081280007980178002972D0079869460078087284
:10813800012102A8B84763E0E00609D420246D1E97
:10814800002D05DD68460472012102A8B847F6E74C
:10815800307869460872012102A8361DB8472024E4
:1081680004E068460472012102A8B8476D1E002D7C
:10817800F7DC45E001CE0090002801D12DA0009049
:10818800014600E0401C0278002A01D05B1EF9D2AB
:10819800401A0190E0060BD42024284601996D1E50
:1081A800884205DD68460472012102A8B847F4E751
:1081B800019881B20098B847202404E06846047208
:1081C800012102A8B847294601986D1E8142F5DCB5
:1081D80016E0681C02D1082501200443009301948D
:1081E80002CE2B461022384608E001E001E019E0F3
:1081F800082202CE009301942B46384600F0A0F8DE
:108208000798401C07900178002901D0EFE60EE09E
:108218000398002802D081B20498B84709B0F0BD8D
:10822800402004431022E4E702200443E1E7401E13
:108238000790E5E73C4E554C4C3E000070B5144D98
:1082480002202870134C01202070F9F763FFF9F71A
:1082580067FFF9F76BFFFEF7EFFDFEF7FBFB2878EA
:10826800FCF7C8FD2078FEF71FFEFCF7B1FEFEF70D
:108278005FFC09480068FEF759FEFEF755F9074903
:1082880007A0FCF797FEFBF737FE002070BD000043
:108298004A0AFF1F1498FF1FC895FF1F0301030018
:1082A80053444B2056657273696F6E2049442025EC
:1082B800303878200A00000010B51348017F407F4D
:1082C800000208180004000C1CD0F9F735FF0F480D
:1082D800A121407D890048430D49096842180020C2
:1082E800014683009B18FF330133401CD9660828D8
:1082F800F7DB002083009B18FF338133401CD960D3
:108308000828F7DB10BD00009014FF1FA60BFF1F05
:108318003409FF1F70B50D460646002404E0315DA0
:1083280004A0FCF747FE641CAC42F8DB03A0FCF792
:1083380041FE70BD25303278200000000A000000A0
:10834800FFB50646564895B01F9F006814901D4615
:108358000A46780602D5524840681490F80601D5B6
:108368007F087F001798801E23287DD2F80701D048
:10837800302000E020206946087100200872B80704
:108388000ED5002A03DA2D200872524207E078073A
:1083980001D52B2002E0380702D5202008725D1E87
:1083A800B80608D51798102802D0082802D002E08D
:1083B800AD1E00E06D1E0024002A14D01046179947
:1083C800F9F7BCFC149A525C03A90A55641C020014
:1083D800F4D11E98844200DD1E941E982D1A112097
:1083E80007420AD00DE0302008730124F1E720206D
:1083F8006946087001216846B04728466D1E002866
:10840800F5DC6846007A002802D0012102A8B047AE
:10841800B80616D51798082802D0102802D010E000
:10842800302009E030206946087001216846B047CD
:108438001B4800682030407869460870012168466A
:10844800B047F80603D506E0012101A8B047284641
:108458006D1E0028F8DC30271E99481E1E90A14288
:108468000DDD6846077000E018E00121B047F3E72A
:10847800385D6946087001216846B04700E003AFDF
:108488002046641E0028F3DC202428466D1E0028A0
:1084980004DD684604700121B047F6E719B0F0BD65
:1084A80048BBFF1F10B5024600780C4B01280CD0C2
:1084B80002280DD0032807D151885068FAF716FA18
:1084C800014607A0FCF776FD10BD0121C90201E0B5
:1084D800012189029878F9F7B1FA10BD74BAFF1F23
:1084E8004550445F636D645F70726F63657373209A
:1084F8007265743A25640D0A0000000010B504483E
:108508000178C90701D07621C160F9F71BFE10BDBB
:108518000020004010B50C4A0021D36812691B786E
:108528001268002A03D04C00145B002C03D1491CAC
:10853800C9B29942F5D3994204D2002800D00170FB
:10854800002010BD012010BD0000FF1FF0B5234E14
:10855800234B002822D000211CE0A1208000326893
:108568004843801804460022FF34813497003F189E
:10857800FF370137E56A521CFD66082AF6DB002240
:1085880097003F18FF378137E56A521CFD60082ABB
:10859800F6DB491C18788142DFDBF0BD0021084674
:1085A80017E0A122920034684A431419002295006A
:1085B8002D19FF350135521CE866082AF7DB002221
:1085C80095002D19FF358135521CE860082AF7DB24
:1085D800491C1A789142E4DBF0BD00003409FF1F02
:1085E8001409FF1F10B502210520FAF78BFF02219D
:1085F8000A20FAF787FF02210B20FAF783FF0221EE
:108608001120FAF77FFF02210C20FAF77BFF0221E5
:108618000D20FAF777FF02210E20FAF773FF0221E7
:108628000F20FAF76FFF02211020FAF76BFF0221E3
:108638001320FAF767FF02211820FAF763FF0221D7
:108648001920FAF75FFF02211D20FAF75BFF10BD22
:10865800F8B51E484168090601D50020F8BD4168F3
:10866800802211434160194D0A260027803DE869A0
:1086780040084000E8610620F9F766FB134CC03C4F
:10868800A06980210843A061E86901210843E861E5
:1086980002E00820F9F758FBA86A800504D43046A0
:1086A800761EF6B20028F4D1002E07D0286A7E2163
:1086B800C70BA0690F4088433843A061A169802097
:1086C8008143A1613806400EF8BD0000C0F00040AB
:1086D800124B10B512497E2298420AD98B695B0663
:1086E8009B0E06D088698B694006800E9343401E16
:1086F8000CE00C4B98420FD2886910407E280BD2B0
:1087080088698B694006800E9343401C40000343F0
:108718008B610320F9F718FB10BD00000B20000047
:1087280000F00040FD1C00000148406980087047C7
:108738004010004070B50125064C0646AD03294699
:10874800A078F9F79FF932462946A078F9F7A0F9F9
:1087580070BD000074BAFF1F10B500F013FAFFF7E0
:1087680077FF10BD30B539480168012292041143E2
:1087780001604168032212069143354A13781B06AB
:10878800194341604368032189058B4331490C78BB
:10879800A40523434360436860242343436013785C
:1087A800022B08D01378012B05D00B78022B02D0AE
:1087B8000B78012B04D14368FF2401342343436021
:1087C8001278032A02D00A78032A03D14268802348
:1087D8001A434260426803239B041A4342600B78A1
:1087E8000122D2051C48002B03D11C4B1B78032BFC
:1087F8001BD0C3689343C360174A194B4032D360F8
:10880800FF2361331361174C5461174B9361FF25A4
:10881800114B813580335D609C60144CDC60144BD7
:1088280003600978002903D006E0C3681343E2E730
:1088380001680123194301600E4909780E4BC906E6
:10884800C90BC91881630D48D06130BD40F00040A4
:108858004C0AFF1F4B0AFF1F800003404A0AFF1FF4
:10886800C00B00207A3E6A07000089040080890452
:10887800CC240000480AFF1F250800002FFCA60191
:10888800F8B505004C4A4D484D4B4E4C4E4936D034
:10889800022D34D08615B702066286699E43F31905
:1088A80083612078002835D01120400308614748AB
:1088B8000863474800780122120380184861424E35
:1088C800414C444B803E403C002D28D06521424A13
:1088D800C9024248012D2FD0022D32D0032D5BD082
:1088E800042D59D03E49691831603E49A160236082
:1088F800E06002210846F9F72BFC3B482CE0802673
:10890800066286699E430123DB04F318836120789D
:10891800002801D00A61CAE787200003C6E7334868
:1089280030600020A06023603148E06003210846E1
:10893800F9F70EFC2F480FE02F4B3360A26021603F
:10894800D6E72D4B5B1C3360A2602160E0600221FA
:108958000846F9F7FDFB29482061F068FF21084324
:10896800F060274860612748A0612748E0612748F0
:108978002062274860622748A0622748E0622748AB
:10898800206327486063E020012D0DD02168022D67
:108998000ED081432160F8BD224BEB183360224B87
:1089A80073602160A260A3E7216881432031F1E769
:1089B80081434031EEE7000000450400C000034059
:1089C80000001C004B0AFF1F80000340020000014A
:1089D800440AFF1F00280B0055555537D6BE898E0F
:1089E80000800642555555008055082200800678BB
:1089F80007EE7536806608220180063D804508220C
:108A0800A49C5C544C44434241524C46403A342E58
:108A180028007F554F49433D37312B4C46403A3467
:108A28002E28221C00800698545A9850F0B5224BE4
:108A3800214D21498026204A0727BF04403BC03DDD
:108A4800E024803902281662966914D0BE430127B3
:108A5800BF04F6199661194A1278002A1ED07A10B6
:108A68001A6101281ED0164A801828601548086126
:108A78000868A04314E00120BE43C004361896617C
:108A88000E4A1278002A00D0401018610E4828605B
:108A98000E4808610868A043403001E01F61E0E724
:108AA8000860F0BD0848401E286009480861086849
:108AB800A0432030F4E70000C00003404B0AFF1F2A
:108AC80000800698805508220280063D80450822CD
:108AD8008066082210B50A4900200870094902205A
:108AE8000870FFF73FFE0848007800F011F8074CBF
:108AF8002078FFF7C5FE2078F9F7C0F810BD000010
:108B08004B0AFF1F4C0AFF1F480AFF1F490AFF1F95
:108B1800F0B51A4A03230725D60019499B02602499
:108B2800ED0157693F281AD0B74305263604BE1908
:108B38005661CA689A43CB14D218CA60CA69A2435C
:108B48002032CA61CA69AA43CA610D4940398A6B91
:108B5800C0061205120DC00B02438A63F0BDB7436D
:108B68000126B604BE195661CA689A43CA60CA6922
:108B7800A243CA61CA69AA438032E5E700F000400F
:108B8800C000034000B50021022000F021F80C4984
:108B9800801C08700021422000F01AF80949801C46
:108BA80008700121022000F013F80749801C0870A2
:108BB8000121422000F00CF80449801C087000BD17
:108BC800440AFF1F450AFF1F460AFF1F470AFF1FE7
:108BD800F8B53B4C394A2260394D394A07239B0482
:108BE800803540320129A9690ED0994301239B049D
:108BF800C918A9613349D16033490B780121C905E6
:108C0800324E002B07D009E099430123DB04C91831
:108C1800A9612F49EFE73378032B14D0D3688B432E
:108C2800D36050630E20106200275762FF20153072
:108C380050622848009030780300F9F7C7F8050714
:108C4800070D090B0D00D3680B43E9E7224802E042
:108C5800224800E0224800900098431E0093FBD26F
:108C6800686B57620002000E17621E4BD360FF2329
:108C7800413353626523DB0223601B4D2F78E023C9
:108C8800012F0AD02D78022D25680AD09D43256032
:108C98000D4B1B78002B07D009E025689D43203534
:108CA800F5E79D434035F2E73378032B03D0D368CB
:108CB8008B43D360F8BDD3680B43FAE71000030079
:108CC800400003407F4073004B0AFF1F4A0AFF1F02
:108CD8007F40530010270000204E00003075000030
:108CE800409C000040401000490AFF1F10B50A4C84
:108CF8002070E170012020710020607107216170EF
:108D0800A07006212046FAF73DFBA0716178204645
:108D1800FBF794FA10BD000004D7FF1F0248012298
:108D28008178114381707047A4BAFF1F0149087008
:108D38007047000074BAFF1F0246002006E04B1C73
:108D480013600A23097858433038081811680B78DB
:108D5800303B092BF3D9704738B5044600910029F8
:108D68000BD00020FBF766F8204007D00520F8F765
:108D7800EBFF0098401E0090F3D11120002800D08E
:108D8800FEE738BD10B50348012189038078F8F75C
:108D980079FE10BD74BAFF1F70B515A0FCF70AF96B
:108DA800174D0024295D17A0FCF704F9641C0A2C50
:108DB800F8DB16A0FCF7FEF80024092214A11048DD
:108DC800F8F76CFE641C0A2CF7DB14A0FCF7F2F829
:108DD8000024295D0BA0FCF7EDF8641C0A2CF8DBD5
:108DE8000AA0FCF7E7F87D20C000FAF715FB70BD74
:108DF80042575F6461746173206F6C6431303A006C
:108E08007098FF1F25303278200000000D0A0000FE
:108E180031323334353637383930000042575F64E1
:108E280061746173206E657731303A0078B5174BFD
:108E3800012800D1164B0025164C009504E0009837
:108E4800461C0096A0421ADCD86FC007F7D10AE08A
:108E58000098461C0096A04211DC187D8006F7D5C4
:108E680008781870491C1046521E92B200280095C6
:108E7800F3D106E00098411C0091A04201DD0D20CD
:108E880078BD187D4006F5D5002078BD004000402B
:108E980000900040A0860100F7B507462A49400126
:108EA80044182A4D241D1646002A10D0019800287F
:108EB8000DD02178002908D0E088B04205D30129D7
:108EC80016D0A1888919814203D90320FEBD062046
:108ED800FEBDF8F713FEA188A06832464018019934
:108EE800F8F7DCFDA0888019A080F8F719FE27E0C4
:108EF800A0680199F8F7D2FDA680002060800220C2
:108F08002070A168102E00D91026012F00D1104D15
:108F18006A68022082436A6004E06088421C6280BA
:108F2800085C28703046761EB6B20028F5D1002FAE
:108F380008D01920FDF74EFE6868022108436860D2
:108F48000020FEBD0820F5E7BCE2FF1F00400040FE
:108F58000090004070B5054608260B201949012DE0
:108F680002D1192618491120002807DB0122824066
:108F780016480260BFF34F8FBFF36F8F80200873CE
:108F880000240C710C700C730C724C603046FCF7AA
:108F9800DBFC3046FCF7A4FC002D0ED00C484460E6
:108FA8000C4869010C18207C0021FDF78BFA607CC5
:108FB8000021FDF787FA002070BD05484038C462DB
:108FC800EEE70000004000400090004080E100E033
:108FD800C003FF1FBCE2FF1FF0B585B00746F9F7D5
:108FE800BDF803900820029004200190052000900D
:108FF800594C0B263846FFF7ADFF012F07D1192032
:109008000290082011260190544C092000905448E1
:1090180079010D18287CFF2802D1687CFF282FD001
:1090280010350298FCF776FC0298FCF78DFC0121BC
:109038001220FDF70DFB01211220FDF709FB12207C
:109048000199FDF74FFA12200099FDF74BFA00201D
:1090580020730398696800114A088018F8F76EFEB3
:109068000021216180212173010A21712070E87A91
:10907800002852D038493B488C4204D1007803E09C
:10908800062005B0F0BD4078002801D01B2000E084
:109098000B202073287A002800D087202072012016
:1090A8006060287A002803D06068802108436060E7
:1090B800A87A002803D060680221084360602878F5
:1090C8000121FDF7C5FA68780121FDF7C1FA287872
:1090D8000199FDF707FA68780099FDF703FA00216E
:1090E8001220FDF7EFF903211220FDF7B1FA002F46
:1090F80015D01E491C484860FF22002E14DBB10819
:109108001B48890008180368B107C90E8A409343B1
:1091180080228A401343036016E00320B9E713490D
